{
	"Trust.sol": {
		"Trust": {
			"abi": [
				{
					"inputs": [
						{
							"internalType": "address",
							"name": "Kid",
							"type": "address"
						},
						{
							"internalType": "uint256",
							"name": "timeToMaturity",
							"type": "uint256"
						}
					],
					"name": "addKid",
					"outputs": [],
					"stateMutability": "payable",
					"type": "function"
				},
				{
					"inputs": [
						{
							"internalType": "address",
							"name": "",
							"type": "address"
						}
					],
					"name": "amounts",
					"outputs": [
						{
							"internalType": "uint256",
							"name": "",
							"type": "uint256"
						}
					],
					"stateMutability": "view",
					"type": "function"
				},
				{
					"inputs": [
						{
							"internalType": "address",
							"name": "",
							"type": "address"
						}
					],
					"name": "maturities",
					"outputs": [
						{
							"internalType": "uint256",
							"name": "",
							"type": "uint256"
						}
					],
					"stateMutability": "view",
					"type": "function"
				},
				{
					"inputs": [
						{
							"internalType": "address",
							"name": "",
							"type": "address"
						}
					],
					"name": "paid",
					"outputs": [
						{
							"internalType": "bool",
							"name": "",
							"type": "bool"
						}
					],
					"stateMutability": "view",
					"type": "function"
				},
				{
					"inputs": [],
					"name": "withdraw",
					"outputs": [],
					"stateMutability": "nonpayable",
					"type": "function"
				}
			],
			"devdoc": {
				"kind": "dev",
				"methods": {},
				"version": 1
			},
			"evm": {
				"assembly": "    /* \"Trust.sol\":74:669  contract Trust {\r... */\n  mstore(0x40, 0x80)\n  callvalue\n  dup1\n  iszero\n  tag_1\n  jumpi\n  0x00\n  dup1\n  revert\ntag_1:\n  pop\n  dataSize(sub_0)\n  dup1\n  dataOffset(sub_0)\n  0x00\n  codecopy\n  0x00\n  return\nstop\n\nsub_0: assembly {\n        /* \"Trust.sol\":74:669  contract Trust {\r... */\n      mstore(0x40, 0x80)\n      jumpi(tag_1, lt(calldatasize, 0x04))\n      shr(0xe0, calldataload(0x00))\n      dup1\n      0x3ccfd60b\n      eq\n      tag_2\n      jumpi\n      dup1\n      0x40990e30\n      eq\n      tag_3\n      jumpi\n      dup1\n      0x55a3b2c1\n      eq\n      tag_4\n      jumpi\n      dup1\n      0x6607250b\n      eq\n      tag_5\n      jumpi\n      dup1\n      0xa340cf79\n      eq\n      tag_6\n      jumpi\n    tag_1:\n      0x00\n      dup1\n      revert\n        /* \"Trust.sol\":416:666  function withdraw() external {\r... */\n    tag_2:\n      callvalue\n      dup1\n      iszero\n      tag_7\n      jumpi\n      0x00\n      dup1\n      revert\n    tag_7:\n      pop\n      tag_8\n      tag_9\n      jump\t// in\n    tag_8:\n      stop\n        /* \"Trust.sol\":236:408  function addKid(address Kid, uint timeToMaturity) external payable {\r... */\n    tag_3:\n      tag_10\n      0x04\n      dup1\n      calldatasize\n      sub\n      dup2\n      add\n      swap1\n      tag_11\n      swap2\n      swap1\n      tag_12\n      jump\t// in\n    tag_11:\n      tag_13\n      jump\t// in\n    tag_10:\n      stop\n        /* \"Trust.sol\":96:135  mapping(address => uint) public amounts */\n    tag_4:\n      callvalue\n      dup1\n      iszero\n      tag_14\n      jumpi\n      0x00\n      dup1\n      revert\n    tag_14:\n      pop\n      tag_15\n      0x04\n      dup1\n      calldatasize\n      sub\n      dup2\n      add\n      swap1\n      tag_16\n      swap2\n      swap1\n      tag_17\n      jump\t// in\n    tag_16:\n      tag_18\n      jump\t// in\n    tag_15:\n      mload(0x40)\n      tag_19\n      swap2\n      swap1\n      tag_20\n      jump\t// in\n    tag_19:\n      mload(0x40)\n      dup1\n      swap2\n      sub\n      swap1\n      return\n        /* \"Trust.sol\":142:184  mapping(address => uint) public maturities */\n    tag_5:\n      callvalue\n      dup1\n      iszero\n      tag_21\n      jumpi\n      0x00\n      dup1\n      revert\n    tag_21:\n      pop\n      tag_22\n      0x04\n      dup1\n      calldatasize\n      sub\n      dup2\n      add\n      swap1\n      tag_23\n      swap2\n      swap1\n      tag_17\n      jump\t// in\n    tag_23:\n      tag_24\n      jump\t// in\n    tag_22:\n      mload(0x40)\n      tag_25\n      swap2\n      swap1\n      tag_20\n      jump\t// in\n    tag_25:\n      mload(0x40)\n      dup1\n      swap2\n      sub\n      swap1\n      return\n        /* \"Trust.sol\":191:227  mapping(address => bool) public paid */\n    tag_6:\n      callvalue\n      dup1\n      iszero\n      tag_26\n      jumpi\n      0x00\n      dup1\n      revert\n    tag_26:\n      pop\n      tag_27\n      0x04\n      dup1\n      calldatasize\n      sub\n      dup2\n      add\n      swap1\n      tag_28\n      swap2\n      swap1\n      tag_17\n      jump\t// in\n    tag_28:\n      tag_29\n      jump\t// in\n    tag_27:\n      mload(0x40)\n      tag_30\n      swap2\n      swap1\n      tag_31\n      jump\t// in\n    tag_30:\n      mload(0x40)\n      dup1\n      swap2\n      sub\n      swap1\n      return\n        /* \"Trust.sol\":416:666  function withdraw() external {\r... */\n    tag_9:\n        /* \"Trust.sol\":490:505  block.timestamp */\n      timestamp\n        /* \"Trust.sol\":464:474  maturities */\n      0x01\n        /* \"Trust.sol\":464:486  maturities[msg.sender] */\n      0x00\n        /* \"Trust.sol\":475:485  msg.sender */\n      caller\n        /* \"Trust.sol\":464:486  maturities[msg.sender] */\n      0xffffffffffffffffffffffffffffffffffffffff\n      and\n      0xffffffffffffffffffffffffffffffffffffffff\n      and\n      dup2\n      mstore\n      0x20\n      add\n      swap1\n      dup2\n      mstore\n      0x20\n      add\n      0x00\n      keccak256\n      sload\n        /* \"Trust.sol\":464:505  maturities[msg.sender] <= block.timestamp */\n      gt\n      iszero\n        /* \"Trust.sol\":456:519  require(maturities[msg.sender] <= block.timestamp, \"too early\") */\n      tag_33\n      jumpi\n      mload(0x40)\n      0x08c379a000000000000000000000000000000000000000000000000000000000\n      dup2\n      mstore\n      0x04\n      add\n      tag_34\n      swap1\n      tag_35\n      jump\t// in\n    tag_34:\n      mload(0x40)\n      dup1\n      swap2\n      sub\n      swap1\n      revert\n    tag_33:\n        /* \"Trust.sol\":560:561  0 */\n      0x00\n        /* \"Trust.sol\":538:545  amounts */\n      dup1\n        /* \"Trust.sol\":538:557  amounts[msg.sender] */\n      0x00\n        /* \"Trust.sol\":546:556  msg.sender */\n      caller\n        /* \"Trust.sol\":538:557  amounts[msg.sender] */\n      0xffffffffffffffffffffffffffffffffffffffff\n      and\n      0xffffffffffffffffffffffffffffffffffffffff\n      and\n      dup2\n      mstore\n      0x20\n      add\n      swap1\n      dup2\n      mstore\n      0x20\n      add\n      0x00\n      keccak256\n      sload\n        /* \"Trust.sol\":538:561  amounts[msg.sender] > 0 */\n      gt\n        /* \"Trust.sol\":530:588  require(amounts[msg.sender] > 0, 'only kid can withdraw' ) */\n      tag_36\n      jumpi\n      mload(0x40)\n      0x08c379a000000000000000000000000000000000000000000000000000000000\n      dup2\n      mstore\n      0x04\n      add\n      tag_37\n      swap1\n      tag_38\n      jump\t// in\n    tag_37:\n      mload(0x40)\n      dup1\n      swap2\n      sub\n      swap1\n      revert\n    tag_36:\n        /* \"Trust.sol\":617:627  msg.sender */\n      caller\n        /* \"Trust.sol\":609:637  payable(msg.sender).transfer */\n      0xffffffffffffffffffffffffffffffffffffffff\n      and\n        /* \"Trust.sol\":609:658  payable(msg.sender).transfer(amounts[msg.sender]) */\n      0x08fc\n        /* \"Trust.sol\":638:645  amounts */\n      0x00\n        /* \"Trust.sol\":638:657  amounts[msg.sender] */\n      dup1\n        /* \"Trust.sol\":646:656  msg.sender */\n      caller\n        /* \"Trust.sol\":638:657  amounts[msg.sender] */\n      0xffffffffffffffffffffffffffffffffffffffff\n      and\n      0xffffffffffffffffffffffffffffffffffffffff\n      and\n      dup2\n      mstore\n      0x20\n      add\n      swap1\n      dup2\n      mstore\n      0x20\n      add\n      0x00\n      keccak256\n      sload\n        /* \"Trust.sol\":609:658  payable(msg.sender).transfer(amounts[msg.sender]) */\n      swap1\n      dup2\n      iszero\n      mul\n      swap1\n      mload(0x40)\n      0x00\n      mload(0x40)\n      dup1\n      dup4\n      sub\n      dup2\n      dup6\n      dup9\n      dup9\n      call\n      swap4\n      pop\n      pop\n      pop\n      pop\n      iszero\n      dup1\n      iszero\n      tag_40\n      jumpi\n      returndatasize\n      0x00\n      dup1\n      returndatacopy\n      revert(0x00, returndatasize)\n    tag_40:\n      pop\n        /* \"Trust.sol\":416:666  function withdraw() external {\r... */\n      jump\t// out\n        /* \"Trust.sol\":236:408  function addKid(address Kid, uint timeToMaturity) external payable {\r... */\n    tag_13:\n        /* \"Trust.sol\":329:338  msg.value */\n      callvalue\n        /* \"Trust.sol\":314:321  amounts */\n      0x00\n        /* \"Trust.sol\":314:326  amounts[Kid] */\n      dup1\n        /* \"Trust.sol\":322:325  Kid */\n      dup5\n        /* \"Trust.sol\":314:326  amounts[Kid] */\n      0xffffffffffffffffffffffffffffffffffffffff\n      and\n      0xffffffffffffffffffffffffffffffffffffffff\n      and\n      dup2\n      mstore\n      0x20\n      add\n      swap1\n      dup2\n      mstore\n      0x20\n      add\n      0x00\n      keccak256\n        /* \"Trust.sol\":314:338  amounts[Kid] = msg.value */\n      dup2\n      swap1\n      sstore\n      pop\n        /* \"Trust.sol\":384:398  timeToMaturity */\n      dup1\n        /* \"Trust.sol\":367:382  block.timestamp */\n      timestamp\n        /* \"Trust.sol\":367:398  block.timestamp +timeToMaturity */\n      tag_42\n      swap2\n      swap1\n      tag_43\n      jump\t// in\n    tag_42:\n        /* \"Trust.sol\":349:359  maturities */\n      0x01\n        /* \"Trust.sol\":349:364  maturities[Kid] */\n      0x00\n        /* \"Trust.sol\":360:363  Kid */\n      dup5\n        /* \"Trust.sol\":349:364  maturities[Kid] */\n      0xffffffffffffffffffffffffffffffffffffffff\n      and\n      0xffffffffffffffffffffffffffffffffffffffff\n      and\n      dup2\n      mstore\n      0x20\n      add\n      swap1\n      dup2\n      mstore\n      0x20\n      add\n      0x00\n      keccak256\n        /* \"Trust.sol\":349:398  maturities[Kid] = block.timestamp +timeToMaturity */\n      dup2\n      swap1\n      sstore\n      pop\n        /* \"Trust.sol\":236:408  function addKid(address Kid, uint timeToMaturity) external payable {\r... */\n      pop\n      pop\n      jump\t// out\n        /* \"Trust.sol\":96:135  mapping(address => uint) public amounts */\n    tag_18:\n      mstore(0x20, 0x00)\n      dup1\n      0x00\n      mstore\n      keccak256(0x00, 0x40)\n      0x00\n      swap2\n      pop\n      swap1\n      pop\n      sload\n      dup2\n      jump\t// out\n        /* \"Trust.sol\":142:184  mapping(address => uint) public maturities */\n    tag_24:\n      mstore(0x20, 0x01)\n      dup1\n      0x00\n      mstore\n      keccak256(0x00, 0x40)\n      0x00\n      swap2\n      pop\n      swap1\n      pop\n      sload\n      dup2\n      jump\t// out\n        /* \"Trust.sol\":191:227  mapping(address => bool) public paid */\n    tag_29:\n      mstore(0x20, 0x02)\n      dup1\n      0x00\n      mstore\n      keccak256(0x00, 0x40)\n      0x00\n      swap2\n      pop\n      sload\n      swap1\n      0x0100\n      exp\n      swap1\n      div\n      0xff\n      and\n      dup2\n      jump\t// out\n        /* \"#utility.yul\":7:146   */\n    tag_45:\n      0x00\n        /* \"#utility.yul\":91:97   */\n      dup2\n        /* \"#utility.yul\":78:98   */\n      calldataload\n        /* \"#utility.yul\":69:98   */\n      swap1\n      pop\n        /* \"#utility.yul\":107:140   */\n      tag_47\n        /* \"#utility.yul\":134:139   */\n      dup2\n        /* \"#utility.yul\":107:140   */\n      tag_48\n      jump\t// in\n    tag_47:\n        /* \"#utility.yul\":59:146   */\n      swap3\n      swap2\n      pop\n      pop\n      jump\t// out\n        /* \"#utility.yul\":152:291   */\n    tag_49:\n      0x00\n        /* \"#utility.yul\":236:242   */\n      dup2\n        /* \"#utility.yul\":223:243   */\n      calldataload\n        /* \"#utility.yul\":214:243   */\n      swap1\n      pop\n        /* \"#utility.yul\":252:285   */\n      tag_51\n        /* \"#utility.yul\":279:284   */\n      dup2\n        /* \"#utility.yul\":252:285   */\n      tag_52\n      jump\t// in\n    tag_51:\n        /* \"#utility.yul\":204:291   */\n      swap3\n      swap2\n      pop\n      pop\n      jump\t// out\n        /* \"#utility.yul\":297:559   */\n    tag_17:\n      0x00\n        /* \"#utility.yul\":405:407   */\n      0x20\n        /* \"#utility.yul\":393:402   */\n      dup3\n        /* \"#utility.yul\":384:391   */\n      dup5\n        /* \"#utility.yul\":380:403   */\n      sub\n        /* \"#utility.yul\":376:408   */\n      slt\n        /* \"#utility.yul\":373:375   */\n      iszero\n      tag_54\n      jumpi\n        /* \"#utility.yul\":421:422   */\n      0x00\n        /* \"#utility.yul\":418:419   */\n      dup1\n        /* \"#utility.yul\":411:423   */\n      revert\n        /* \"#utility.yul\":373:375   */\n    tag_54:\n        /* \"#utility.yul\":464:465   */\n      0x00\n        /* \"#utility.yul\":489:542   */\n      tag_55\n        /* \"#utility.yul\":534:541   */\n      dup5\n        /* \"#utility.yul\":525:531   */\n      dup3\n        /* \"#utility.yul\":514:523   */\n      dup6\n        /* \"#utility.yul\":510:532   */\n      add\n        /* \"#utility.yul\":489:542   */\n      tag_45\n      jump\t// in\n    tag_55:\n        /* \"#utility.yul\":479:542   */\n      swap2\n      pop\n        /* \"#utility.yul\":435:552   */\n      pop\n        /* \"#utility.yul\":363:559   */\n      swap3\n      swap2\n      pop\n      pop\n      jump\t// out\n        /* \"#utility.yul\":565:972   */\n    tag_12:\n      0x00\n      dup1\n        /* \"#utility.yul\":690:692   */\n      0x40\n        /* \"#utility.yul\":678:687   */\n      dup4\n        /* \"#utility.yul\":669:676   */\n      dup6\n        /* \"#utility.yul\":665:688   */\n      sub\n        /* \"#utility.yul\":661:693   */\n      slt\n        /* \"#utility.yul\":658:660   */\n      iszero\n      tag_57\n      jumpi\n        /* \"#utility.yul\":706:707   */\n      0x00\n        /* \"#utility.yul\":703:704   */\n      dup1\n        /* \"#utility.yul\":696:708   */\n      revert\n        /* \"#utility.yul\":658:660   */\n    tag_57:\n        /* \"#utility.yul\":749:750   */\n      0x00\n        /* \"#utility.yul\":774:827   */\n      tag_58\n        /* \"#utility.yul\":819:826   */\n      dup6\n        /* \"#utility.yul\":810:816   */\n      dup3\n        /* \"#utility.yul\":799:808   */\n      dup7\n        /* \"#utility.yul\":795:817   */\n      add\n        /* \"#utility.yul\":774:827   */\n      tag_45\n      jump\t// in\n    tag_58:\n        /* \"#utility.yul\":764:827   */\n      swap3\n      pop\n        /* \"#utility.yul\":720:837   */\n      pop\n        /* \"#utility.yul\":876:878   */\n      0x20\n        /* \"#utility.yul\":902:955   */\n      tag_59\n        /* \"#utility.yul\":947:954   */\n      dup6\n        /* \"#utility.yul\":938:944   */\n      dup3\n        /* \"#utility.yul\":927:936   */\n      dup7\n        /* \"#utility.yul\":923:945   */\n      add\n        /* \"#utility.yul\":902:955   */\n      tag_49\n      jump\t// in\n    tag_59:\n        /* \"#utility.yul\":892:955   */\n      swap2\n      pop\n        /* \"#utility.yul\":847:965   */\n      pop\n        /* \"#utility.yul\":648:972   */\n      swap3\n      pop\n      swap3\n      swap1\n      pop\n      jump\t// out\n        /* \"#utility.yul\":978:1087   */\n    tag_60:\n        /* \"#utility.yul\":1059:1080   */\n      tag_62\n        /* \"#utility.yul\":1074:1079   */\n      dup2\n        /* \"#utility.yul\":1059:1080   */\n      tag_63\n      jump\t// in\n    tag_62:\n        /* \"#utility.yul\":1054:1057   */\n      dup3\n        /* \"#utility.yul\":1047:1081   */\n      mstore\n        /* \"#utility.yul\":1037:1087   */\n      pop\n      pop\n      jump\t// out\n        /* \"#utility.yul\":1093:1459   */\n    tag_64:\n      0x00\n        /* \"#utility.yul\":1256:1323   */\n      tag_66\n        /* \"#utility.yul\":1320:1322   */\n      0x15\n        /* \"#utility.yul\":1315:1318   */\n      dup4\n        /* \"#utility.yul\":1256:1323   */\n      tag_67\n      jump\t// in\n    tag_66:\n        /* \"#utility.yul\":1249:1323   */\n      swap2\n      pop\n        /* \"#utility.yul\":1332:1425   */\n      tag_68\n        /* \"#utility.yul\":1421:1424   */\n      dup3\n        /* \"#utility.yul\":1332:1425   */\n      tag_69\n      jump\t// in\n    tag_68:\n        /* \"#utility.yul\":1450:1452   */\n      0x20\n        /* \"#utility.yul\":1445:1448   */\n      dup3\n        /* \"#utility.yul\":1441:1453   */\n      add\n        /* \"#utility.yul\":1434:1453   */\n      swap1\n      pop\n        /* \"#utility.yul\":1239:1459   */\n      swap2\n      swap1\n      pop\n      jump\t// out\n        /* \"#utility.yul\":1465:1830   */\n    tag_70:\n      0x00\n        /* \"#utility.yul\":1628:1694   */\n      tag_72\n        /* \"#utility.yul\":1692:1693   */\n      0x09\n        /* \"#utility.yul\":1687:1690   */\n      dup4\n        /* \"#utility.yul\":1628:1694   */\n      tag_67\n      jump\t// in\n    tag_72:\n        /* \"#utility.yul\":1621:1694   */\n      swap2\n      pop\n        /* \"#utility.yul\":1703:1796   */\n      tag_73\n        /* \"#utility.yul\":1792:1795   */\n      dup3\n        /* \"#utility.yul\":1703:1796   */\n      tag_74\n      jump\t// in\n    tag_73:\n        /* \"#utility.yul\":1821:1823   */\n      0x20\n        /* \"#utility.yul\":1816:1819   */\n      dup3\n        /* \"#utility.yul\":1812:1824   */\n      add\n        /* \"#utility.yul\":1805:1824   */\n      swap1\n      pop\n        /* \"#utility.yul\":1611:1830   */\n      swap2\n      swap1\n      pop\n      jump\t// out\n        /* \"#utility.yul\":1836:1954   */\n    tag_75:\n        /* \"#utility.yul\":1923:1947   */\n      tag_77\n        /* \"#utility.yul\":1941:1946   */\n      dup2\n        /* \"#utility.yul\":1923:1947   */\n      tag_78\n      jump\t// in\n    tag_77:\n        /* \"#utility.yul\":1918:1921   */\n      dup3\n        /* \"#utility.yul\":1911:1948   */\n      mstore\n        /* \"#utility.yul\":1901:1954   */\n      pop\n      pop\n      jump\t// out\n        /* \"#utility.yul\":1960:2170   */\n    tag_31:\n      0x00\n        /* \"#utility.yul\":2085:2087   */\n      0x20\n        /* \"#utility.yul\":2074:2083   */\n      dup3\n        /* \"#utility.yul\":2070:2088   */\n      add\n        /* \"#utility.yul\":2062:2088   */\n      swap1\n      pop\n        /* \"#utility.yul\":2098:2163   */\n      tag_80\n        /* \"#utility.yul\":2160:2161   */\n      0x00\n        /* \"#utility.yul\":2149:2158   */\n      dup4\n        /* \"#utility.yul\":2145:2162   */\n      add\n        /* \"#utility.yul\":2136:2142   */\n      dup5\n        /* \"#utility.yul\":2098:2163   */\n      tag_60\n      jump\t// in\n    tag_80:\n        /* \"#utility.yul\":2052:2170   */\n      swap3\n      swap2\n      pop\n      pop\n      jump\t// out\n        /* \"#utility.yul\":2176:2595   */\n    tag_38:\n      0x00\n        /* \"#utility.yul\":2380:2382   */\n      0x20\n        /* \"#utility.yul\":2369:2378   */\n      dup3\n        /* \"#utility.yul\":2365:2383   */\n      add\n        /* \"#utility.yul\":2357:2383   */\n      swap1\n      pop\n        /* \"#utility.yul\":2429:2438   */\n      dup2\n        /* \"#utility.yul\":2423:2427   */\n      dup2\n        /* \"#utility.yul\":2419:2439   */\n      sub\n        /* \"#utility.yul\":2415:2416   */\n      0x00\n        /* \"#utility.yul\":2404:2413   */\n      dup4\n        /* \"#utility.yul\":2400:2417   */\n      add\n        /* \"#utility.yul\":2393:2440   */\n      mstore\n        /* \"#utility.yul\":2457:2588   */\n      tag_82\n        /* \"#utility.yul\":2583:2587   */\n      dup2\n        /* \"#utility.yul\":2457:2588   */\n      tag_64\n      jump\t// in\n    tag_82:\n        /* \"#utility.yul\":2449:2588   */\n      swap1\n      pop\n        /* \"#utility.yul\":2347:2595   */\n      swap2\n      swap1\n      pop\n      jump\t// out\n        /* \"#utility.yul\":2601:3020   */\n    tag_35:\n      0x00\n        /* \"#utility.yul\":2805:2807   */\n      0x20\n        /* \"#utility.yul\":2794:2803   */\n      dup3\n        /* \"#utility.yul\":2790:2808   */\n      add\n        /* \"#utility.yul\":2782:2808   */\n      swap1\n      pop\n        /* \"#utility.yul\":2854:2863   */\n      dup2\n        /* \"#utility.yul\":2848:2852   */\n      dup2\n        /* \"#utility.yul\":2844:2864   */\n      sub\n        /* \"#utility.yul\":2840:2841   */\n      0x00\n        /* \"#utility.yul\":2829:2838   */\n      dup4\n        /* \"#utility.yul\":2825:2842   */\n      add\n        /* \"#utility.yul\":2818:2865   */\n      mstore\n        /* \"#utility.yul\":2882:3013   */\n      tag_84\n        /* \"#utility.yul\":3008:3012   */\n      dup2\n        /* \"#utility.yul\":2882:3013   */\n      tag_70\n      jump\t// in\n    tag_84:\n        /* \"#utility.yul\":2874:3013   */\n      swap1\n      pop\n        /* \"#utility.yul\":2772:3020   */\n      swap2\n      swap1\n      pop\n      jump\t// out\n        /* \"#utility.yul\":3026:3248   */\n    tag_20:\n      0x00\n        /* \"#utility.yul\":3157:3159   */\n      0x20\n        /* \"#utility.yul\":3146:3155   */\n      dup3\n        /* \"#utility.yul\":3142:3160   */\n      add\n        /* \"#utility.yul\":3134:3160   */\n      swap1\n      pop\n        /* \"#utility.yul\":3170:3241   */\n      tag_86\n        /* \"#utility.yul\":3238:3239   */\n      0x00\n        /* \"#utility.yul\":3227:3236   */\n      dup4\n        /* \"#utility.yul\":3223:3240   */\n      add\n        /* \"#utility.yul\":3214:3220   */\n      dup5\n        /* \"#utility.yul\":3170:3241   */\n      tag_75\n      jump\t// in\n    tag_86:\n        /* \"#utility.yul\":3124:3248   */\n      swap3\n      swap2\n      pop\n      pop\n      jump\t// out\n        /* \"#utility.yul\":3254:3423   */\n    tag_67:\n      0x00\n        /* \"#utility.yul\":3372:3378   */\n      dup3\n        /* \"#utility.yul\":3367:3370   */\n      dup3\n        /* \"#utility.yul\":3360:3379   */\n      mstore\n        /* \"#utility.yul\":3412:3416   */\n      0x20\n        /* \"#utility.yul\":3407:3410   */\n      dup3\n        /* \"#utility.yul\":3403:3417   */\n      add\n        /* \"#utility.yul\":3388:3417   */\n      swap1\n      pop\n        /* \"#utility.yul\":3350:3423   */\n      swap3\n      swap2\n      pop\n      pop\n      jump\t// out\n        /* \"#utility.yul\":3429:3734   */\n    tag_43:\n      0x00\n        /* \"#utility.yul\":3488:3508   */\n      tag_89\n        /* \"#utility.yul\":3506:3507   */\n      dup3\n        /* \"#utility.yul\":3488:3508   */\n      tag_78\n      jump\t// in\n    tag_89:\n        /* \"#utility.yul\":3483:3508   */\n      swap2\n      pop\n        /* \"#utility.yul\":3522:3542   */\n      tag_90\n        /* \"#utility.yul\":3540:3541   */\n      dup4\n        /* \"#utility.yul\":3522:3542   */\n      tag_78\n      jump\t// in\n    tag_90:\n        /* \"#utility.yul\":3517:3542   */\n      swap3\n      pop\n        /* \"#utility.yul\":3676:3677   */\n      dup3\n        /* \"#utility.yul\":3608:3674   */\n      0xffffffffffffffffffffffffffffffffffffffffffffffffffffffffffffffff\n        /* \"#utility.yul\":3604:3678   */\n      sub\n        /* \"#utility.yul\":3601:3602   */\n      dup3\n        /* \"#utility.yul\":3598:3679   */\n      gt\n        /* \"#utility.yul\":3595:3597   */\n      iszero\n      tag_91\n      jumpi\n        /* \"#utility.yul\":3682:3700   */\n      tag_92\n      tag_93\n      jump\t// in\n    tag_92:\n        /* \"#utility.yul\":3595:3597   */\n    tag_91:\n        /* \"#utility.yul\":3726:3727   */\n      dup3\n        /* \"#utility.yul\":3723:3724   */\n      dup3\n        /* \"#utility.yul\":3719:3728   */\n      add\n        /* \"#utility.yul\":3712:3728   */\n      swap1\n      pop\n        /* \"#utility.yul\":3473:3734   */\n      swap3\n      swap2\n      pop\n      pop\n      jump\t// out\n        /* \"#utility.yul\":3740:3836   */\n    tag_94:\n      0x00\n        /* \"#utility.yul\":3806:3830   */\n      tag_96\n        /* \"#utility.yul\":3824:3829   */\n      dup3\n        /* \"#utility.yul\":3806:3830   */\n      tag_97\n      jump\t// in\n    tag_96:\n        /* \"#utility.yul\":3795:3830   */\n      swap1\n      pop\n        /* \"#utility.yul\":3785:3836   */\n      swap2\n      swap1\n      pop\n      jump\t// out\n        /* \"#utility.yul\":3842:3932   */\n    tag_63:\n      0x00\n        /* \"#utility.yul\":3919:3924   */\n      dup2\n        /* \"#utility.yul\":3912:3925   */\n      iszero\n        /* \"#utility.yul\":3905:3926   */\n      iszero\n        /* \"#utility.yul\":3894:3926   */\n      swap1\n      pop\n        /* \"#utility.yul\":3884:3932   */\n      swap2\n      swap1\n      pop\n      jump\t// out\n        /* \"#utility.yul\":3938:4064   */\n    tag_97:\n      0x00\n        /* \"#utility.yul\":4015:4057   */\n      0xffffffffffffffffffffffffffffffffffffffff\n        /* \"#utility.yul\":4008:4013   */\n      dup3\n        /* \"#utility.yul\":4004:4058   */\n      and\n        /* \"#utility.yul\":3993:4058   */\n      swap1\n      pop\n        /* \"#utility.yul\":3983:4064   */\n      swap2\n      swap1\n      pop\n      jump\t// out\n        /* \"#utility.yul\":4070:4147   */\n    tag_78:\n      0x00\n        /* \"#utility.yul\":4136:4141   */\n      dup2\n        /* \"#utility.yul\":4125:4141   */\n      swap1\n      pop\n        /* \"#utility.yul\":4115:4147   */\n      swap2\n      swap1\n      pop\n      jump\t// out\n        /* \"#utility.yul\":4153:4333   */\n    tag_93:\n        /* \"#utility.yul\":4201:4278   */\n      0x4e487b7100000000000000000000000000000000000000000000000000000000\n        /* \"#utility.yul\":4198:4199   */\n      0x00\n        /* \"#utility.yul\":4191:4279   */\n      mstore\n        /* \"#utility.yul\":4298:4302   */\n      0x11\n        /* \"#utility.yul\":4295:4296   */\n      0x04\n        /* \"#utility.yul\":4288:4303   */\n      mstore\n        /* \"#utility.yul\":4322:4326   */\n      0x24\n        /* \"#utility.yul\":4319:4320   */\n      0x00\n        /* \"#utility.yul\":4312:4327   */\n      revert\n        /* \"#utility.yul\":4339:4510   */\n    tag_69:\n        /* \"#utility.yul\":4479:4502   */\n      0x6f6e6c79206b69642063616e2077697468647261770000000000000000000000\n        /* \"#utility.yul\":4475:4476   */\n      0x00\n        /* \"#utility.yul\":4467:4473   */\n      dup3\n        /* \"#utility.yul\":4463:4477   */\n      add\n        /* \"#utility.yul\":4456:4503   */\n      mstore\n        /* \"#utility.yul\":4445:4510   */\n      pop\n      jump\t// out\n        /* \"#utility.yul\":4516:4675   */\n    tag_74:\n        /* \"#utility.yul\":4656:4667   */\n      0x746f6f206561726c790000000000000000000000000000000000000000000000\n        /* \"#utility.yul\":4652:4653   */\n      0x00\n        /* \"#utility.yul\":4644:4650   */\n      dup3\n        /* \"#utility.yul\":4640:4654   */\n      add\n        /* \"#utility.yul\":4633:4668   */\n      mstore\n        /* \"#utility.yul\":4622:4675   */\n      pop\n      jump\t// out\n        /* \"#utility.yul\":4681:4803   */\n    tag_48:\n        /* \"#utility.yul\":4754:4778   */\n      tag_105\n        /* \"#utility.yul\":4772:4777   */\n      dup2\n        /* \"#utility.yul\":4754:4778   */\n      tag_94\n      jump\t// in\n    tag_105:\n        /* \"#utility.yul\":4747:4752   */\n      dup2\n        /* \"#utility.yul\":4744:4779   */\n      eq\n        /* \"#utility.yul\":4734:4736   */\n      tag_106\n      jumpi\n        /* \"#utility.yul\":4793:4794   */\n      0x00\n        /* \"#utility.yul\":4790:4791   */\n      dup1\n        /* \"#utility.yul\":4783:4795   */\n      revert\n        /* \"#utility.yul\":4734:4736   */\n    tag_106:\n        /* \"#utility.yul\":4724:4803   */\n      pop\n      jump\t// out\n        /* \"#utility.yul\":4809:4931   */\n    tag_52:\n        /* \"#utility.yul\":4882:4906   */\n      tag_108\n        /* \"#utility.yul\":4900:4905   */\n      dup2\n        /* \"#utility.yul\":4882:4906   */\n      tag_78\n      jump\t// in\n    tag_108:\n        /* \"#utility.yul\":4875:4880   */\n      dup2\n        /* \"#utility.yul\":4872:4907   */\n      eq\n        /* \"#utility.yul\":4862:4864   */\n      tag_109\n      jumpi\n        /* \"#utility.yul\":4921:4922   */\n      0x00\n        /* \"#utility.yul\":4918:4919   */\n      dup1\n        /* \"#utility.yul\":4911:4923   */\n      revert\n        /* \"#utility.yul\":4862:4864   */\n    tag_109:\n        /* \"#utility.yul\":4852:4931   */\n      pop\n      jump\t// out\n\n    auxdata: 0xa2646970667358221220eaba1744ac85ff87ac161ca66f75086ad6d292e2f8a2cf438141767357a60b5c64736f6c63430008010033\n}\n",
				"bytecode": {
					"linkReferences": {},
					"object": "608060405234801561001057600080fd5b506106a6806100206000396000f3fe60806040526004361061004a5760003560e01c80633ccfd60b1461004f57806340990e301461006657806355a3b2c1146100825780636607250b146100bf578063a340cf79146100fc575b600080fd5b34801561005b57600080fd5b50610064610139565b005b610080600480360381019061007b91906103fc565b6102c3565b005b34801561008e57600080fd5b506100a960048036038101906100a491906103d3565b610359565b6040516100b691906104f7565b60405180910390f35b3480156100cb57600080fd5b506100e660048036038101906100e191906103d3565b610371565b6040516100f391906104f7565b60405180910390f35b34801561010857600080fd5b50610123600480360381019061011e91906103d3565b610389565b604051610130919061049c565b60405180910390f35b42600160003373ffffffffffffffffffffffffffffffffffffffff1673ffffffffffffffffffffffffffffffffffffffff1681526020019081526020016000205411156101bb576040517f08c379a00000000000000000000000000000000000000000000000000000000081526004016101b2906104d7565b60405180910390fd5b60008060003373ffffffffffffffffffffffffffffffffffffffff1673ffffffffffffffffffffffffffffffffffffffff168152602001908152602001600020541161023c576040517f08c379a0000000000000000000000000000000000000000000000000000000008152600401610233906104b7565b60405180910390fd5b3373ffffffffffffffffffffffffffffffffffffffff166108fc6000803373ffffffffffffffffffffffffffffffffffffffff1673ffffffffffffffffffffffffffffffffffffffff168152602001908152602001600020549081150290604051600060405180830381858888f193505050501580156102c0573d6000803e3d6000fd5b50565b346000808473ffffffffffffffffffffffffffffffffffffffff1673ffffffffffffffffffffffffffffffffffffffff1681526020019081526020016000208190555080426103129190610523565b600160008473ffffffffffffffffffffffffffffffffffffffff1673ffffffffffffffffffffffffffffffffffffffff168152602001908152602001600020819055505050565b60006020528060005260406000206000915090505481565b60016020528060005260406000206000915090505481565b60026020528060005260406000206000915054906101000a900460ff1681565b6000813590506103b881610642565b92915050565b6000813590506103cd81610659565b92915050565b6000602082840312156103e557600080fd5b60006103f3848285016103a9565b91505092915050565b6000806040838503121561040f57600080fd5b600061041d858286016103a9565b925050602061042e858286016103be565b9150509250929050565b6104418161058b565b82525050565b6000610454601583610512565b915061045f826105f0565b602082019050919050565b6000610477600983610512565b915061048282610619565b602082019050919050565b610496816105b7565b82525050565b60006020820190506104b16000830184610438565b92915050565b600060208201905081810360008301526104d081610447565b9050919050565b600060208201905081810360008301526104f08161046a565b9050919050565b600060208201905061050c600083018461048d565b92915050565b600082825260208201905092915050565b600061052e826105b7565b9150610539836105b7565b9250827fffffffffffffffffffffffffffffffffffffffffffffffffffffffffffffffff0382111561056e5761056d6105c1565b5b828201905092915050565b600061058482610597565b9050919050565b60008115159050919050565b600073ffffffffffffffffffffffffffffffffffffffff82169050919050565b6000819050919050565b7f4e487b7100000000000000000000000000000000000000000000000000000000600052601160045260246000fd5b7f6f6e6c79206b69642063616e2077697468647261770000000000000000000000600082015250565b7f746f6f206561726c790000000000000000000000000000000000000000000000600082015250565b61064b81610579565b811461065657600080fd5b50565b610662816105b7565b811461066d57600080fd5b5056fea2646970667358221220eaba1744ac85ff87ac161ca66f75086ad6d292e2f8a2cf438141767357a60b5c64736f6c63430008010033",
					"opcodes": "PUSH1 0x80 PUSH1 0x40 MSTORE CALLVALUE DUP1 ISZERO PUSH2 0x10 JUMPI PUSH1 0x0 DUP1 REVERT JUMPDEST POP PUSH2 0x6A6 DUP1 PUSH2 0x20 PUSH1 0x0 CODECOPY PUSH1 0x0 RETURN INVALID PUSH1 0x80 PUSH1 0x40 MSTORE PUSH1 0x4 CALLDATASIZE LT PUSH2 0x4A JUMPI PUSH1 0x0 CALLDATALOAD PUSH1 0xE0 SHR DUP1 PUSH4 0x3CCFD60B EQ PUSH2 0x4F JUMPI DUP1 PUSH4 0x40990E30 EQ PUSH2 0x66 JUMPI DUP1 PUSH4 0x55A3B2C1 EQ PUSH2 0x82 JUMPI DUP1 PUSH4 0x6607250B EQ PUSH2 0xBF JUMPI DUP1 PUSH4 0xA340CF79 EQ PUSH2 0xFC JUMPI JUMPDEST PUSH1 0x0 DUP1 REVERT JUMPDEST CALLVALUE DUP1 ISZERO PUSH2 0x5B JUMPI PUSH1 0x0 DUP1 REVERT JUMPDEST POP PUSH2 0x64 PUSH2 0x139 JUMP JUMPDEST STOP JUMPDEST PUSH2 0x80 PUSH1 0x4 DUP1 CALLDATASIZE SUB DUP2 ADD SWAP1 PUSH2 0x7B SWAP2 SWAP1 PUSH2 0x3FC JUMP JUMPDEST PUSH2 0x2C3 JUMP JUMPDEST STOP JUMPDEST CALLVALUE DUP1 ISZERO PUSH2 0x8E JUMPI PUSH1 0x0 DUP1 REVERT JUMPDEST POP PUSH2 0xA9 PUSH1 0x4 DUP1 CALLDATASIZE SUB DUP2 ADD SWAP1 PUSH2 0xA4 SWAP2 SWAP1 PUSH2 0x3D3 JUMP JUMPDEST PUSH2 0x359 JUMP JUMPDEST PUSH1 0x40 MLOAD PUSH2 0xB6 SWAP2 SWAP1 PUSH2 0x4F7 JUMP JUMPDEST PUSH1 0x40 MLOAD DUP1 SWAP2 SUB SWAP1 RETURN JUMPDEST CALLVALUE DUP1 ISZERO PUSH2 0xCB JUMPI PUSH1 0x0 DUP1 REVERT JUMPDEST POP PUSH2 0xE6 PUSH1 0x4 DUP1 CALLDATASIZE SUB DUP2 ADD SWAP1 PUSH2 0xE1 SWAP2 SWAP1 PUSH2 0x3D3 JUMP JUMPDEST PUSH2 0x371 JUMP JUMPDEST PUSH1 0x40 MLOAD PUSH2 0xF3 SWAP2 SWAP1 PUSH2 0x4F7 JUMP JUMPDEST PUSH1 0x40 MLOAD DUP1 SWAP2 SUB SWAP1 RETURN JUMPDEST CALLVALUE DUP1 ISZERO PUSH2 0x108 JUMPI PUSH1 0x0 DUP1 REVERT JUMPDEST POP PUSH2 0x123 PUSH1 0x4 DUP1 CALLDATASIZE SUB DUP2 ADD SWAP1 PUSH2 0x11E SWAP2 SWAP1 PUSH2 0x3D3 JUMP JUMPDEST PUSH2 0x389 JUMP JUMPDEST PUSH1 0x40 MLOAD PUSH2 0x130 SWAP2 SWAP1 PUSH2 0x49C JUMP JUMPDEST PUSH1 0x40 MLOAD DUP1 SWAP2 SUB SWAP1 RETURN JUMPDEST TIMESTAMP PUSH1 0x1 PUSH1 0x0 CALLER PUSH20 0xFFFFFFFFFFFFFFFFFFFFFFFFFFFFFFFFFFFFFFFF AND PUSH20 0xFFFFFFFFFFFFFFFFFFFFFFFFFFFFFFFFFFFFFFFF AND DUP2 MSTORE PUSH1 0x20 ADD SWAP1 DUP2 MSTORE PUSH1 0x20 ADD PUSH1 0x0 KECCAK256 SLOAD GT ISZERO PUSH2 0x1BB JUMPI PUSH1 0x40 MLOAD PUSH32 0x8C379A000000000000000000000000000000000000000000000000000000000 DUP2 MSTORE PUSH1 0x4 ADD PUSH2 0x1B2 SWAP1 PUSH2 0x4D7 JUMP JUMPDEST PUSH1 0x40 MLOAD DUP1 SWAP2 SUB SWAP1 REVERT JUMPDEST PUSH1 0x0 DUP1 PUSH1 0x0 CALLER PUSH20 0xFFFFFFFFFFFFFFFFFFFFFFFFFFFFFFFFFFFFFFFF AND PUSH20 0xFFFFFFFFFFFFFFFFFFFFFFFFFFFFFFFFFFFFFFFF AND DUP2 MSTORE PUSH1 0x20 ADD SWAP1 DUP2 MSTORE PUSH1 0x20 ADD PUSH1 0x0 KECCAK256 SLOAD GT PUSH2 0x23C JUMPI PUSH1 0x40 MLOAD PUSH32 0x8C379A000000000000000000000000000000000000000000000000000000000 DUP2 MSTORE PUSH1 0x4 ADD PUSH2 0x233 SWAP1 PUSH2 0x4B7 JUMP JUMPDEST PUSH1 0x40 MLOAD DUP1 SWAP2 SUB SWAP1 REVERT JUMPDEST CALLER PUSH20 0xFFFFFFFFFFFFFFFFFFFFFFFFFFFFFFFFFFFFFFFF AND PUSH2 0x8FC PUSH1 0x0 DUP1 CALLER PUSH20 0xFFFFFFFFFFFFFFFFFFFFFFFFFFFFFFFFFFFFFFFF AND PUSH20 0xFFFFFFFFFFFFFFFFFFFFFFFFFFFFFFFFFFFFFFFF AND DUP2 MSTORE PUSH1 0x20 ADD SWAP1 DUP2 MSTORE PUSH1 0x20 ADD PUSH1 0x0 KECCAK256 SLOAD SWAP1 DUP2 ISZERO MUL SWAP1 PUSH1 0x40 MLOAD PUSH1 0x0 PUSH1 0x40 MLOAD DUP1 DUP4 SUB DUP2 DUP6 DUP9 DUP9 CALL SWAP4 POP POP POP POP ISZERO DUP1 ISZERO PUSH2 0x2C0 JUMPI RETURNDATASIZE PUSH1 0x0 DUP1 RETURNDATACOPY RETURNDATASIZE PUSH1 0x0 REVERT JUMPDEST POP JUMP JUMPDEST CALLVALUE PUSH1 0x0 DUP1 DUP5 PUSH20 0xFFFFFFFFFFFFFFFFFFFFFFFFFFFFFFFFFFFFFFFF AND PUSH20 0xFFFFFFFFFFFFFFFFFFFFFFFFFFFFFFFFFFFFFFFF AND DUP2 MSTORE PUSH1 0x20 ADD SWAP1 DUP2 MSTORE PUSH1 0x20 ADD PUSH1 0x0 KECCAK256 DUP2 SWAP1 SSTORE POP DUP1 TIMESTAMP PUSH2 0x312 SWAP2 SWAP1 PUSH2 0x523 JUMP JUMPDEST PUSH1 0x1 PUSH1 0x0 DUP5 PUSH20 0xFFFFFFFFFFFFFFFFFFFFFFFFFFFFFFFFFFFFFFFF AND PUSH20 0xFFFFFFFFFFFFFFFFFFFFFFFFFFFFFFFFFFFFFFFF AND DUP2 MSTORE PUSH1 0x20 ADD SWAP1 DUP2 MSTORE PUSH1 0x20 ADD PUSH1 0x0 KECCAK256 DUP2 SWAP1 SSTORE POP POP POP JUMP JUMPDEST PUSH1 0x0 PUSH1 0x20 MSTORE DUP1 PUSH1 0x0 MSTORE PUSH1 0x40 PUSH1 0x0 KECCAK256 PUSH1 0x0 SWAP2 POP SWAP1 POP SLOAD DUP2 JUMP JUMPDEST PUSH1 0x1 PUSH1 0x20 MSTORE DUP1 PUSH1 0x0 MSTORE PUSH1 0x40 PUSH1 0x0 KECCAK256 PUSH1 0x0 SWAP2 POP SWAP1 POP SLOAD DUP2 JUMP JUMPDEST PUSH1 0x2 PUSH1 0x20 MSTORE DUP1 PUSH1 0x0 MSTORE PUSH1 0x40 PUSH1 0x0 KECCAK256 PUSH1 0x0 SWAP2 POP SLOAD SWAP1 PUSH2 0x100 EXP SWAP1 DIV PUSH1 0xFF AND DUP2 JUMP JUMPDEST PUSH1 0x0 DUP2 CALLDATALOAD SWAP1 POP PUSH2 0x3B8 DUP2 PUSH2 0x642 JUMP JUMPDEST SWAP3 SWAP2 POP POP JUMP JUMPDEST PUSH1 0x0 DUP2 CALLDATALOAD SWAP1 POP PUSH2 0x3CD DUP2 PUSH2 0x659 JUMP JUMPDEST SWAP3 SWAP2 POP POP JUMP JUMPDEST PUSH1 0x0 PUSH1 0x20 DUP3 DUP5 SUB SLT ISZERO PUSH2 0x3E5 JUMPI PUSH1 0x0 DUP1 REVERT JUMPDEST PUSH1 0x0 PUSH2 0x3F3 DUP5 DUP3 DUP6 ADD PUSH2 0x3A9 JUMP JUMPDEST SWAP2 POP POP SWAP3 SWAP2 POP POP JUMP JUMPDEST PUSH1 0x0 DUP1 PUSH1 0x40 DUP4 DUP6 SUB SLT ISZERO PUSH2 0x40F JUMPI PUSH1 0x0 DUP1 REVERT JUMPDEST PUSH1 0x0 PUSH2 0x41D DUP6 DUP3 DUP7 ADD PUSH2 0x3A9 JUMP JUMPDEST SWAP3 POP POP PUSH1 0x20 PUSH2 0x42E DUP6 DUP3 DUP7 ADD PUSH2 0x3BE JUMP JUMPDEST SWAP2 POP POP SWAP3 POP SWAP3 SWAP1 POP JUMP JUMPDEST PUSH2 0x441 DUP2 PUSH2 0x58B JUMP JUMPDEST DUP3 MSTORE POP POP JUMP JUMPDEST PUSH1 0x0 PUSH2 0x454 PUSH1 0x15 DUP4 PUSH2 0x512 JUMP JUMPDEST SWAP2 POP PUSH2 0x45F DUP3 PUSH2 0x5F0 JUMP JUMPDEST PUSH1 0x20 DUP3 ADD SWAP1 POP SWAP2 SWAP1 POP JUMP JUMPDEST PUSH1 0x0 PUSH2 0x477 PUSH1 0x9 DUP4 PUSH2 0x512 JUMP JUMPDEST SWAP2 POP PUSH2 0x482 DUP3 PUSH2 0x619 JUMP JUMPDEST PUSH1 0x20 DUP3 ADD SWAP1 POP SWAP2 SWAP1 POP JUMP JUMPDEST PUSH2 0x496 DUP2 PUSH2 0x5B7 JUMP JUMPDEST DUP3 MSTORE POP POP JUMP JUMPDEST PUSH1 0x0 PUSH1 0x20 DUP3 ADD SWAP1 POP PUSH2 0x4B1 PUSH1 0x0 DUP4 ADD DUP5 PUSH2 0x438 JUMP JUMPDEST SWAP3 SWAP2 POP POP JUMP JUMPDEST PUSH1 0x0 PUSH1 0x20 DUP3 ADD SWAP1 POP DUP2 DUP2 SUB PUSH1 0x0 DUP4 ADD MSTORE PUSH2 0x4D0 DUP2 PUSH2 0x447 JUMP JUMPDEST SWAP1 POP SWAP2 SWAP1 POP JUMP JUMPDEST PUSH1 0x0 PUSH1 0x20 DUP3 ADD SWAP1 POP DUP2 DUP2 SUB PUSH1 0x0 DUP4 ADD MSTORE PUSH2 0x4F0 DUP2 PUSH2 0x46A JUMP JUMPDEST SWAP1 POP SWAP2 SWAP1 POP JUMP JUMPDEST PUSH1 0x0 PUSH1 0x20 DUP3 ADD SWAP1 POP PUSH2 0x50C PUSH1 0x0 DUP4 ADD DUP5 PUSH2 0x48D JUMP JUMPDEST SWAP3 SWAP2 POP POP JUMP JUMPDEST PUSH1 0x0 DUP3 DUP3 MSTORE PUSH1 0x20 DUP3 ADD SWAP1 POP SWAP3 SWAP2 POP POP JUMP JUMPDEST PUSH1 0x0 PUSH2 0x52E DUP3 PUSH2 0x5B7 JUMP JUMPDEST SWAP2 POP PUSH2 0x539 DUP4 PUSH2 0x5B7 JUMP JUMPDEST SWAP3 POP DUP3 PUSH32 0xFFFFFFFFFFFFFFFFFFFFFFFFFFFFFFFFFFFFFFFFFFFFFFFFFFFFFFFFFFFFFFFF SUB DUP3 GT ISZERO PUSH2 0x56E JUMPI PUSH2 0x56D PUSH2 0x5C1 JUMP JUMPDEST JUMPDEST DUP3 DUP3 ADD SWAP1 POP SWAP3 SWAP2 POP POP JUMP JUMPDEST PUSH1 0x0 PUSH2 0x584 DUP3 PUSH2 0x597 JUMP JUMPDEST SWAP1 POP SWAP2 SWAP1 POP JUMP JUMPDEST PUSH1 0x0 DUP2 ISZERO ISZERO SWAP1 POP SWAP2 SWAP1 POP JUMP JUMPDEST PUSH1 0x0 PUSH20 0xFFFFFFFFFFFFFFFFFFFFFFFFFFFFFFFFFFFFFFFF DUP3 AND SWAP1 POP SWAP2 SWAP1 POP JUMP JUMPDEST PUSH1 0x0 DUP2 SWAP1 POP SWAP2 SWAP1 POP JUMP JUMPDEST PUSH32 0x4E487B7100000000000000000000000000000000000000000000000000000000 PUSH1 0x0 MSTORE PUSH1 0x11 PUSH1 0x4 MSTORE PUSH1 0x24 PUSH1 0x0 REVERT JUMPDEST PUSH32 0x6F6E6C79206B69642063616E2077697468647261770000000000000000000000 PUSH1 0x0 DUP3 ADD MSTORE POP JUMP JUMPDEST PUSH32 0x746F6F206561726C790000000000000000000000000000000000000000000000 PUSH1 0x0 DUP3 ADD MSTORE POP JUMP JUMPDEST PUSH2 0x64B DUP2 PUSH2 0x579 JUMP JUMPDEST DUP2 EQ PUSH2 0x656 JUMPI PUSH1 0x0 DUP1 REVERT JUMPDEST POP JUMP JUMPDEST PUSH2 0x662 DUP2 PUSH2 0x5B7 JUMP JUMPDEST DUP2 EQ PUSH2 0x66D JUMPI PUSH1 0x0 DUP1 REVERT JUMPDEST POP JUMP INVALID LOG2 PUSH5 0x6970667358 0x22 SLT KECCAK256 0xEA 0xBA OR DIFFICULTY 0xAC DUP6 SELFDESTRUCT DUP8 0xAC AND SHR 0xA6 PUSH16 0x75086AD6D292E2F8A2CF438141767357 0xA6 SIGNEXTEND 0x5C PUSH5 0x736F6C6343 STOP ADDMOD ADD STOP CALLER "
				},
				"gasEstimates": {
					"creation": {
						"codeDepositCost": "340400",
						"executionCost": "380",
						"totalCost": "340780"
					},
					"external": {
						"addKid(address,uint256)": "infinite",
						"amounts(address)": "1536",
						"maturities(address)": "1558",
						"paid(address)": "1611",
						"withdraw()": "infinite"
					}
				},
				"methodIdentifiers": {
					"addKid(address,uint256)": "40990e30",
					"amounts(address)": "55a3b2c1",
					"maturities(address)": "6607250b",
					"paid(address)": "a340cf79",
					"withdraw()": "3ccfd60b"
				}
			},
			"storageLayout": {
				"storage": [
					{
						"astId": 5,
						"contract": "Trust.sol:Trust",
						"label": "amounts",
						"offset": 0,
						"slot": "0",
						"type": "t_mapping(t_address,t_uint256)"
					},
					{
						"astId": 9,
						"contract": "Trust.sol:Trust",
						"label": "maturities",
						"offset": 0,
						"slot": "1",
						"type": "t_mapping(t_address,t_uint256)"
					},
					{
						"astId": 13,
						"contract": "Trust.sol:Trust",
						"label": "paid",
						"offset": 0,
						"slot": "2",
						"type": "t_mapping(t_address,t_bool)"
					}
				],
				"types": {
					"t_address": {
						"encoding": "inplace",
						"label": "address",
						"numberOfBytes": "20"
					},
					"t_bool": {
						"encoding": "inplace",
						"label": "bool",
						"numberOfBytes": "1"
					},
					"t_mapping(t_address,t_bool)": {
						"encoding": "mapping",
						"key": "t_address",
						"label": "mapping(address => bool)",
						"numberOfBytes": "32",
						"value": "t_bool"
					},
					"t_mapping(t_address,t_uint256)": {
						"encoding": "mapping",
						"key": "t_address",
						"label": "mapping(address => uint256)",
						"numberOfBytes": "32",
						"value": "t_uint256"
					},
					"t_uint256": {
						"encoding": "inplace",
						"label": "uint256",
						"numberOfBytes": "32"
					}
				}
			},
			"userdoc": {
				"kind": "user",
				"methods": {},
				"version": 1
			}
		}
	}
}