{
	"Trust.sol": {
		"Trust": {
			"abi": [
				{
					"inputs": [],
					"stateMutability": "nonpayable",
					"type": "constructor"
				},
				{
					"inputs": [
						{
							"internalType": "address",
							"name": "Kid",
							"type": "address"
						},
						{
							"internalType": "uint256",
							"name": "timeToMaturity",
							"type": "uint256"
						}
					],
					"name": "addKid",
					"outputs": [],
					"stateMutability": "payable",
					"type": "function"
				},
				{
					"inputs": [],
					"name": "admin",
					"outputs": [
						{
							"internalType": "address",
							"name": "",
							"type": "address"
						}
					],
					"stateMutability": "view",
					"type": "function"
				},
				{
					"inputs": [
						{
							"internalType": "address",
							"name": "",
							"type": "address"
						}
					],
					"name": "amounts",
					"outputs": [
						{
							"internalType": "uint256",
							"name": "",
							"type": "uint256"
						}
					],
					"stateMutability": "view",
					"type": "function"
				},
				{
					"inputs": [
						{
							"internalType": "address",
							"name": "",
							"type": "address"
						}
					],
					"name": "maturities",
					"outputs": [
						{
							"internalType": "uint256",
							"name": "",
							"type": "uint256"
						}
					],
					"stateMutability": "view",
					"type": "function"
				},
				{
					"inputs": [
						{
							"internalType": "address",
							"name": "",
							"type": "address"
						}
					],
					"name": "paid",
					"outputs": [
						{
							"internalType": "bool",
							"name": "",
							"type": "bool"
						}
					],
					"stateMutability": "view",
					"type": "function"
				},
				{
					"inputs": [],
					"name": "withdraw",
					"outputs": [],
					"stateMutability": "nonpayable",
					"type": "function"
				}
			],
			"devdoc": {
				"kind": "dev",
				"methods": {},
				"version": 1
			},
			"evm": {
				"assembly": "    /* \"Trust.sol\":74:957  contract Trust {\r... */\n  mstore(0x40, 0x80)\n    /* \"Trust.sol\":263:314  constructor() {\r... */\n  callvalue\n  dup1\n  iszero\n  tag_1\n  jumpi\n  0x00\n  dup1\n  revert\ntag_1:\n  pop\n    /* \"Trust.sol\":296:306  msg.sender */\n  caller\n    /* \"Trust.sol\":288:293  admin */\n  0x03\n  0x00\n    /* \"Trust.sol\":288:306  admin = msg.sender */\n  0x0100\n  exp\n  dup2\n  sload\n  dup2\n  0xffffffffffffffffffffffffffffffffffffffff\n  mul\n  not\n  and\n  swap1\n  dup4\n  0xffffffffffffffffffffffffffffffffffffffff\n  and\n  mul\n  or\n  swap1\n  sstore\n  pop\n    /* \"Trust.sol\":74:957  contract Trust {\r... */\n  dataSize(sub_0)\n  dup1\n  dataOffset(sub_0)\n  0x00\n  codecopy\n  0x00\n  return\nstop\n\nsub_0: assembly {\n        /* \"Trust.sol\":74:957  contract Trust {\r... */\n      mstore(0x40, 0x80)\n      jumpi(tag_1, lt(calldatasize, 0x04))\n      shr(0xe0, calldataload(0x00))\n      dup1\n      0x3ccfd60b\n      eq\n      tag_2\n      jumpi\n      dup1\n      0x40990e30\n      eq\n      tag_3\n      jumpi\n      dup1\n      0x55a3b2c1\n      eq\n      tag_4\n      jumpi\n      dup1\n      0x6607250b\n      eq\n      tag_5\n      jumpi\n      dup1\n      0xa340cf79\n      eq\n      tag_6\n      jumpi\n      dup1\n      0xf851a440\n      eq\n      tag_7\n      jumpi\n    tag_1:\n      0x00\n      dup1\n      revert\n        /* \"Trust.sol\":618:954  function withdraw() external {\r... */\n    tag_2:\n      callvalue\n      dup1\n      iszero\n      tag_8\n      jumpi\n      0x00\n      dup1\n      revert\n    tag_8:\n      pop\n      tag_9\n      tag_10\n      jump\t// in\n    tag_9:\n      stop\n        /* \"Trust.sol\":322:610  function addKid(address Kid, uint timeToMaturity) external payable {\r... */\n    tag_3:\n      tag_11\n      0x04\n      dup1\n      calldatasize\n      sub\n      dup2\n      add\n      swap1\n      tag_12\n      swap2\n      swap1\n      tag_13\n      jump\t// in\n    tag_12:\n      tag_14\n      jump\t// in\n    tag_11:\n      stop\n        /* \"Trust.sol\":96:135  mapping(address => uint) public amounts */\n    tag_4:\n      callvalue\n      dup1\n      iszero\n      tag_15\n      jumpi\n      0x00\n      dup1\n      revert\n    tag_15:\n      pop\n      tag_16\n      0x04\n      dup1\n      calldatasize\n      sub\n      dup2\n      add\n      swap1\n      tag_17\n      swap2\n      swap1\n      tag_18\n      jump\t// in\n    tag_17:\n      tag_19\n      jump\t// in\n    tag_16:\n      mload(0x40)\n      tag_20\n      swap2\n      swap1\n      tag_21\n      jump\t// in\n    tag_20:\n      mload(0x40)\n      dup1\n      swap2\n      sub\n      swap1\n      return\n        /* \"Trust.sol\":142:184  mapping(address => uint) public maturities */\n    tag_5:\n      callvalue\n      dup1\n      iszero\n      tag_22\n      jumpi\n      0x00\n      dup1\n      revert\n    tag_22:\n      pop\n      tag_23\n      0x04\n      dup1\n      calldatasize\n      sub\n      dup2\n      add\n      swap1\n      tag_24\n      swap2\n      swap1\n      tag_18\n      jump\t// in\n    tag_24:\n      tag_25\n      jump\t// in\n    tag_23:\n      mload(0x40)\n      tag_26\n      swap2\n      swap1\n      tag_21\n      jump\t// in\n    tag_26:\n      mload(0x40)\n      dup1\n      swap2\n      sub\n      swap1\n      return\n        /* \"Trust.sol\":191:227  mapping(address => bool) public paid */\n    tag_6:\n      callvalue\n      dup1\n      iszero\n      tag_27\n      jumpi\n      0x00\n      dup1\n      revert\n    tag_27:\n      pop\n      tag_28\n      0x04\n      dup1\n      calldatasize\n      sub\n      dup2\n      add\n      swap1\n      tag_29\n      swap2\n      swap1\n      tag_18\n      jump\t// in\n    tag_29:\n      tag_30\n      jump\t// in\n    tag_28:\n      mload(0x40)\n      tag_31\n      swap2\n      swap1\n      tag_32\n      jump\t// in\n    tag_31:\n      mload(0x40)\n      dup1\n      swap2\n      sub\n      swap1\n      return\n        /* \"Trust.sol\":234:254  address public admin */\n    tag_7:\n      callvalue\n      dup1\n      iszero\n      tag_33\n      jumpi\n      0x00\n      dup1\n      revert\n    tag_33:\n      pop\n      tag_34\n      tag_35\n      jump\t// in\n    tag_34:\n      mload(0x40)\n      tag_36\n      swap2\n      swap1\n      tag_37\n      jump\t// in\n    tag_36:\n      mload(0x40)\n      dup1\n      swap2\n      sub\n      swap1\n      return\n        /* \"Trust.sol\":618:954  function withdraw() external {\r... */\n    tag_10:\n        /* \"Trust.sol\":692:707  block.timestamp */\n      timestamp\n        /* \"Trust.sol\":666:676  maturities */\n      0x01\n        /* \"Trust.sol\":666:688  maturities[msg.sender] */\n      0x00\n        /* \"Trust.sol\":677:687  msg.sender */\n      caller\n        /* \"Trust.sol\":666:688  maturities[msg.sender] */\n      0xffffffffffffffffffffffffffffffffffffffff\n      and\n      0xffffffffffffffffffffffffffffffffffffffff\n      and\n      dup2\n      mstore\n      0x20\n      add\n      swap1\n      dup2\n      mstore\n      0x20\n      add\n      0x00\n      keccak256\n      sload\n        /* \"Trust.sol\":666:707  maturities[msg.sender] <= block.timestamp */\n      gt\n      iszero\n        /* \"Trust.sol\":658:721  require(maturities[msg.sender] <= block.timestamp, \"too early\") */\n      tag_39\n      jumpi\n      mload(0x40)\n      0x08c379a000000000000000000000000000000000000000000000000000000000\n      dup2\n      mstore\n      0x04\n      add\n      tag_40\n      swap1\n      tag_41\n      jump\t// in\n    tag_40:\n      mload(0x40)\n      dup1\n      swap2\n      sub\n      swap1\n      revert\n    tag_39:\n        /* \"Trust.sol\":762:763  0 */\n      0x00\n        /* \"Trust.sol\":740:747  amounts */\n      dup1\n        /* \"Trust.sol\":740:759  amounts[msg.sender] */\n      0x00\n        /* \"Trust.sol\":748:758  msg.sender */\n      caller\n        /* \"Trust.sol\":740:759  amounts[msg.sender] */\n      0xffffffffffffffffffffffffffffffffffffffff\n      and\n      0xffffffffffffffffffffffffffffffffffffffff\n      and\n      dup2\n      mstore\n      0x20\n      add\n      swap1\n      dup2\n      mstore\n      0x20\n      add\n      0x00\n      keccak256\n      sload\n        /* \"Trust.sol\":740:763  amounts[msg.sender] > 0 */\n      gt\n        /* \"Trust.sol\":732:790  require(amounts[msg.sender] > 0, 'only kid can withdraw' ) */\n      tag_42\n      jumpi\n      mload(0x40)\n      0x08c379a000000000000000000000000000000000000000000000000000000000\n      dup2\n      mstore\n      0x04\n      add\n      tag_43\n      swap1\n      tag_44\n      jump\t// in\n    tag_43:\n      mload(0x40)\n      dup1\n      swap2\n      sub\n      swap1\n      revert\n    tag_42:\n        /* \"Trust.sol\":829:834  false */\n      0x00\n        /* \"Trust.sol\":809:834  paid[msg.sender] == false */\n      iszero\n      iszero\n        /* \"Trust.sol\":809:813  paid */\n      0x02\n        /* \"Trust.sol\":809:825  paid[msg.sender] */\n      0x00\n        /* \"Trust.sol\":814:824  msg.sender */\n      caller\n        /* \"Trust.sol\":809:825  paid[msg.sender] */\n      0xffffffffffffffffffffffffffffffffffffffff\n      and\n      0xffffffffffffffffffffffffffffffffffffffff\n      and\n      dup2\n      mstore\n      0x20\n      add\n      swap1\n      dup2\n      mstore\n      0x20\n      add\n      0x00\n      keccak256\n      0x00\n      swap1\n      sload\n      swap1\n      0x0100\n      exp\n      swap1\n      div\n      0xff\n      and\n        /* \"Trust.sol\":809:834  paid[msg.sender] == false */\n      iszero\n      iszero\n      eq\n        /* \"Trust.sol\":801:851  require(paid[msg.sender] == false, 'paid already') */\n      tag_45\n      jumpi\n      mload(0x40)\n      0x08c379a000000000000000000000000000000000000000000000000000000000\n      dup2\n      mstore\n      0x04\n      add\n      tag_46\n      swap1\n      tag_47\n      jump\t// in\n    tag_46:\n      mload(0x40)\n      dup1\n      swap2\n      sub\n      swap1\n      revert\n    tag_45:\n        /* \"Trust.sol\":882:886  true */\n      0x01\n        /* \"Trust.sol\":862:886  paid[msg.sender] == true */\n      iszero\n      iszero\n        /* \"Trust.sol\":862:866  paid */\n      0x02\n        /* \"Trust.sol\":862:878  paid[msg.sender] */\n      0x00\n        /* \"Trust.sol\":867:877  msg.sender */\n      caller\n        /* \"Trust.sol\":862:878  paid[msg.sender] */\n      0xffffffffffffffffffffffffffffffffffffffff\n      and\n      0xffffffffffffffffffffffffffffffffffffffff\n      and\n      dup2\n      mstore\n      0x20\n      add\n      swap1\n      dup2\n      mstore\n      0x20\n      add\n      0x00\n      keccak256\n      0x00\n      swap1\n      sload\n      swap1\n      0x0100\n      exp\n      swap1\n      pop\n      pop\n        /* \"Trust.sol\":862:886  paid[msg.sender] == true */\n      pop\n        /* \"Trust.sol\":905:915  msg.sender */\n      caller\n        /* \"Trust.sol\":897:925  payable(msg.sender).transfer */\n      0xffffffffffffffffffffffffffffffffffffffff\n      and\n        /* \"Trust.sol\":897:946  payable(msg.sender).transfer(amounts[msg.sender]) */\n      0x08fc\n        /* \"Trust.sol\":926:933  amounts */\n      0x00\n        /* \"Trust.sol\":926:945  amounts[msg.sender] */\n      dup1\n        /* \"Trust.sol\":934:944  msg.sender */\n      caller\n        /* \"Trust.sol\":926:945  amounts[msg.sender] */\n      0xffffffffffffffffffffffffffffffffffffffff\n      and\n      0xffffffffffffffffffffffffffffffffffffffff\n      and\n      dup2\n      mstore\n      0x20\n      add\n      swap1\n      dup2\n      mstore\n      0x20\n      add\n      0x00\n      keccak256\n      sload\n        /* \"Trust.sol\":897:946  payable(msg.sender).transfer(amounts[msg.sender]) */\n      swap1\n      dup2\n      iszero\n      mul\n      swap1\n      mload(0x40)\n      0x00\n      mload(0x40)\n      dup1\n      dup4\n      sub\n      dup2\n      dup6\n      dup9\n      dup9\n      call\n      swap4\n      pop\n      pop\n      pop\n      pop\n      iszero\n      dup1\n      iszero\n      tag_49\n      jumpi\n      returndatasize\n      0x00\n      dup1\n      returndatacopy\n      revert(0x00, returndatasize)\n    tag_49:\n      pop\n        /* \"Trust.sol\":618:954  function withdraw() external {\r... */\n      jump\t// out\n        /* \"Trust.sol\":322:610  function addKid(address Kid, uint timeToMaturity) external payable {\r... */\n    tag_14:\n        /* \"Trust.sol\":422:427  admin */\n      0x03\n      0x00\n      swap1\n      sload\n      swap1\n      0x0100\n      exp\n      swap1\n      div\n      0xffffffffffffffffffffffffffffffffffffffff\n      and\n        /* \"Trust.sol\":408:427  msg.sender == admin */\n      0xffffffffffffffffffffffffffffffffffffffff\n      and\n        /* \"Trust.sol\":408:418  msg.sender */\n      caller\n        /* \"Trust.sol\":408:427  msg.sender == admin */\n      0xffffffffffffffffffffffffffffffffffffffff\n      and\n      eq\n        /* \"Trust.sol\":400:442  require(msg.sender == admin, 'only admin') */\n      tag_51\n      jumpi\n      mload(0x40)\n      0x08c379a000000000000000000000000000000000000000000000000000000000\n      dup2\n      mstore\n      0x04\n      add\n      tag_52\n      swap1\n      tag_53\n      jump\t// in\n    tag_52:\n      mload(0x40)\n      dup1\n      swap2\n      sub\n      swap1\n      revert\n    tag_51:\n        /* \"Trust.sol\":484:485  0 */\n      0x00\n        /* \"Trust.sol\":461:468  amounts */\n      dup1\n        /* \"Trust.sol\":461:480  amounts[msg.sender] */\n      0x00\n        /* \"Trust.sol\":469:479  msg.sender */\n      caller\n        /* \"Trust.sol\":461:480  amounts[msg.sender] */\n      0xffffffffffffffffffffffffffffffffffffffff\n      and\n      0xffffffffffffffffffffffffffffffffffffffff\n      and\n      dup2\n      mstore\n      0x20\n      add\n      swap1\n      dup2\n      mstore\n      0x20\n      add\n      0x00\n      keccak256\n      sload\n        /* \"Trust.sol\":461:485  amounts[msg.sender] == 0 */\n      eq\n        /* \"Trust.sol\":453:505  require(amounts[msg.sender] == 0, 'kid already ex' ) */\n      tag_54\n      jumpi\n      mload(0x40)\n      0x08c379a000000000000000000000000000000000000000000000000000000000\n      dup2\n      mstore\n      0x04\n      add\n      tag_55\n      swap1\n      tag_56\n      jump\t// in\n    tag_55:\n      mload(0x40)\n      dup1\n      swap2\n      sub\n      swap1\n      revert\n    tag_54:\n        /* \"Trust.sol\":531:540  msg.value */\n      callvalue\n        /* \"Trust.sol\":516:523  amounts */\n      0x00\n        /* \"Trust.sol\":516:528  amounts[Kid] */\n      dup1\n        /* \"Trust.sol\":524:527  Kid */\n      dup5\n        /* \"Trust.sol\":516:528  amounts[Kid] */\n      0xffffffffffffffffffffffffffffffffffffffff\n      and\n      0xffffffffffffffffffffffffffffffffffffffff\n      and\n      dup2\n      mstore\n      0x20\n      add\n      swap1\n      dup2\n      mstore\n      0x20\n      add\n      0x00\n      keccak256\n        /* \"Trust.sol\":516:540  amounts[Kid] = msg.value */\n      dup2\n      swap1\n      sstore\n      pop\n        /* \"Trust.sol\":586:600  timeToMaturity */\n      dup1\n        /* \"Trust.sol\":569:584  block.timestamp */\n      timestamp\n        /* \"Trust.sol\":569:600  block.timestamp +timeToMaturity */\n      tag_57\n      swap2\n      swap1\n      tag_58\n      jump\t// in\n    tag_57:\n        /* \"Trust.sol\":551:561  maturities */\n      0x01\n        /* \"Trust.sol\":551:566  maturities[Kid] */\n      0x00\n        /* \"Trust.sol\":562:565  Kid */\n      dup5\n        /* \"Trust.sol\":551:566  maturities[Kid] */\n      0xffffffffffffffffffffffffffffffffffffffff\n      and\n      0xffffffffffffffffffffffffffffffffffffffff\n      and\n      dup2\n      mstore\n      0x20\n      add\n      swap1\n      dup2\n      mstore\n      0x20\n      add\n      0x00\n      keccak256\n        /* \"Trust.sol\":551:600  maturities[Kid] = block.timestamp +timeToMaturity */\n      dup2\n      swap1\n      sstore\n      pop\n        /* \"Trust.sol\":322:610  function addKid(address Kid, uint timeToMaturity) external payable {\r... */\n      pop\n      pop\n      jump\t// out\n        /* \"Trust.sol\":96:135  mapping(address => uint) public amounts */\n    tag_19:\n      mstore(0x20, 0x00)\n      dup1\n      0x00\n      mstore\n      keccak256(0x00, 0x40)\n      0x00\n      swap2\n      pop\n      swap1\n      pop\n      sload\n      dup2\n      jump\t// out\n        /* \"Trust.sol\":142:184  mapping(address => uint) public maturities */\n    tag_25:\n      mstore(0x20, 0x01)\n      dup1\n      0x00\n      mstore\n      keccak256(0x00, 0x40)\n      0x00\n      swap2\n      pop\n      swap1\n      pop\n      sload\n      dup2\n      jump\t// out\n        /* \"Trust.sol\":191:227  mapping(address => bool) public paid */\n    tag_30:\n      mstore(0x20, 0x02)\n      dup1\n      0x00\n      mstore\n      keccak256(0x00, 0x40)\n      0x00\n      swap2\n      pop\n      sload\n      swap1\n      0x0100\n      exp\n      swap1\n      div\n      0xff\n      and\n      dup2\n      jump\t// out\n        /* \"Trust.sol\":234:254  address public admin */\n    tag_35:\n      0x03\n      0x00\n      swap1\n      sload\n      swap1\n      0x0100\n      exp\n      swap1\n      div\n      0xffffffffffffffffffffffffffffffffffffffff\n      and\n      dup2\n      jump\t// out\n        /* \"#utility.yul\":7:146   */\n    tag_60:\n      0x00\n        /* \"#utility.yul\":91:97   */\n      dup2\n        /* \"#utility.yul\":78:98   */\n      calldataload\n        /* \"#utility.yul\":69:98   */\n      swap1\n      pop\n        /* \"#utility.yul\":107:140   */\n      tag_62\n        /* \"#utility.yul\":134:139   */\n      dup2\n        /* \"#utility.yul\":107:140   */\n      tag_63\n      jump\t// in\n    tag_62:\n        /* \"#utility.yul\":59:146   */\n      swap3\n      swap2\n      pop\n      pop\n      jump\t// out\n        /* \"#utility.yul\":152:291   */\n    tag_64:\n      0x00\n        /* \"#utility.yul\":236:242   */\n      dup2\n        /* \"#utility.yul\":223:243   */\n      calldataload\n        /* \"#utility.yul\":214:243   */\n      swap1\n      pop\n        /* \"#utility.yul\":252:285   */\n      tag_66\n        /* \"#utility.yul\":279:284   */\n      dup2\n        /* \"#utility.yul\":252:285   */\n      tag_67\n      jump\t// in\n    tag_66:\n        /* \"#utility.yul\":204:291   */\n      swap3\n      swap2\n      pop\n      pop\n      jump\t// out\n        /* \"#utility.yul\":297:559   */\n    tag_18:\n      0x00\n        /* \"#utility.yul\":405:407   */\n      0x20\n        /* \"#utility.yul\":393:402   */\n      dup3\n        /* \"#utility.yul\":384:391   */\n      dup5\n        /* \"#utility.yul\":380:403   */\n      sub\n        /* \"#utility.yul\":376:408   */\n      slt\n        /* \"#utility.yul\":373:375   */\n      iszero\n      tag_69\n      jumpi\n        /* \"#utility.yul\":421:422   */\n      0x00\n        /* \"#utility.yul\":418:419   */\n      dup1\n        /* \"#utility.yul\":411:423   */\n      revert\n        /* \"#utility.yul\":373:375   */\n    tag_69:\n        /* \"#utility.yul\":464:465   */\n      0x00\n        /* \"#utility.yul\":489:542   */\n      tag_70\n        /* \"#utility.yul\":534:541   */\n      dup5\n        /* \"#utility.yul\":525:531   */\n      dup3\n        /* \"#utility.yul\":514:523   */\n      dup6\n        /* \"#utility.yul\":510:532   */\n      add\n        /* \"#utility.yul\":489:542   */\n      tag_60\n      jump\t// in\n    tag_70:\n        /* \"#utility.yul\":479:542   */\n      swap2\n      pop\n        /* \"#utility.yul\":435:552   */\n      pop\n        /* \"#utility.yul\":363:559   */\n      swap3\n      swap2\n      pop\n      pop\n      jump\t// out\n        /* \"#utility.yul\":565:972   */\n    tag_13:\n      0x00\n      dup1\n        /* \"#utility.yul\":690:692   */\n      0x40\n        /* \"#utility.yul\":678:687   */\n      dup4\n        /* \"#utility.yul\":669:676   */\n      dup6\n        /* \"#utility.yul\":665:688   */\n      sub\n        /* \"#utility.yul\":661:693   */\n      slt\n        /* \"#utility.yul\":658:660   */\n      iszero\n      tag_72\n      jumpi\n        /* \"#utility.yul\":706:707   */\n      0x00\n        /* \"#utility.yul\":703:704   */\n      dup1\n        /* \"#utility.yul\":696:708   */\n      revert\n        /* \"#utility.yul\":658:660   */\n    tag_72:\n        /* \"#utility.yul\":749:750   */\n      0x00\n        /* \"#utility.yul\":774:827   */\n      tag_73\n        /* \"#utility.yul\":819:826   */\n      dup6\n        /* \"#utility.yul\":810:816   */\n      dup3\n        /* \"#utility.yul\":799:808   */\n      dup7\n        /* \"#utility.yul\":795:817   */\n      add\n        /* \"#utility.yul\":774:827   */\n      tag_60\n      jump\t// in\n    tag_73:\n        /* \"#utility.yul\":764:827   */\n      swap3\n      pop\n        /* \"#utility.yul\":720:837   */\n      pop\n        /* \"#utility.yul\":876:878   */\n      0x20\n        /* \"#utility.yul\":902:955   */\n      tag_74\n        /* \"#utility.yul\":947:954   */\n      dup6\n        /* \"#utility.yul\":938:944   */\n      dup3\n        /* \"#utility.yul\":927:936   */\n      dup7\n        /* \"#utility.yul\":923:945   */\n      add\n        /* \"#utility.yul\":902:955   */\n      tag_64\n      jump\t// in\n    tag_74:\n        /* \"#utility.yul\":892:955   */\n      swap2\n      pop\n        /* \"#utility.yul\":847:965   */\n      pop\n        /* \"#utility.yul\":648:972   */\n      swap3\n      pop\n      swap3\n      swap1\n      pop\n      jump\t// out\n        /* \"#utility.yul\":978:1096   */\n    tag_75:\n        /* \"#utility.yul\":1065:1089   */\n      tag_77\n        /* \"#utility.yul\":1083:1088   */\n      dup2\n        /* \"#utility.yul\":1065:1089   */\n      tag_78\n      jump\t// in\n    tag_77:\n        /* \"#utility.yul\":1060:1063   */\n      dup3\n        /* \"#utility.yul\":1053:1090   */\n      mstore\n        /* \"#utility.yul\":1043:1096   */\n      pop\n      pop\n      jump\t// out\n        /* \"#utility.yul\":1102:1211   */\n    tag_79:\n        /* \"#utility.yul\":1183:1204   */\n      tag_81\n        /* \"#utility.yul\":1198:1203   */\n      dup2\n        /* \"#utility.yul\":1183:1204   */\n      tag_82\n      jump\t// in\n    tag_81:\n        /* \"#utility.yul\":1178:1181   */\n      dup3\n        /* \"#utility.yul\":1171:1205   */\n      mstore\n        /* \"#utility.yul\":1161:1211   */\n      pop\n      pop\n      jump\t// out\n        /* \"#utility.yul\":1217:1583   */\n    tag_83:\n      0x00\n        /* \"#utility.yul\":1380:1447   */\n      tag_85\n        /* \"#utility.yul\":1444:1446   */\n      0x0c\n        /* \"#utility.yul\":1439:1442   */\n      dup4\n        /* \"#utility.yul\":1380:1447   */\n      tag_86\n      jump\t// in\n    tag_85:\n        /* \"#utility.yul\":1373:1447   */\n      swap2\n      pop\n        /* \"#utility.yul\":1456:1549   */\n      tag_87\n        /* \"#utility.yul\":1545:1548   */\n      dup3\n        /* \"#utility.yul\":1456:1549   */\n      tag_88\n      jump\t// in\n    tag_87:\n        /* \"#utility.yul\":1574:1576   */\n      0x20\n        /* \"#utility.yul\":1569:1572   */\n      dup3\n        /* \"#utility.yul\":1565:1577   */\n      add\n        /* \"#utility.yul\":1558:1577   */\n      swap1\n      pop\n        /* \"#utility.yul\":1363:1583   */\n      swap2\n      swap1\n      pop\n      jump\t// out\n        /* \"#utility.yul\":1589:1955   */\n    tag_89:\n      0x00\n        /* \"#utility.yul\":1752:1819   */\n      tag_91\n        /* \"#utility.yul\":1816:1818   */\n      0x0a\n        /* \"#utility.yul\":1811:1814   */\n      dup4\n        /* \"#utility.yul\":1752:1819   */\n      tag_86\n      jump\t// in\n    tag_91:\n        /* \"#utility.yul\":1745:1819   */\n      swap2\n      pop\n        /* \"#utility.yul\":1828:1921   */\n      tag_92\n        /* \"#utility.yul\":1917:1920   */\n      dup3\n        /* \"#utility.yul\":1828:1921   */\n      tag_93\n      jump\t// in\n    tag_92:\n        /* \"#utility.yul\":1946:1948   */\n      0x20\n        /* \"#utility.yul\":1941:1944   */\n      dup3\n        /* \"#utility.yul\":1937:1949   */\n      add\n        /* \"#utility.yul\":1930:1949   */\n      swap1\n      pop\n        /* \"#utility.yul\":1735:1955   */\n      swap2\n      swap1\n      pop\n      jump\t// out\n        /* \"#utility.yul\":1961:2327   */\n    tag_94:\n      0x00\n        /* \"#utility.yul\":2124:2191   */\n      tag_96\n        /* \"#utility.yul\":2188:2190   */\n      0x15\n        /* \"#utility.yul\":2183:2186   */\n      dup4\n        /* \"#utility.yul\":2124:2191   */\n      tag_86\n      jump\t// in\n    tag_96:\n        /* \"#utility.yul\":2117:2191   */\n      swap2\n      pop\n        /* \"#utility.yul\":2200:2293   */\n      tag_97\n        /* \"#utility.yul\":2289:2292   */\n      dup3\n        /* \"#utility.yul\":2200:2293   */\n      tag_98\n      jump\t// in\n    tag_97:\n        /* \"#utility.yul\":2318:2320   */\n      0x20\n        /* \"#utility.yul\":2313:2316   */\n      dup3\n        /* \"#utility.yul\":2309:2321   */\n      add\n        /* \"#utility.yul\":2302:2321   */\n      swap1\n      pop\n        /* \"#utility.yul\":2107:2327   */\n      swap2\n      swap1\n      pop\n      jump\t// out\n        /* \"#utility.yul\":2333:2699   */\n    tag_99:\n      0x00\n        /* \"#utility.yul\":2496:2563   */\n      tag_101\n        /* \"#utility.yul\":2560:2562   */\n      0x0e\n        /* \"#utility.yul\":2555:2558   */\n      dup4\n        /* \"#utility.yul\":2496:2563   */\n      tag_86\n      jump\t// in\n    tag_101:\n        /* \"#utility.yul\":2489:2563   */\n      swap2\n      pop\n        /* \"#utility.yul\":2572:2665   */\n      tag_102\n        /* \"#utility.yul\":2661:2664   */\n      dup3\n        /* \"#utility.yul\":2572:2665   */\n      tag_103\n      jump\t// in\n    tag_102:\n        /* \"#utility.yul\":2690:2692   */\n      0x20\n        /* \"#utility.yul\":2685:2688   */\n      dup3\n        /* \"#utility.yul\":2681:2693   */\n      add\n        /* \"#utility.yul\":2674:2693   */\n      swap1\n      pop\n        /* \"#utility.yul\":2479:2699   */\n      swap2\n      swap1\n      pop\n      jump\t// out\n        /* \"#utility.yul\":2705:3070   */\n    tag_104:\n      0x00\n        /* \"#utility.yul\":2868:2934   */\n      tag_106\n        /* \"#utility.yul\":2932:2933   */\n      0x09\n        /* \"#utility.yul\":2927:2930   */\n      dup4\n        /* \"#utility.yul\":2868:2934   */\n      tag_86\n      jump\t// in\n    tag_106:\n        /* \"#utility.yul\":2861:2934   */\n      swap2\n      pop\n        /* \"#utility.yul\":2943:3036   */\n      tag_107\n        /* \"#utility.yul\":3032:3035   */\n      dup3\n        /* \"#utility.yul\":2943:3036   */\n      tag_108\n      jump\t// in\n    tag_107:\n        /* \"#utility.yul\":3061:3063   */\n      0x20\n        /* \"#utility.yul\":3056:3059   */\n      dup3\n        /* \"#utility.yul\":3052:3064   */\n      add\n        /* \"#utility.yul\":3045:3064   */\n      swap1\n      pop\n        /* \"#utility.yul\":2851:3070   */\n      swap2\n      swap1\n      pop\n      jump\t// out\n        /* \"#utility.yul\":3076:3194   */\n    tag_109:\n        /* \"#utility.yul\":3163:3187   */\n      tag_111\n        /* \"#utility.yul\":3181:3186   */\n      dup2\n        /* \"#utility.yul\":3163:3187   */\n      tag_112\n      jump\t// in\n    tag_111:\n        /* \"#utility.yul\":3158:3161   */\n      dup3\n        /* \"#utility.yul\":3151:3188   */\n      mstore\n        /* \"#utility.yul\":3141:3194   */\n      pop\n      pop\n      jump\t// out\n        /* \"#utility.yul\":3200:3422   */\n    tag_37:\n      0x00\n        /* \"#utility.yul\":3331:3333   */\n      0x20\n        /* \"#utility.yul\":3320:3329   */\n      dup3\n        /* \"#utility.yul\":3316:3334   */\n      add\n        /* \"#utility.yul\":3308:3334   */\n      swap1\n      pop\n        /* \"#utility.yul\":3344:3415   */\n      tag_114\n        /* \"#utility.yul\":3412:3413   */\n      0x00\n        /* \"#utility.yul\":3401:3410   */\n      dup4\n        /* \"#utility.yul\":3397:3414   */\n      add\n        /* \"#utility.yul\":3388:3394   */\n      dup5\n        /* \"#utility.yul\":3344:3415   */\n      tag_75\n      jump\t// in\n    tag_114:\n        /* \"#utility.yul\":3298:3422   */\n      swap3\n      swap2\n      pop\n      pop\n      jump\t// out\n        /* \"#utility.yul\":3428:3638   */\n    tag_32:\n      0x00\n        /* \"#utility.yul\":3553:3555   */\n      0x20\n        /* \"#utility.yul\":3542:3551   */\n      dup3\n        /* \"#utility.yul\":3538:3556   */\n      add\n        /* \"#utility.yul\":3530:3556   */\n      swap1\n      pop\n        /* \"#utility.yul\":3566:3631   */\n      tag_116\n        /* \"#utility.yul\":3628:3629   */\n      0x00\n        /* \"#utility.yul\":3617:3626   */\n      dup4\n        /* \"#utility.yul\":3613:3630   */\n      add\n        /* \"#utility.yul\":3604:3610   */\n      dup5\n        /* \"#utility.yul\":3566:3631   */\n      tag_79\n      jump\t// in\n    tag_116:\n        /* \"#utility.yul\":3520:3638   */\n      swap3\n      swap2\n      pop\n      pop\n      jump\t// out\n        /* \"#utility.yul\":3644:4063   */\n    tag_47:\n      0x00\n        /* \"#utility.yul\":3848:3850   */\n      0x20\n        /* \"#utility.yul\":3837:3846   */\n      dup3\n        /* \"#utility.yul\":3833:3851   */\n      add\n        /* \"#utility.yul\":3825:3851   */\n      swap1\n      pop\n        /* \"#utility.yul\":3897:3906   */\n      dup2\n        /* \"#utility.yul\":3891:3895   */\n      dup2\n        /* \"#utility.yul\":3887:3907   */\n      sub\n        /* \"#utility.yul\":3883:3884   */\n      0x00\n        /* \"#utility.yul\":3872:3881   */\n      dup4\n        /* \"#utility.yul\":3868:3885   */\n      add\n        /* \"#utility.yul\":3861:3908   */\n      mstore\n        /* \"#utility.yul\":3925:4056   */\n      tag_118\n        /* \"#utility.yul\":4051:4055   */\n      dup2\n        /* \"#utility.yul\":3925:4056   */\n      tag_83\n      jump\t// in\n    tag_118:\n        /* \"#utility.yul\":3917:4056   */\n      swap1\n      pop\n        /* \"#utility.yul\":3815:4063   */\n      swap2\n      swap1\n      pop\n      jump\t// out\n        /* \"#utility.yul\":4069:4488   */\n    tag_53:\n      0x00\n        /* \"#utility.yul\":4273:4275   */\n      0x20\n        /* \"#utility.yul\":4262:4271   */\n      dup3\n        /* \"#utility.yul\":4258:4276   */\n      add\n        /* \"#utility.yul\":4250:4276   */\n      swap1\n      pop\n        /* \"#utility.yul\":4322:4331   */\n      dup2\n        /* \"#utility.yul\":4316:4320   */\n      dup2\n        /* \"#utility.yul\":4312:4332   */\n      sub\n        /* \"#utility.yul\":4308:4309   */\n      0x00\n        /* \"#utility.yul\":4297:4306   */\n      dup4\n        /* \"#utility.yul\":4293:4310   */\n      add\n        /* \"#utility.yul\":4286:4333   */\n      mstore\n        /* \"#utility.yul\":4350:4481   */\n      tag_120\n        /* \"#utility.yul\":4476:4480   */\n      dup2\n        /* \"#utility.yul\":4350:4481   */\n      tag_89\n      jump\t// in\n    tag_120:\n        /* \"#utility.yul\":4342:4481   */\n      swap1\n      pop\n        /* \"#utility.yul\":4240:4488   */\n      swap2\n      swap1\n      pop\n      jump\t// out\n        /* \"#utility.yul\":4494:4913   */\n    tag_44:\n      0x00\n        /* \"#utility.yul\":4698:4700   */\n      0x20\n        /* \"#utility.yul\":4687:4696   */\n      dup3\n        /* \"#utility.yul\":4683:4701   */\n      add\n        /* \"#utility.yul\":4675:4701   */\n      swap1\n      pop\n        /* \"#utility.yul\":4747:4756   */\n      dup2\n        /* \"#utility.yul\":4741:4745   */\n      dup2\n        /* \"#utility.yul\":4737:4757   */\n      sub\n        /* \"#utility.yul\":4733:4734   */\n      0x00\n        /* \"#utility.yul\":4722:4731   */\n      dup4\n        /* \"#utility.yul\":4718:4735   */\n      add\n        /* \"#utility.yul\":4711:4758   */\n      mstore\n        /* \"#utility.yul\":4775:4906   */\n      tag_122\n        /* \"#utility.yul\":4901:4905   */\n      dup2\n        /* \"#utility.yul\":4775:4906   */\n      tag_94\n      jump\t// in\n    tag_122:\n        /* \"#utility.yul\":4767:4906   */\n      swap1\n      pop\n        /* \"#utility.yul\":4665:4913   */\n      swap2\n      swap1\n      pop\n      jump\t// out\n        /* \"#utility.yul\":4919:5338   */\n    tag_56:\n      0x00\n        /* \"#utility.yul\":5123:5125   */\n      0x20\n        /* \"#utility.yul\":5112:5121   */\n      dup3\n        /* \"#utility.yul\":5108:5126   */\n      add\n        /* \"#utility.yul\":5100:5126   */\n      swap1\n      pop\n        /* \"#utility.yul\":5172:5181   */\n      dup2\n        /* \"#utility.yul\":5166:5170   */\n      dup2\n        /* \"#utility.yul\":5162:5182   */\n      sub\n        /* \"#utility.yul\":5158:5159   */\n      0x00\n        /* \"#utility.yul\":5147:5156   */\n      dup4\n        /* \"#utility.yul\":5143:5160   */\n      add\n        /* \"#utility.yul\":5136:5183   */\n      mstore\n        /* \"#utility.yul\":5200:5331   */\n      tag_124\n        /* \"#utility.yul\":5326:5330   */\n      dup2\n        /* \"#utility.yul\":5200:5331   */\n      tag_99\n      jump\t// in\n    tag_124:\n        /* \"#utility.yul\":5192:5331   */\n      swap1\n      pop\n        /* \"#utility.yul\":5090:5338   */\n      swap2\n      swap1\n      pop\n      jump\t// out\n        /* \"#utility.yul\":5344:5763   */\n    tag_41:\n      0x00\n        /* \"#utility.yul\":5548:5550   */\n      0x20\n        /* \"#utility.yul\":5537:5546   */\n      dup3\n        /* \"#utility.yul\":5533:5551   */\n      add\n        /* \"#utility.yul\":5525:5551   */\n      swap1\n      pop\n        /* \"#utility.yul\":5597:5606   */\n      dup2\n        /* \"#utility.yul\":5591:5595   */\n      dup2\n        /* \"#utility.yul\":5587:5607   */\n      sub\n        /* \"#utility.yul\":5583:5584   */\n      0x00\n        /* \"#utility.yul\":5572:5581   */\n      dup4\n        /* \"#utility.yul\":5568:5585   */\n      add\n        /* \"#utility.yul\":5561:5608   */\n      mstore\n        /* \"#utility.yul\":5625:5756   */\n      tag_126\n        /* \"#utility.yul\":5751:5755   */\n      dup2\n        /* \"#utility.yul\":5625:5756   */\n      tag_104\n      jump\t// in\n    tag_126:\n        /* \"#utility.yul\":5617:5756   */\n      swap1\n      pop\n        /* \"#utility.yul\":5515:5763   */\n      swap2\n      swap1\n      pop\n      jump\t// out\n        /* \"#utility.yul\":5769:5991   */\n    tag_21:\n      0x00\n        /* \"#utility.yul\":5900:5902   */\n      0x20\n        /* \"#utility.yul\":5889:5898   */\n      dup3\n        /* \"#utility.yul\":5885:5903   */\n      add\n        /* \"#utility.yul\":5877:5903   */\n      swap1\n      pop\n        /* \"#utility.yul\":5913:5984   */\n      tag_128\n        /* \"#utility.yul\":5981:5982   */\n      0x00\n        /* \"#utility.yul\":5970:5979   */\n      dup4\n        /* \"#utility.yul\":5966:5983   */\n      add\n        /* \"#utility.yul\":5957:5963   */\n      dup5\n        /* \"#utility.yul\":5913:5984   */\n      tag_109\n      jump\t// in\n    tag_128:\n        /* \"#utility.yul\":5867:5991   */\n      swap3\n      swap2\n      pop\n      pop\n      jump\t// out\n        /* \"#utility.yul\":5997:6166   */\n    tag_86:\n      0x00\n        /* \"#utility.yul\":6115:6121   */\n      dup3\n        /* \"#utility.yul\":6110:6113   */\n      dup3\n        /* \"#utility.yul\":6103:6122   */\n      mstore\n        /* \"#utility.yul\":6155:6159   */\n      0x20\n        /* \"#utility.yul\":6150:6153   */\n      dup3\n        /* \"#utility.yul\":6146:6160   */\n      add\n        /* \"#utility.yul\":6131:6160   */\n      swap1\n      pop\n        /* \"#utility.yul\":6093:6166   */\n      swap3\n      swap2\n      pop\n      pop\n      jump\t// out\n        /* \"#utility.yul\":6172:6477   */\n    tag_58:\n      0x00\n        /* \"#utility.yul\":6231:6251   */\n      tag_131\n        /* \"#utility.yul\":6249:6250   */\n      dup3\n        /* \"#utility.yul\":6231:6251   */\n      tag_112\n      jump\t// in\n    tag_131:\n        /* \"#utility.yul\":6226:6251   */\n      swap2\n      pop\n        /* \"#utility.yul\":6265:6285   */\n      tag_132\n        /* \"#utility.yul\":6283:6284   */\n      dup4\n        /* \"#utility.yul\":6265:6285   */\n      tag_112\n      jump\t// in\n    tag_132:\n        /* \"#utility.yul\":6260:6285   */\n      swap3\n      pop\n        /* \"#utility.yul\":6419:6420   */\n      dup3\n        /* \"#utility.yul\":6351:6417   */\n      0xffffffffffffffffffffffffffffffffffffffffffffffffffffffffffffffff\n        /* \"#utility.yul\":6347:6421   */\n      sub\n        /* \"#utility.yul\":6344:6345   */\n      dup3\n        /* \"#utility.yul\":6341:6422   */\n      gt\n        /* \"#utility.yul\":6338:6340   */\n      iszero\n      tag_133\n      jumpi\n        /* \"#utility.yul\":6425:6443   */\n      tag_134\n      tag_135\n      jump\t// in\n    tag_134:\n        /* \"#utility.yul\":6338:6340   */\n    tag_133:\n        /* \"#utility.yul\":6469:6470   */\n      dup3\n        /* \"#utility.yul\":6466:6467   */\n      dup3\n        /* \"#utility.yul\":6462:6471   */\n      add\n        /* \"#utility.yul\":6455:6471   */\n      swap1\n      pop\n        /* \"#utility.yul\":6216:6477   */\n      swap3\n      swap2\n      pop\n      pop\n      jump\t// out\n        /* \"#utility.yul\":6483:6579   */\n    tag_78:\n      0x00\n        /* \"#utility.yul\":6549:6573   */\n      tag_137\n        /* \"#utility.yul\":6567:6572   */\n      dup3\n        /* \"#utility.yul\":6549:6573   */\n      tag_138\n      jump\t// in\n    tag_137:\n        /* \"#utility.yul\":6538:6573   */\n      swap1\n      pop\n        /* \"#utility.yul\":6528:6579   */\n      swap2\n      swap1\n      pop\n      jump\t// out\n        /* \"#utility.yul\":6585:6675   */\n    tag_82:\n      0x00\n        /* \"#utility.yul\":6662:6667   */\n      dup2\n        /* \"#utility.yul\":6655:6668   */\n      iszero\n        /* \"#utility.yul\":6648:6669   */\n      iszero\n        /* \"#utility.yul\":6637:6669   */\n      swap1\n      pop\n        /* \"#utility.yul\":6627:6675   */\n      swap2\n      swap1\n      pop\n      jump\t// out\n        /* \"#utility.yul\":6681:6807   */\n    tag_138:\n      0x00\n        /* \"#utility.yul\":6758:6800   */\n      0xffffffffffffffffffffffffffffffffffffffff\n        /* \"#utility.yul\":6751:6756   */\n      dup3\n        /* \"#utility.yul\":6747:6801   */\n      and\n        /* \"#utility.yul\":6736:6801   */\n      swap1\n      pop\n        /* \"#utility.yul\":6726:6807   */\n      swap2\n      swap1\n      pop\n      jump\t// out\n        /* \"#utility.yul\":6813:6890   */\n    tag_112:\n      0x00\n        /* \"#utility.yul\":6879:6884   */\n      dup2\n        /* \"#utility.yul\":6868:6884   */\n      swap1\n      pop\n        /* \"#utility.yul\":6858:6890   */\n      swap2\n      swap1\n      pop\n      jump\t// out\n        /* \"#utility.yul\":6896:7076   */\n    tag_135:\n        /* \"#utility.yul\":6944:7021   */\n      0x4e487b7100000000000000000000000000000000000000000000000000000000\n        /* \"#utility.yul\":6941:6942   */\n      0x00\n        /* \"#utility.yul\":6934:7022   */\n      mstore\n        /* \"#utility.yul\":7041:7045   */\n      0x11\n        /* \"#utility.yul\":7038:7039   */\n      0x04\n        /* \"#utility.yul\":7031:7046   */\n      mstore\n        /* \"#utility.yul\":7065:7069   */\n      0x24\n        /* \"#utility.yul\":7062:7063   */\n      0x00\n        /* \"#utility.yul\":7055:7070   */\n      revert\n        /* \"#utility.yul\":7082:7244   */\n    tag_88:\n        /* \"#utility.yul\":7222:7236   */\n      0x7061696420616c72656164790000000000000000000000000000000000000000\n        /* \"#utility.yul\":7218:7219   */\n      0x00\n        /* \"#utility.yul\":7210:7216   */\n      dup3\n        /* \"#utility.yul\":7206:7220   */\n      add\n        /* \"#utility.yul\":7199:7237   */\n      mstore\n        /* \"#utility.yul\":7188:7244   */\n      pop\n      jump\t// out\n        /* \"#utility.yul\":7250:7410   */\n    tag_93:\n        /* \"#utility.yul\":7390:7402   */\n      0x6f6e6c792061646d696e00000000000000000000000000000000000000000000\n        /* \"#utility.yul\":7386:7387   */\n      0x00\n        /* \"#utility.yul\":7378:7384   */\n      dup3\n        /* \"#utility.yul\":7374:7388   */\n      add\n        /* \"#utility.yul\":7367:7403   */\n      mstore\n        /* \"#utility.yul\":7356:7410   */\n      pop\n      jump\t// out\n        /* \"#utility.yul\":7416:7587   */\n    tag_98:\n        /* \"#utility.yul\":7556:7579   */\n      0x6f6e6c79206b69642063616e2077697468647261770000000000000000000000\n        /* \"#utility.yul\":7552:7553   */\n      0x00\n        /* \"#utility.yul\":7544:7550   */\n      dup3\n        /* \"#utility.yul\":7540:7554   */\n      add\n        /* \"#utility.yul\":7533:7580   */\n      mstore\n        /* \"#utility.yul\":7522:7587   */\n      pop\n      jump\t// out\n        /* \"#utility.yul\":7593:7757   */\n    tag_103:\n        /* \"#utility.yul\":7733:7749   */\n      0x6b696420616c7265616479206578000000000000000000000000000000000000\n        /* \"#utility.yul\":7729:7730   */\n      0x00\n        /* \"#utility.yul\":7721:7727   */\n      dup3\n        /* \"#utility.yul\":7717:7731   */\n      add\n        /* \"#utility.yul\":7710:7750   */\n      mstore\n        /* \"#utility.yul\":7699:7757   */\n      pop\n      jump\t// out\n        /* \"#utility.yul\":7763:7922   */\n    tag_108:\n        /* \"#utility.yul\":7903:7914   */\n      0x746f6f206561726c790000000000000000000000000000000000000000000000\n        /* \"#utility.yul\":7899:7900   */\n      0x00\n        /* \"#utility.yul\":7891:7897   */\n      dup3\n        /* \"#utility.yul\":7887:7901   */\n      add\n        /* \"#utility.yul\":7880:7915   */\n      mstore\n        /* \"#utility.yul\":7869:7922   */\n      pop\n      jump\t// out\n        /* \"#utility.yul\":7928:8050   */\n    tag_63:\n        /* \"#utility.yul\":8001:8025   */\n      tag_149\n        /* \"#utility.yul\":8019:8024   */\n      dup2\n        /* \"#utility.yul\":8001:8025   */\n      tag_78\n      jump\t// in\n    tag_149:\n        /* \"#utility.yul\":7994:7999   */\n      dup2\n        /* \"#utility.yul\":7991:8026   */\n      eq\n        /* \"#utility.yul\":7981:7983   */\n      tag_150\n      jumpi\n        /* \"#utility.yul\":8040:8041   */\n      0x00\n        /* \"#utility.yul\":8037:8038   */\n      dup1\n        /* \"#utility.yul\":8030:8042   */\n      revert\n        /* \"#utility.yul\":7981:7983   */\n    tag_150:\n        /* \"#utility.yul\":7971:8050   */\n      pop\n      jump\t// out\n        /* \"#utility.yul\":8056:8178   */\n    tag_67:\n        /* \"#utility.yul\":8129:8153   */\n      tag_152\n        /* \"#utility.yul\":8147:8152   */\n      dup2\n        /* \"#utility.yul\":8129:8153   */\n      tag_112\n      jump\t// in\n    tag_152:\n        /* \"#utility.yul\":8122:8127   */\n      dup2\n        /* \"#utility.yul\":8119:8154   */\n      eq\n        /* \"#utility.yul\":8109:8111   */\n      tag_153\n      jumpi\n        /* \"#utility.yul\":8168:8169   */\n      0x00\n        /* \"#utility.yul\":8165:8166   */\n      dup1\n        /* \"#utility.yul\":8158:8170   */\n      revert\n        /* \"#utility.yul\":8109:8111   */\n    tag_153:\n        /* \"#utility.yul\":8099:8178   */\n      pop\n      jump\t// out\n\n    auxdata: 0xa2646970667358221220586f2aee49ff1d65d12c2c55e506faf100d2eb2e9fb96e5bbc61ae6b1c069bc964736f6c63430008010033\n}\n",
				"bytecode": {
					"linkReferences": {},
					"object": "608060405234801561001057600080fd5b5033600360006101000a81548173ffffffffffffffffffffffffffffffffffffffff021916908373ffffffffffffffffffffffffffffffffffffffff160217905550610a64806100616000396000f3fe6080604052600436106100555760003560e01c80633ccfd60b1461005a57806340990e301461007157806355a3b2c11461008d5780636607250b146100ca578063a340cf7914610107578063f851a44014610144575b600080fd5b34801561006657600080fd5b5061006f61016f565b005b61008b6004803603810190610086919061064c565b6103dc565b005b34801561009957600080fd5b506100b460048036038101906100af9190610623565b610583565b6040516100c1919061083a565b60405180910390f35b3480156100d657600080fd5b506100f160048036038101906100ec9190610623565b61059b565b6040516100fe919061083a565b60405180910390f35b34801561011357600080fd5b5061012e60048036038101906101299190610623565b6105b3565b60405161013b919061077f565b60405180910390f35b34801561015057600080fd5b506101596105d3565b6040516101669190610764565b60405180910390f35b42600160003373ffffffffffffffffffffffffffffffffffffffff1673ffffffffffffffffffffffffffffffffffffffff1681526020019081526020016000205411156101f1576040517f08c379a00000000000000000000000000000000000000000000000000000000081526004016101e89061081a565b60405180910390fd5b60008060003373ffffffffffffffffffffffffffffffffffffffff1673ffffffffffffffffffffffffffffffffffffffff1681526020019081526020016000205411610272576040517f08c379a0000000000000000000000000000000000000000000000000000000008152600401610269906107da565b60405180910390fd5b60001515600260003373ffffffffffffffffffffffffffffffffffffffff1673ffffffffffffffffffffffffffffffffffffffff16815260200190815260200160002060009054906101000a900460ff16151514610305576040517f08c379a00000000000000000000000000000000000000000000000000000000081526004016102fc9061079a565b60405180910390fd5b60011515600260003373ffffffffffffffffffffffffffffffffffffffff1673ffffffffffffffffffffffffffffffffffffffff16815260200190815260200160002060009054906101000a905050503373ffffffffffffffffffffffffffffffffffffffff166108fc6000803373ffffffffffffffffffffffffffffffffffffffff1673ffffffffffffffffffffffffffffffffffffffff168152602001908152602001600020549081150290604051600060405180830381858888f193505050501580156103d9573d6000803e3d6000fd5b50565b600360009054906101000a900473ffffffffffffffffffffffffffffffffffffffff1673ffffffffffffffffffffffffffffffffffffffff163373ffffffffffffffffffffffffffffffffffffffff161461046c576040517f08c379a0000000000000000000000000000000000000000000000000000000008152600401610463906107ba565b60405180910390fd5b60008060003373ffffffffffffffffffffffffffffffffffffffff1673ffffffffffffffffffffffffffffffffffffffff16815260200190815260200160002054146104ed576040517f08c379a00000000000000000000000000000000000000000000000000000000081526004016104e4906107fa565b60405180910390fd5b346000808473ffffffffffffffffffffffffffffffffffffffff1673ffffffffffffffffffffffffffffffffffffffff16815260200190815260200160002081905550804261053c9190610866565b600160008473ffffffffffffffffffffffffffffffffffffffff1673ffffffffffffffffffffffffffffffffffffffff168152602001908152602001600020819055505050565b60006020528060005260406000206000915090505481565b60016020528060005260406000206000915090505481565b60026020528060005260406000206000915054906101000a900460ff1681565b600360009054906101000a900473ffffffffffffffffffffffffffffffffffffffff1681565b60008135905061060881610a00565b92915050565b60008135905061061d81610a17565b92915050565b60006020828403121561063557600080fd5b6000610643848285016105f9565b91505092915050565b6000806040838503121561065f57600080fd5b600061066d858286016105f9565b925050602061067e8582860161060e565b9150509250929050565b610691816108bc565b82525050565b6106a0816108ce565b82525050565b60006106b3600c83610855565b91506106be82610933565b602082019050919050565b60006106d6600a83610855565b91506106e18261095c565b602082019050919050565b60006106f9601583610855565b915061070482610985565b602082019050919050565b600061071c600e83610855565b9150610727826109ae565b602082019050919050565b600061073f600983610855565b915061074a826109d7565b602082019050919050565b61075e816108fa565b82525050565b60006020820190506107796000830184610688565b92915050565b60006020820190506107946000830184610697565b92915050565b600060208201905081810360008301526107b3816106a6565b9050919050565b600060208201905081810360008301526107d3816106c9565b9050919050565b600060208201905081810360008301526107f3816106ec565b9050919050565b600060208201905081810360008301526108138161070f565b9050919050565b6000602082019050818103600083015261083381610732565b9050919050565b600060208201905061084f6000830184610755565b92915050565b600082825260208201905092915050565b6000610871826108fa565b915061087c836108fa565b9250827fffffffffffffffffffffffffffffffffffffffffffffffffffffffffffffffff038211156108b1576108b0610904565b5b828201905092915050565b60006108c7826108da565b9050919050565b60008115159050919050565b600073ffffffffffffffffffffffffffffffffffffffff82169050919050565b6000819050919050565b7f4e487b7100000000000000000000000000000000000000000000000000000000600052601160045260246000fd5b7f7061696420616c72656164790000000000000000000000000000000000000000600082015250565b7f6f6e6c792061646d696e00000000000000000000000000000000000000000000600082015250565b7f6f6e6c79206b69642063616e2077697468647261770000000000000000000000600082015250565b7f6b696420616c7265616479206578000000000000000000000000000000000000600082015250565b7f746f6f206561726c790000000000000000000000000000000000000000000000600082015250565b610a09816108bc565b8114610a1457600080fd5b50565b610a20816108fa565b8114610a2b57600080fd5b5056fea2646970667358221220586f2aee49ff1d65d12c2c55e506faf100d2eb2e9fb96e5bbc61ae6b1c069bc964736f6c63430008010033",
					"opcodes": "PUSH1 0x80 PUSH1 0x40 MSTORE CALLVALUE DUP1 ISZERO PUSH2 0x10 JUMPI PUSH1 0x0 DUP1 REVERT JUMPDEST POP CALLER PUSH1 0x3 PUSH1 0x0 PUSH2 0x100 EXP DUP2 SLOAD DUP2 PUSH20 0xFFFFFFFFFFFFFFFFFFFFFFFFFFFFFFFFFFFFFFFF MUL NOT AND SWAP1 DUP4 PUSH20 0xFFFFFFFFFFFFFFFFFFFFFFFFFFFFFFFFFFFFFFFF AND MUL OR SWAP1 SSTORE POP PUSH2 0xA64 DUP1 PUSH2 0x61 PUSH1 0x0 CODECOPY PUSH1 0x0 RETURN INVALID PUSH1 0x80 PUSH1 0x40 MSTORE PUSH1 0x4 CALLDATASIZE LT PUSH2 0x55 JUMPI PUSH1 0x0 CALLDATALOAD PUSH1 0xE0 SHR DUP1 PUSH4 0x3CCFD60B EQ PUSH2 0x5A JUMPI DUP1 PUSH4 0x40990E30 EQ PUSH2 0x71 JUMPI DUP1 PUSH4 0x55A3B2C1 EQ PUSH2 0x8D JUMPI DUP1 PUSH4 0x6607250B EQ PUSH2 0xCA JUMPI DUP1 PUSH4 0xA340CF79 EQ PUSH2 0x107 JUMPI DUP1 PUSH4 0xF851A440 EQ PUSH2 0x144 JUMPI JUMPDEST PUSH1 0x0 DUP1 REVERT JUMPDEST CALLVALUE DUP1 ISZERO PUSH2 0x66 JUMPI PUSH1 0x0 DUP1 REVERT JUMPDEST POP PUSH2 0x6F PUSH2 0x16F JUMP JUMPDEST STOP JUMPDEST PUSH2 0x8B PUSH1 0x4 DUP1 CALLDATASIZE SUB DUP2 ADD SWAP1 PUSH2 0x86 SWAP2 SWAP1 PUSH2 0x64C JUMP JUMPDEST PUSH2 0x3DC JUMP JUMPDEST STOP JUMPDEST CALLVALUE DUP1 ISZERO PUSH2 0x99 JUMPI PUSH1 0x0 DUP1 REVERT JUMPDEST POP PUSH2 0xB4 PUSH1 0x4 DUP1 CALLDATASIZE SUB DUP2 ADD SWAP1 PUSH2 0xAF SWAP2 SWAP1 PUSH2 0x623 JUMP JUMPDEST PUSH2 0x583 JUMP JUMPDEST PUSH1 0x40 MLOAD PUSH2 0xC1 SWAP2 SWAP1 PUSH2 0x83A JUMP JUMPDEST PUSH1 0x40 MLOAD DUP1 SWAP2 SUB SWAP1 RETURN JUMPDEST CALLVALUE DUP1 ISZERO PUSH2 0xD6 JUMPI PUSH1 0x0 DUP1 REVERT JUMPDEST POP PUSH2 0xF1 PUSH1 0x4 DUP1 CALLDATASIZE SUB DUP2 ADD SWAP1 PUSH2 0xEC SWAP2 SWAP1 PUSH2 0x623 JUMP JUMPDEST PUSH2 0x59B JUMP JUMPDEST PUSH1 0x40 MLOAD PUSH2 0xFE SWAP2 SWAP1 PUSH2 0x83A JUMP JUMPDEST PUSH1 0x40 MLOAD DUP1 SWAP2 SUB SWAP1 RETURN JUMPDEST CALLVALUE DUP1 ISZERO PUSH2 0x113 JUMPI PUSH1 0x0 DUP1 REVERT JUMPDEST POP PUSH2 0x12E PUSH1 0x4 DUP1 CALLDATASIZE SUB DUP2 ADD SWAP1 PUSH2 0x129 SWAP2 SWAP1 PUSH2 0x623 JUMP JUMPDEST PUSH2 0x5B3 JUMP JUMPDEST PUSH1 0x40 MLOAD PUSH2 0x13B SWAP2 SWAP1 PUSH2 0x77F JUMP JUMPDEST PUSH1 0x40 MLOAD DUP1 SWAP2 SUB SWAP1 RETURN JUMPDEST CALLVALUE DUP1 ISZERO PUSH2 0x150 JUMPI PUSH1 0x0 DUP1 REVERT JUMPDEST POP PUSH2 0x159 PUSH2 0x5D3 JUMP JUMPDEST PUSH1 0x40 MLOAD PUSH2 0x166 SWAP2 SWAP1 PUSH2 0x764 JUMP JUMPDEST PUSH1 0x40 MLOAD DUP1 SWAP2 SUB SWAP1 RETURN JUMPDEST TIMESTAMP PUSH1 0x1 PUSH1 0x0 CALLER PUSH20 0xFFFFFFFFFFFFFFFFFFFFFFFFFFFFFFFFFFFFFFFF AND PUSH20 0xFFFFFFFFFFFFFFFFFFFFFFFFFFFFFFFFFFFFFFFF AND DUP2 MSTORE PUSH1 0x20 ADD SWAP1 DUP2 MSTORE PUSH1 0x20 ADD PUSH1 0x0 KECCAK256 SLOAD GT ISZERO PUSH2 0x1F1 JUMPI PUSH1 0x40 MLOAD PUSH32 0x8C379A000000000000000000000000000000000000000000000000000000000 DUP2 MSTORE PUSH1 0x4 ADD PUSH2 0x1E8 SWAP1 PUSH2 0x81A JUMP JUMPDEST PUSH1 0x40 MLOAD DUP1 SWAP2 SUB SWAP1 REVERT JUMPDEST PUSH1 0x0 DUP1 PUSH1 0x0 CALLER PUSH20 0xFFFFFFFFFFFFFFFFFFFFFFFFFFFFFFFFFFFFFFFF AND PUSH20 0xFFFFFFFFFFFFFFFFFFFFFFFFFFFFFFFFFFFFFFFF AND DUP2 MSTORE PUSH1 0x20 ADD SWAP1 DUP2 MSTORE PUSH1 0x20 ADD PUSH1 0x0 KECCAK256 SLOAD GT PUSH2 0x272 JUMPI PUSH1 0x40 MLOAD PUSH32 0x8C379A000000000000000000000000000000000000000000000000000000000 DUP2 MSTORE PUSH1 0x4 ADD PUSH2 0x269 SWAP1 PUSH2 0x7DA JUMP JUMPDEST PUSH1 0x40 MLOAD DUP1 SWAP2 SUB SWAP1 REVERT JUMPDEST PUSH1 0x0 ISZERO ISZERO PUSH1 0x2 PUSH1 0x0 CALLER PUSH20 0xFFFFFFFFFFFFFFFFFFFFFFFFFFFFFFFFFFFFFFFF AND PUSH20 0xFFFFFFFFFFFFFFFFFFFFFFFFFFFFFFFFFFFFFFFF AND DUP2 MSTORE PUSH1 0x20 ADD SWAP1 DUP2 MSTORE PUSH1 0x20 ADD PUSH1 0x0 KECCAK256 PUSH1 0x0 SWAP1 SLOAD SWAP1 PUSH2 0x100 EXP SWAP1 DIV PUSH1 0xFF AND ISZERO ISZERO EQ PUSH2 0x305 JUMPI PUSH1 0x40 MLOAD PUSH32 0x8C379A000000000000000000000000000000000000000000000000000000000 DUP2 MSTORE PUSH1 0x4 ADD PUSH2 0x2FC SWAP1 PUSH2 0x79A JUMP JUMPDEST PUSH1 0x40 MLOAD DUP1 SWAP2 SUB SWAP1 REVERT JUMPDEST PUSH1 0x1 ISZERO ISZERO PUSH1 0x2 PUSH1 0x0 CALLER PUSH20 0xFFFFFFFFFFFFFFFFFFFFFFFFFFFFFFFFFFFFFFFF AND PUSH20 0xFFFFFFFFFFFFFFFFFFFFFFFFFFFFFFFFFFFFFFFF AND DUP2 MSTORE PUSH1 0x20 ADD SWAP1 DUP2 MSTORE PUSH1 0x20 ADD PUSH1 0x0 KECCAK256 PUSH1 0x0 SWAP1 SLOAD SWAP1 PUSH2 0x100 EXP SWAP1 POP POP POP CALLER PUSH20 0xFFFFFFFFFFFFFFFFFFFFFFFFFFFFFFFFFFFFFFFF AND PUSH2 0x8FC PUSH1 0x0 DUP1 CALLER PUSH20 0xFFFFFFFFFFFFFFFFFFFFFFFFFFFFFFFFFFFFFFFF AND PUSH20 0xFFFFFFFFFFFFFFFFFFFFFFFFFFFFFFFFFFFFFFFF AND DUP2 MSTORE PUSH1 0x20 ADD SWAP1 DUP2 MSTORE PUSH1 0x20 ADD PUSH1 0x0 KECCAK256 SLOAD SWAP1 DUP2 ISZERO MUL SWAP1 PUSH1 0x40 MLOAD PUSH1 0x0 PUSH1 0x40 MLOAD DUP1 DUP4 SUB DUP2 DUP6 DUP9 DUP9 CALL SWAP4 POP POP POP POP ISZERO DUP1 ISZERO PUSH2 0x3D9 JUMPI RETURNDATASIZE PUSH1 0x0 DUP1 RETURNDATACOPY RETURNDATASIZE PUSH1 0x0 REVERT JUMPDEST POP JUMP JUMPDEST PUSH1 0x3 PUSH1 0x0 SWAP1 SLOAD SWAP1 PUSH2 0x100 EXP SWAP1 DIV PUSH20 0xFFFFFFFFFFFFFFFFFFFFFFFFFFFFFFFFFFFFFFFF AND PUSH20 0xFFFFFFFFFFFFFFFFFFFFFFFFFFFFFFFFFFFFFFFF AND CALLER PUSH20 0xFFFFFFFFFFFFFFFFFFFFFFFFFFFFFFFFFFFFFFFF AND EQ PUSH2 0x46C JUMPI PUSH1 0x40 MLOAD PUSH32 0x8C379A000000000000000000000000000000000000000000000000000000000 DUP2 MSTORE PUSH1 0x4 ADD PUSH2 0x463 SWAP1 PUSH2 0x7BA JUMP JUMPDEST PUSH1 0x40 MLOAD DUP1 SWAP2 SUB SWAP1 REVERT JUMPDEST PUSH1 0x0 DUP1 PUSH1 0x0 CALLER PUSH20 0xFFFFFFFFFFFFFFFFFFFFFFFFFFFFFFFFFFFFFFFF AND PUSH20 0xFFFFFFFFFFFFFFFFFFFFFFFFFFFFFFFFFFFFFFFF AND DUP2 MSTORE PUSH1 0x20 ADD SWAP1 DUP2 MSTORE PUSH1 0x20 ADD PUSH1 0x0 KECCAK256 SLOAD EQ PUSH2 0x4ED JUMPI PUSH1 0x40 MLOAD PUSH32 0x8C379A000000000000000000000000000000000000000000000000000000000 DUP2 MSTORE PUSH1 0x4 ADD PUSH2 0x4E4 SWAP1 PUSH2 0x7FA JUMP JUMPDEST PUSH1 0x40 MLOAD DUP1 SWAP2 SUB SWAP1 REVERT JUMPDEST CALLVALUE PUSH1 0x0 DUP1 DUP5 PUSH20 0xFFFFFFFFFFFFFFFFFFFFFFFFFFFFFFFFFFFFFFFF AND PUSH20 0xFFFFFFFFFFFFFFFFFFFFFFFFFFFFFFFFFFFFFFFF AND DUP2 MSTORE PUSH1 0x20 ADD SWAP1 DUP2 MSTORE PUSH1 0x20 ADD PUSH1 0x0 KECCAK256 DUP2 SWAP1 SSTORE POP DUP1 TIMESTAMP PUSH2 0x53C SWAP2 SWAP1 PUSH2 0x866 JUMP JUMPDEST PUSH1 0x1 PUSH1 0x0 DUP5 PUSH20 0xFFFFFFFFFFFFFFFFFFFFFFFFFFFFFFFFFFFFFFFF AND PUSH20 0xFFFFFFFFFFFFFFFFFFFFFFFFFFFFFFFFFFFFFFFF AND DUP2 MSTORE PUSH1 0x20 ADD SWAP1 DUP2 MSTORE PUSH1 0x20 ADD PUSH1 0x0 KECCAK256 DUP2 SWAP1 SSTORE POP POP POP JUMP JUMPDEST PUSH1 0x0 PUSH1 0x20 MSTORE DUP1 PUSH1 0x0 MSTORE PUSH1 0x40 PUSH1 0x0 KECCAK256 PUSH1 0x0 SWAP2 POP SWAP1 POP SLOAD DUP2 JUMP JUMPDEST PUSH1 0x1 PUSH1 0x20 MSTORE DUP1 PUSH1 0x0 MSTORE PUSH1 0x40 PUSH1 0x0 KECCAK256 PUSH1 0x0 SWAP2 POP SWAP1 POP SLOAD DUP2 JUMP JUMPDEST PUSH1 0x2 PUSH1 0x20 MSTORE DUP1 PUSH1 0x0 MSTORE PUSH1 0x40 PUSH1 0x0 KECCAK256 PUSH1 0x0 SWAP2 POP SLOAD SWAP1 PUSH2 0x100 EXP SWAP1 DIV PUSH1 0xFF AND DUP2 JUMP JUMPDEST PUSH1 0x3 PUSH1 0x0 SWAP1 SLOAD SWAP1 PUSH2 0x100 EXP SWAP1 DIV PUSH20 0xFFFFFFFFFFFFFFFFFFFFFFFFFFFFFFFFFFFFFFFF AND DUP2 JUMP JUMPDEST PUSH1 0x0 DUP2 CALLDATALOAD SWAP1 POP PUSH2 0x608 DUP2 PUSH2 0xA00 JUMP JUMPDEST SWAP3 SWAP2 POP POP JUMP JUMPDEST PUSH1 0x0 DUP2 CALLDATALOAD SWAP1 POP PUSH2 0x61D DUP2 PUSH2 0xA17 JUMP JUMPDEST SWAP3 SWAP2 POP POP JUMP JUMPDEST PUSH1 0x0 PUSH1 0x20 DUP3 DUP5 SUB SLT ISZERO PUSH2 0x635 JUMPI PUSH1 0x0 DUP1 REVERT JUMPDEST PUSH1 0x0 PUSH2 0x643 DUP5 DUP3 DUP6 ADD PUSH2 0x5F9 JUMP JUMPDEST SWAP2 POP POP SWAP3 SWAP2 POP POP JUMP JUMPDEST PUSH1 0x0 DUP1 PUSH1 0x40 DUP4 DUP6 SUB SLT ISZERO PUSH2 0x65F JUMPI PUSH1 0x0 DUP1 REVERT JUMPDEST PUSH1 0x0 PUSH2 0x66D DUP6 DUP3 DUP7 ADD PUSH2 0x5F9 JUMP JUMPDEST SWAP3 POP POP PUSH1 0x20 PUSH2 0x67E DUP6 DUP3 DUP7 ADD PUSH2 0x60E JUMP JUMPDEST SWAP2 POP POP SWAP3 POP SWAP3 SWAP1 POP JUMP JUMPDEST PUSH2 0x691 DUP2 PUSH2 0x8BC JUMP JUMPDEST DUP3 MSTORE POP POP JUMP JUMPDEST PUSH2 0x6A0 DUP2 PUSH2 0x8CE JUMP JUMPDEST DUP3 MSTORE POP POP JUMP JUMPDEST PUSH1 0x0 PUSH2 0x6B3 PUSH1 0xC DUP4 PUSH2 0x855 JUMP JUMPDEST SWAP2 POP PUSH2 0x6BE DUP3 PUSH2 0x933 JUMP JUMPDEST PUSH1 0x20 DUP3 ADD SWAP1 POP SWAP2 SWAP1 POP JUMP JUMPDEST PUSH1 0x0 PUSH2 0x6D6 PUSH1 0xA DUP4 PUSH2 0x855 JUMP JUMPDEST SWAP2 POP PUSH2 0x6E1 DUP3 PUSH2 0x95C JUMP JUMPDEST PUSH1 0x20 DUP3 ADD SWAP1 POP SWAP2 SWAP1 POP JUMP JUMPDEST PUSH1 0x0 PUSH2 0x6F9 PUSH1 0x15 DUP4 PUSH2 0x855 JUMP JUMPDEST SWAP2 POP PUSH2 0x704 DUP3 PUSH2 0x985 JUMP JUMPDEST PUSH1 0x20 DUP3 ADD SWAP1 POP SWAP2 SWAP1 POP JUMP JUMPDEST PUSH1 0x0 PUSH2 0x71C PUSH1 0xE DUP4 PUSH2 0x855 JUMP JUMPDEST SWAP2 POP PUSH2 0x727 DUP3 PUSH2 0x9AE JUMP JUMPDEST PUSH1 0x20 DUP3 ADD SWAP1 POP SWAP2 SWAP1 POP JUMP JUMPDEST PUSH1 0x0 PUSH2 0x73F PUSH1 0x9 DUP4 PUSH2 0x855 JUMP JUMPDEST SWAP2 POP PUSH2 0x74A DUP3 PUSH2 0x9D7 JUMP JUMPDEST PUSH1 0x20 DUP3 ADD SWAP1 POP SWAP2 SWAP1 POP JUMP JUMPDEST PUSH2 0x75E DUP2 PUSH2 0x8FA JUMP JUMPDEST DUP3 MSTORE POP POP JUMP JUMPDEST PUSH1 0x0 PUSH1 0x20 DUP3 ADD SWAP1 POP PUSH2 0x779 PUSH1 0x0 DUP4 ADD DUP5 PUSH2 0x688 JUMP JUMPDEST SWAP3 SWAP2 POP POP JUMP JUMPDEST PUSH1 0x0 PUSH1 0x20 DUP3 ADD SWAP1 POP PUSH2 0x794 PUSH1 0x0 DUP4 ADD DUP5 PUSH2 0x697 JUMP JUMPDEST SWAP3 SWAP2 POP POP JUMP JUMPDEST PUSH1 0x0 PUSH1 0x20 DUP3 ADD SWAP1 POP DUP2 DUP2 SUB PUSH1 0x0 DUP4 ADD MSTORE PUSH2 0x7B3 DUP2 PUSH2 0x6A6 JUMP JUMPDEST SWAP1 POP SWAP2 SWAP1 POP JUMP JUMPDEST PUSH1 0x0 PUSH1 0x20 DUP3 ADD SWAP1 POP DUP2 DUP2 SUB PUSH1 0x0 DUP4 ADD MSTORE PUSH2 0x7D3 DUP2 PUSH2 0x6C9 JUMP JUMPDEST SWAP1 POP SWAP2 SWAP1 POP JUMP JUMPDEST PUSH1 0x0 PUSH1 0x20 DUP3 ADD SWAP1 POP DUP2 DUP2 SUB PUSH1 0x0 DUP4 ADD MSTORE PUSH2 0x7F3 DUP2 PUSH2 0x6EC JUMP JUMPDEST SWAP1 POP SWAP2 SWAP1 POP JUMP JUMPDEST PUSH1 0x0 PUSH1 0x20 DUP3 ADD SWAP1 POP DUP2 DUP2 SUB PUSH1 0x0 DUP4 ADD MSTORE PUSH2 0x813 DUP2 PUSH2 0x70F JUMP JUMPDEST SWAP1 POP SWAP2 SWAP1 POP JUMP JUMPDEST PUSH1 0x0 PUSH1 0x20 DUP3 ADD SWAP1 POP DUP2 DUP2 SUB PUSH1 0x0 DUP4 ADD MSTORE PUSH2 0x833 DUP2 PUSH2 0x732 JUMP JUMPDEST SWAP1 POP SWAP2 SWAP1 POP JUMP JUMPDEST PUSH1 0x0 PUSH1 0x20 DUP3 ADD SWAP1 POP PUSH2 0x84F PUSH1 0x0 DUP4 ADD DUP5 PUSH2 0x755 JUMP JUMPDEST SWAP3 SWAP2 POP POP JUMP JUMPDEST PUSH1 0x0 DUP3 DUP3 MSTORE PUSH1 0x20 DUP3 ADD SWAP1 POP SWAP3 SWAP2 POP POP JUMP JUMPDEST PUSH1 0x0 PUSH2 0x871 DUP3 PUSH2 0x8FA JUMP JUMPDEST SWAP2 POP PUSH2 0x87C DUP4 PUSH2 0x8FA JUMP JUMPDEST SWAP3 POP DUP3 PUSH32 0xFFFFFFFFFFFFFFFFFFFFFFFFFFFFFFFFFFFFFFFFFFFFFFFFFFFFFFFFFFFFFFFF SUB DUP3 GT ISZERO PUSH2 0x8B1 JUMPI PUSH2 0x8B0 PUSH2 0x904 JUMP JUMPDEST JUMPDEST DUP3 DUP3 ADD SWAP1 POP SWAP3 SWAP2 POP POP JUMP JUMPDEST PUSH1 0x0 PUSH2 0x8C7 DUP3 PUSH2 0x8DA JUMP JUMPDEST SWAP1 POP SWAP2 SWAP1 POP JUMP JUMPDEST PUSH1 0x0 DUP2 ISZERO ISZERO SWAP1 POP SWAP2 SWAP1 POP JUMP JUMPDEST PUSH1 0x0 PUSH20 0xFFFFFFFFFFFFFFFFFFFFFFFFFFFFFFFFFFFFFFFF DUP3 AND SWAP1 POP SWAP2 SWAP1 POP JUMP JUMPDEST PUSH1 0x0 DUP2 SWAP1 POP SWAP2 SWAP1 POP JUMP JUMPDEST PUSH32 0x4E487B7100000000000000000000000000000000000000000000000000000000 PUSH1 0x0 MSTORE PUSH1 0x11 PUSH1 0x4 MSTORE PUSH1 0x24 PUSH1 0x0 REVERT JUMPDEST PUSH32 0x7061696420616C72656164790000000000000000000000000000000000000000 PUSH1 0x0 DUP3 ADD MSTORE POP JUMP JUMPDEST PUSH32 0x6F6E6C792061646D696E00000000000000000000000000000000000000000000 PUSH1 0x0 DUP3 ADD MSTORE POP JUMP JUMPDEST PUSH32 0x6F6E6C79206B69642063616E2077697468647261770000000000000000000000 PUSH1 0x0 DUP3 ADD MSTORE POP JUMP JUMPDEST PUSH32 0x6B696420616C7265616479206578000000000000000000000000000000000000 PUSH1 0x0 DUP3 ADD MSTORE POP JUMP JUMPDEST PUSH32 0x746F6F206561726C790000000000000000000000000000000000000000000000 PUSH1 0x0 DUP3 ADD MSTORE POP JUMP JUMPDEST PUSH2 0xA09 DUP2 PUSH2 0x8BC JUMP JUMPDEST DUP2 EQ PUSH2 0xA14 JUMPI PUSH1 0x0 DUP1 REVERT JUMPDEST POP JUMP JUMPDEST PUSH2 0xA20 DUP2 PUSH2 0x8FA JUMP JUMPDEST DUP2 EQ PUSH2 0xA2B JUMPI PUSH1 0x0 DUP1 REVERT JUMPDEST POP JUMP INVALID LOG2 PUSH5 0x6970667358 0x22 SLT KECCAK256 PC PUSH16 0x2AEE49FF1D65D12C2C55E506FAF100D2 0xEB 0x2E SWAP16 0xB9 PUSH15 0x5BBC61AE6B1C069BC964736F6C6343 STOP ADDMOD ADD STOP CALLER "
				},
				"gasEstimates": {
					"creation": {
						"codeDepositCost": "532000",
						"executionCost": "21434",
						"totalCost": "553434"
					},
					"external": {
						"addKid(address,uint256)": "infinite",
						"admin()": "1302",
						"amounts(address)": "1536",
						"maturities(address)": "1558",
						"paid(address)": "1611",
						"withdraw()": "infinite"
					}
				},
				"methodIdentifiers": {
					"addKid(address,uint256)": "40990e30",
					"admin()": "f851a440",
					"amounts(address)": "55a3b2c1",
					"maturities(address)": "6607250b",
					"paid(address)": "a340cf79",
					"withdraw()": "3ccfd60b"
				}
			},
			"storageLayout": {
				"storage": [
					{
						"astId": 5,
						"contract": "Trust.sol:Trust",
						"label": "amounts",
						"offset": 0,
						"slot": "0",
						"type": "t_mapping(t_address,t_uint256)"
					},
					{
						"astId": 9,
						"contract": "Trust.sol:Trust",
						"label": "maturities",
						"offset": 0,
						"slot": "1",
						"type": "t_mapping(t_address,t_uint256)"
					},
					{
						"astId": 13,
						"contract": "Trust.sol:Trust",
						"label": "paid",
						"offset": 0,
						"slot": "2",
						"type": "t_mapping(t_address,t_bool)"
					},
					{
						"astId": 15,
						"contract": "Trust.sol:Trust",
						"label": "admin",
						"offset": 0,
						"slot": "3",
						"type": "t_address"
					}
				],
				"types": {
					"t_address": {
						"encoding": "inplace",
						"label": "address",
						"numberOfBytes": "20"
					},
					"t_bool": {
						"encoding": "inplace",
						"label": "bool",
						"numberOfBytes": "1"
					},
					"t_mapping(t_address,t_bool)": {
						"encoding": "mapping",
						"key": "t_address",
						"label": "mapping(address => bool)",
						"numberOfBytes": "32",
						"value": "t_bool"
					},
					"t_mapping(t_address,t_uint256)": {
						"encoding": "mapping",
						"key": "t_address",
						"label": "mapping(address => uint256)",
						"numberOfBytes": "32",
						"value": "t_uint256"
					},
					"t_uint256": {
						"encoding": "inplace",
						"label": "uint256",
						"numberOfBytes": "32"
					}
				}
			},
			"userdoc": {
				"kind": "user",
				"methods": {},
				"version": 1
			}
		}
	}
}