{
	"Trust.sol": {
		"Trust": {
			"abi": [
				{
					"inputs": [],
					"stateMutability": "nonpayable",
					"type": "constructor"
				},
				{
					"inputs": [
						{
							"internalType": "address",
							"name": "kid",
							"type": "address"
						},
						{
							"internalType": "uint256",
							"name": "timeToMaturity",
							"type": "uint256"
						}
					],
					"name": "addKid",
					"outputs": [],
					"stateMutability": "payable",
					"type": "function"
				},
				{
					"inputs": [],
					"name": "admin",
					"outputs": [
						{
							"internalType": "address",
							"name": "",
							"type": "address"
						}
					],
					"stateMutability": "view",
					"type": "function"
				},
				{
					"inputs": [
						{
							"internalType": "address",
							"name": "",
							"type": "address"
						}
					],
					"name": "kids",
					"outputs": [
						{
							"internalType": "uint256",
							"name": "amount",
							"type": "uint256"
						},
						{
							"internalType": "uint256",
							"name": "maturity",
							"type": "uint256"
						},
						{
							"internalType": "bool",
							"name": "paid",
							"type": "bool"
						}
					],
					"stateMutability": "view",
					"type": "function"
				},
				{
					"inputs": [],
					"name": "withdraw",
					"outputs": [],
					"stateMutability": "nonpayable",
					"type": "function"
				}
			],
			"devdoc": {
				"kind": "dev",
				"methods": {},
				"version": 1
			},
			"evm": {
				"assembly": "    /* \"Trust.sol\":65:932  contract Trust {\r... */\n  mstore(0x40, 0x80)\n    /* \"Trust.sol\":249:300  constructor() {\r... */\n  callvalue\n  dup1\n  iszero\n  tag_1\n  jumpi\n  0x00\n  dup1\n  revert\ntag_1:\n  pop\n    /* \"Trust.sol\":282:292  msg.sender */\n  caller\n    /* \"Trust.sol\":274:279  admin */\n  0x01\n  0x00\n    /* \"Trust.sol\":274:292  admin = msg.sender */\n  0x0100\n  exp\n  dup2\n  sload\n  dup2\n  0xffffffffffffffffffffffffffffffffffffffff\n  mul\n  not\n  and\n  swap1\n  dup4\n  0xffffffffffffffffffffffffffffffffffffffff\n  and\n  mul\n  or\n  swap1\n  sstore\n  pop\n    /* \"Trust.sol\":65:932  contract Trust {\r... */\n  dataSize(sub_0)\n  dup1\n  dataOffset(sub_0)\n  0x00\n  codecopy\n  0x00\n  return\nstop\n\nsub_0: assembly {\n        /* \"Trust.sol\":65:932  contract Trust {\r... */\n      mstore(0x40, 0x80)\n      jumpi(tag_1, lt(calldatasize, 0x04))\n      shr(0xe0, calldataload(0x00))\n      dup1\n      0x2438628c\n      eq\n      tag_2\n      jumpi\n      dup1\n      0x3ccfd60b\n      eq\n      tag_3\n      jumpi\n      dup1\n      0x40990e30\n      eq\n      tag_4\n      jumpi\n      dup1\n      0xf851a440\n      eq\n      tag_5\n      jumpi\n    tag_1:\n      0x00\n      dup1\n      revert\n        /* \"Trust.sol\":178:213  mapping(address => Kid) public kids */\n    tag_2:\n      callvalue\n      dup1\n      iszero\n      tag_6\n      jumpi\n      0x00\n      dup1\n      revert\n    tag_6:\n      pop\n      tag_7\n      0x04\n      dup1\n      calldatasize\n      sub\n      dup2\n      add\n      swap1\n      tag_8\n      swap2\n      swap1\n      tag_9\n      jump\t// in\n    tag_8:\n      tag_10\n      jump\t// in\n    tag_7:\n      mload(0x40)\n      tag_11\n      swap4\n      swap3\n      swap2\n      swap1\n      tag_12\n      jump\t// in\n    tag_11:\n      mload(0x40)\n      dup1\n      swap2\n      sub\n      swap1\n      return\n        /* \"Trust.sol\":593:929  function withdraw() external {\r... */\n    tag_3:\n      callvalue\n      dup1\n      iszero\n      tag_13\n      jumpi\n      0x00\n      dup1\n      revert\n    tag_13:\n      pop\n      tag_14\n      tag_15\n      jump\t// in\n    tag_14:\n      stop\n        /* \"Trust.sol\":308:585  function addKid(address kid, uint timeToMaturity) external payable {\r... */\n    tag_4:\n      tag_16\n      0x04\n      dup1\n      calldatasize\n      sub\n      dup2\n      add\n      swap1\n      tag_17\n      swap2\n      swap1\n      tag_18\n      jump\t// in\n    tag_17:\n      tag_19\n      jump\t// in\n    tag_16:\n      stop\n        /* \"Trust.sol\":220:240  address public admin */\n    tag_5:\n      callvalue\n      dup1\n      iszero\n      tag_20\n      jumpi\n      0x00\n      dup1\n      revert\n    tag_20:\n      pop\n      tag_21\n      tag_22\n      jump\t// in\n    tag_21:\n      mload(0x40)\n      tag_23\n      swap2\n      swap1\n      tag_24\n      jump\t// in\n    tag_23:\n      mload(0x40)\n      dup1\n      swap2\n      sub\n      swap1\n      return\n        /* \"Trust.sol\":178:213  mapping(address => Kid) public kids */\n    tag_10:\n      mstore(0x20, 0x00)\n      dup1\n      0x00\n      mstore\n      keccak256(0x00, 0x40)\n      0x00\n      swap2\n      pop\n      swap1\n      pop\n      dup1\n      0x00\n      add\n      sload\n      swap1\n      dup1\n      0x01\n      add\n      sload\n      swap1\n      dup1\n      0x02\n      add\n      0x00\n      swap1\n      sload\n      swap1\n      0x0100\n      exp\n      swap1\n      div\n      0xff\n      and\n      swap1\n      pop\n      dup4\n      jump\t// out\n        /* \"Trust.sol\":593:929  function withdraw() external {\r... */\n    tag_15:\n        /* \"Trust.sol\":633:648  Kid storage kid */\n      0x00\n        /* \"Trust.sol\":651:655  kids */\n      dup1\n        /* \"Trust.sol\":651:667  kids[msg.sender] */\n      0x00\n        /* \"Trust.sol\":656:666  msg.sender */\n      caller\n        /* \"Trust.sol\":651:667  kids[msg.sender] */\n      0xffffffffffffffffffffffffffffffffffffffff\n      and\n      0xffffffffffffffffffffffffffffffffffffffff\n      and\n      dup2\n      mstore\n      0x20\n      add\n      swap1\n      dup2\n      mstore\n      0x20\n      add\n      0x00\n      keccak256\n        /* \"Trust.sol\":633:667  Kid storage kid = kids[msg.sender] */\n      swap1\n      pop\n        /* \"Trust.sol\":702:717  block.timestamp */\n      timestamp\n        /* \"Trust.sol\":686:689  kid */\n      dup2\n        /* \"Trust.sol\":686:698  kid.maturity */\n      0x01\n      add\n      sload\n        /* \"Trust.sol\":686:717  kid.maturity <= block.timestamp */\n      gt\n      iszero\n        /* \"Trust.sol\":678:731  require(kid.maturity <= block.timestamp, \"too early\") */\n      tag_26\n      jumpi\n      mload(0x40)\n      0x08c379a000000000000000000000000000000000000000000000000000000000\n      dup2\n      mstore\n      0x04\n      add\n      tag_27\n      swap1\n      tag_28\n      jump\t// in\n    tag_27:\n      mload(0x40)\n      dup1\n      swap2\n      sub\n      swap1\n      revert\n    tag_26:\n        /* \"Trust.sol\":763:764  0 */\n      0x00\n        /* \"Trust.sol\":750:753  kid */\n      dup2\n        /* \"Trust.sol\":750:760  kid.amount */\n      0x00\n      add\n      sload\n        /* \"Trust.sol\":750:764  kid.amount > 0 */\n      gt\n        /* \"Trust.sol\":742:790  require(kid.amount > 0, 'only kid can withdraw') */\n      tag_29\n      jumpi\n      mload(0x40)\n      0x08c379a000000000000000000000000000000000000000000000000000000000\n      dup2\n      mstore\n      0x04\n      add\n      tag_30\n      swap1\n      tag_31\n      jump\t// in\n    tag_30:\n      mload(0x40)\n      dup1\n      swap2\n      sub\n      swap1\n      revert\n    tag_29:\n        /* \"Trust.sol\":821:826  false */\n      0x00\n        /* \"Trust.sol\":809:826  kid.paid == false */\n      iszero\n      iszero\n        /* \"Trust.sol\":809:812  kid */\n      dup2\n        /* \"Trust.sol\":809:817  kid.paid */\n      0x02\n      add\n      0x00\n      swap1\n      sload\n      swap1\n      0x0100\n      exp\n      swap1\n      div\n      0xff\n      and\n        /* \"Trust.sol\":809:826  kid.paid == false */\n      iszero\n      iszero\n      eq\n        /* \"Trust.sol\":801:843  require(kid.paid == false, 'paid already') */\n      tag_32\n      jumpi\n      mload(0x40)\n      0x08c379a000000000000000000000000000000000000000000000000000000000\n      dup2\n      mstore\n      0x04\n      add\n      tag_33\n      swap1\n      tag_34\n      jump\t// in\n    tag_33:\n      mload(0x40)\n      dup1\n      swap2\n      sub\n      swap1\n      revert\n    tag_32:\n        /* \"Trust.sol\":866:870  true */\n      0x01\n        /* \"Trust.sol\":854:870  kid.paid == true */\n      iszero\n      iszero\n        /* \"Trust.sol\":854:857  kid */\n      dup2\n        /* \"Trust.sol\":854:862  kid.paid */\n      0x02\n      add\n      0x00\n      swap1\n      sload\n      swap1\n      0x0100\n      exp\n      swap1\n      pop\n      pop\n        /* \"Trust.sol\":854:870  kid.paid == true */\n      pop\n        /* \"Trust.sol\":889:899  msg.sender */\n      caller\n        /* \"Trust.sol\":881:909  payable(msg.sender).transfer */\n      0xffffffffffffffffffffffffffffffffffffffff\n      and\n        /* \"Trust.sol\":881:921  payable(msg.sender).transfer(kid.amount) */\n      0x08fc\n        /* \"Trust.sol\":910:913  kid */\n      dup3\n        /* \"Trust.sol\":910:920  kid.amount */\n      0x00\n      add\n      sload\n        /* \"Trust.sol\":881:921  payable(msg.sender).transfer(kid.amount) */\n      swap1\n      dup2\n      iszero\n      mul\n      swap1\n      mload(0x40)\n      0x00\n      mload(0x40)\n      dup1\n      dup4\n      sub\n      dup2\n      dup6\n      dup9\n      dup9\n      call\n      swap4\n      pop\n      pop\n      pop\n      pop\n      iszero\n      dup1\n      iszero\n      tag_36\n      jumpi\n      returndatasize\n      0x00\n      dup1\n      returndatacopy\n      revert(0x00, returndatasize)\n    tag_36:\n      pop\n        /* \"Trust.sol\":593:929  function withdraw() external {\r... */\n      pop\n      jump\t// out\n        /* \"Trust.sol\":308:585  function addKid(address kid, uint timeToMaturity) external payable {\r... */\n    tag_19:\n        /* \"Trust.sol\":408:413  admin */\n      0x01\n      0x00\n      swap1\n      sload\n      swap1\n      0x0100\n      exp\n      swap1\n      div\n      0xffffffffffffffffffffffffffffffffffffffff\n      and\n        /* \"Trust.sol\":394:413  msg.sender == admin */\n      0xffffffffffffffffffffffffffffffffffffffff\n      and\n        /* \"Trust.sol\":394:404  msg.sender */\n      caller\n        /* \"Trust.sol\":394:413  msg.sender == admin */\n      0xffffffffffffffffffffffffffffffffffffffff\n      and\n      eq\n        /* \"Trust.sol\":386:428  require(msg.sender == admin, 'only admin') */\n      tag_38\n      jumpi\n      mload(0x40)\n      0x08c379a000000000000000000000000000000000000000000000000000000000\n      dup2\n      mstore\n      0x04\n      add\n      tag_39\n      swap1\n      tag_40\n      jump\t// in\n    tag_39:\n      mload(0x40)\n      dup1\n      swap2\n      sub\n      swap1\n      revert\n    tag_38:\n        /* \"Trust.sol\":474:475  0 */\n      0x00\n        /* \"Trust.sol\":447:451  kids */\n      dup1\n        /* \"Trust.sol\":447:463  kids[msg.sender] */\n      0x00\n        /* \"Trust.sol\":452:462  msg.sender */\n      caller\n        /* \"Trust.sol\":447:463  kids[msg.sender] */\n      0xffffffffffffffffffffffffffffffffffffffff\n      and\n      0xffffffffffffffffffffffffffffffffffffffff\n      and\n      dup2\n      mstore\n      0x20\n      add\n      swap1\n      dup2\n      mstore\n      0x20\n      add\n      0x00\n      keccak256\n        /* \"Trust.sol\":447:470  kids[msg.sender].amount */\n      0x00\n      add\n      sload\n        /* \"Trust.sol\":447:475  kids[msg.sender].amount == 0 */\n      eq\n        /* \"Trust.sol\":439:499  require(kids[msg.sender].amount == 0, 'kid already exists' ) */\n      tag_41\n      jumpi\n      mload(0x40)\n      0x08c379a000000000000000000000000000000000000000000000000000000000\n      dup2\n      mstore\n      0x04\n      add\n      tag_42\n      swap1\n      tag_43\n      jump\t// in\n    tag_42:\n      mload(0x40)\n      dup1\n      swap2\n      sub\n      swap1\n      revert\n    tag_41:\n        /* \"Trust.sol\":522:577  Kid(msg.value, block.timestamp + timeToMaturity, false) */\n      mload(0x40)\n      dup1\n      0x60\n      add\n      0x40\n      mstore\n      dup1\n        /* \"Trust.sol\":526:535  msg.value */\n      callvalue\n        /* \"Trust.sol\":522:577  Kid(msg.value, block.timestamp + timeToMaturity, false) */\n      dup2\n      mstore\n      0x20\n      add\n        /* \"Trust.sol\":555:569  timeToMaturity */\n      dup3\n        /* \"Trust.sol\":537:552  block.timestamp */\n      timestamp\n        /* \"Trust.sol\":537:569  block.timestamp + timeToMaturity */\n      tag_44\n      swap2\n      swap1\n      tag_45\n      jump\t// in\n    tag_44:\n        /* \"Trust.sol\":522:577  Kid(msg.value, block.timestamp + timeToMaturity, false) */\n      dup2\n      mstore\n      0x20\n      add\n        /* \"Trust.sol\":571:576  false */\n      0x00\n        /* \"Trust.sol\":522:577  Kid(msg.value, block.timestamp + timeToMaturity, false) */\n      iszero\n      iszero\n      dup2\n      mstore\n      pop\n        /* \"Trust.sol\":510:514  kids */\n      0x00\n        /* \"Trust.sol\":510:519  kids[kid] */\n      dup1\n        /* \"Trust.sol\":515:518  kid */\n      dup5\n        /* \"Trust.sol\":510:519  kids[kid] */\n      0xffffffffffffffffffffffffffffffffffffffff\n      and\n      0xffffffffffffffffffffffffffffffffffffffff\n      and\n      dup2\n      mstore\n      0x20\n      add\n      swap1\n      dup2\n      mstore\n      0x20\n      add\n      0x00\n      keccak256\n        /* \"Trust.sol\":510:577  kids[kid] = Kid(msg.value, block.timestamp + timeToMaturity, false) */\n      0x00\n      dup3\n      add\n      mload\n      dup2\n      0x00\n      add\n      sstore\n      0x20\n      dup3\n      add\n      mload\n      dup2\n      0x01\n      add\n      sstore\n      0x40\n      dup3\n      add\n      mload\n      dup2\n      0x02\n      add\n      exp(0x0100, 0x00)\n      dup2\n      sload\n      dup2\n      0xff\n      mul\n      not\n      and\n      swap1\n      dup4\n      iszero\n      iszero\n      mul\n      or\n      swap1\n      sstore\n      pop\n      swap1\n      pop\n      pop\n        /* \"Trust.sol\":308:585  function addKid(address kid, uint timeToMaturity) external payable {\r... */\n      pop\n      pop\n      jump\t// out\n        /* \"Trust.sol\":220:240  address public admin */\n    tag_22:\n      0x01\n      0x00\n      swap1\n      sload\n      swap1\n      0x0100\n      exp\n      swap1\n      div\n      0xffffffffffffffffffffffffffffffffffffffff\n      and\n      dup2\n      jump\t// out\n        /* \"#utility.yul\":7:146   */\n    tag_47:\n      0x00\n        /* \"#utility.yul\":91:97   */\n      dup2\n        /* \"#utility.yul\":78:98   */\n      calldataload\n        /* \"#utility.yul\":69:98   */\n      swap1\n      pop\n        /* \"#utility.yul\":107:140   */\n      tag_49\n        /* \"#utility.yul\":134:139   */\n      dup2\n        /* \"#utility.yul\":107:140   */\n      tag_50\n      jump\t// in\n    tag_49:\n        /* \"#utility.yul\":59:146   */\n      swap3\n      swap2\n      pop\n      pop\n      jump\t// out\n        /* \"#utility.yul\":152:291   */\n    tag_51:\n      0x00\n        /* \"#utility.yul\":236:242   */\n      dup2\n        /* \"#utility.yul\":223:243   */\n      calldataload\n        /* \"#utility.yul\":214:243   */\n      swap1\n      pop\n        /* \"#utility.yul\":252:285   */\n      tag_53\n        /* \"#utility.yul\":279:284   */\n      dup2\n        /* \"#utility.yul\":252:285   */\n      tag_54\n      jump\t// in\n    tag_53:\n        /* \"#utility.yul\":204:291   */\n      swap3\n      swap2\n      pop\n      pop\n      jump\t// out\n        /* \"#utility.yul\":297:559   */\n    tag_9:\n      0x00\n        /* \"#utility.yul\":405:407   */\n      0x20\n        /* \"#utility.yul\":393:402   */\n      dup3\n        /* \"#utility.yul\":384:391   */\n      dup5\n        /* \"#utility.yul\":380:403   */\n      sub\n        /* \"#utility.yul\":376:408   */\n      slt\n        /* \"#utility.yul\":373:375   */\n      iszero\n      tag_56\n      jumpi\n        /* \"#utility.yul\":421:422   */\n      0x00\n        /* \"#utility.yul\":418:419   */\n      dup1\n        /* \"#utility.yul\":411:423   */\n      revert\n        /* \"#utility.yul\":373:375   */\n    tag_56:\n        /* \"#utility.yul\":464:465   */\n      0x00\n        /* \"#utility.yul\":489:542   */\n      tag_57\n        /* \"#utility.yul\":534:541   */\n      dup5\n        /* \"#utility.yul\":525:531   */\n      dup3\n        /* \"#utility.yul\":514:523   */\n      dup6\n        /* \"#utility.yul\":510:532   */\n      add\n        /* \"#utility.yul\":489:542   */\n      tag_47\n      jump\t// in\n    tag_57:\n        /* \"#utility.yul\":479:542   */\n      swap2\n      pop\n        /* \"#utility.yul\":435:552   */\n      pop\n        /* \"#utility.yul\":363:559   */\n      swap3\n      swap2\n      pop\n      pop\n      jump\t// out\n        /* \"#utility.yul\":565:972   */\n    tag_18:\n      0x00\n      dup1\n        /* \"#utility.yul\":690:692   */\n      0x40\n        /* \"#utility.yul\":678:687   */\n      dup4\n        /* \"#utility.yul\":669:676   */\n      dup6\n        /* \"#utility.yul\":665:688   */\n      sub\n        /* \"#utility.yul\":661:693   */\n      slt\n        /* \"#utility.yul\":658:660   */\n      iszero\n      tag_59\n      jumpi\n        /* \"#utility.yul\":706:707   */\n      0x00\n        /* \"#utility.yul\":703:704   */\n      dup1\n        /* \"#utility.yul\":696:708   */\n      revert\n        /* \"#utility.yul\":658:660   */\n    tag_59:\n        /* \"#utility.yul\":749:750   */\n      0x00\n        /* \"#utility.yul\":774:827   */\n      tag_60\n        /* \"#utility.yul\":819:826   */\n      dup6\n        /* \"#utility.yul\":810:816   */\n      dup3\n        /* \"#utility.yul\":799:808   */\n      dup7\n        /* \"#utility.yul\":795:817   */\n      add\n        /* \"#utility.yul\":774:827   */\n      tag_47\n      jump\t// in\n    tag_60:\n        /* \"#utility.yul\":764:827   */\n      swap3\n      pop\n        /* \"#utility.yul\":720:837   */\n      pop\n        /* \"#utility.yul\":876:878   */\n      0x20\n        /* \"#utility.yul\":902:955   */\n      tag_61\n        /* \"#utility.yul\":947:954   */\n      dup6\n        /* \"#utility.yul\":938:944   */\n      dup3\n        /* \"#utility.yul\":927:936   */\n      dup7\n        /* \"#utility.yul\":923:945   */\n      add\n        /* \"#utility.yul\":902:955   */\n      tag_51\n      jump\t// in\n    tag_61:\n        /* \"#utility.yul\":892:955   */\n      swap2\n      pop\n        /* \"#utility.yul\":847:965   */\n      pop\n        /* \"#utility.yul\":648:972   */\n      swap3\n      pop\n      swap3\n      swap1\n      pop\n      jump\t// out\n        /* \"#utility.yul\":978:1096   */\n    tag_62:\n        /* \"#utility.yul\":1065:1089   */\n      tag_64\n        /* \"#utility.yul\":1083:1088   */\n      dup2\n        /* \"#utility.yul\":1065:1089   */\n      tag_65\n      jump\t// in\n    tag_64:\n        /* \"#utility.yul\":1060:1063   */\n      dup3\n        /* \"#utility.yul\":1053:1090   */\n      mstore\n        /* \"#utility.yul\":1043:1096   */\n      pop\n      pop\n      jump\t// out\n        /* \"#utility.yul\":1102:1211   */\n    tag_66:\n        /* \"#utility.yul\":1183:1204   */\n      tag_68\n        /* \"#utility.yul\":1198:1203   */\n      dup2\n        /* \"#utility.yul\":1183:1204   */\n      tag_69\n      jump\t// in\n    tag_68:\n        /* \"#utility.yul\":1178:1181   */\n      dup3\n        /* \"#utility.yul\":1171:1205   */\n      mstore\n        /* \"#utility.yul\":1161:1211   */\n      pop\n      pop\n      jump\t// out\n        /* \"#utility.yul\":1217:1583   */\n    tag_70:\n      0x00\n        /* \"#utility.yul\":1380:1447   */\n      tag_72\n        /* \"#utility.yul\":1444:1446   */\n      0x0c\n        /* \"#utility.yul\":1439:1442   */\n      dup4\n        /* \"#utility.yul\":1380:1447   */\n      tag_73\n      jump\t// in\n    tag_72:\n        /* \"#utility.yul\":1373:1447   */\n      swap2\n      pop\n        /* \"#utility.yul\":1456:1549   */\n      tag_74\n        /* \"#utility.yul\":1545:1548   */\n      dup3\n        /* \"#utility.yul\":1456:1549   */\n      tag_75\n      jump\t// in\n    tag_74:\n        /* \"#utility.yul\":1574:1576   */\n      0x20\n        /* \"#utility.yul\":1569:1572   */\n      dup3\n        /* \"#utility.yul\":1565:1577   */\n      add\n        /* \"#utility.yul\":1558:1577   */\n      swap1\n      pop\n        /* \"#utility.yul\":1363:1583   */\n      swap2\n      swap1\n      pop\n      jump\t// out\n        /* \"#utility.yul\":1589:1955   */\n    tag_76:\n      0x00\n        /* \"#utility.yul\":1752:1819   */\n      tag_78\n        /* \"#utility.yul\":1816:1818   */\n      0x0a\n        /* \"#utility.yul\":1811:1814   */\n      dup4\n        /* \"#utility.yul\":1752:1819   */\n      tag_73\n      jump\t// in\n    tag_78:\n        /* \"#utility.yul\":1745:1819   */\n      swap2\n      pop\n        /* \"#utility.yul\":1828:1921   */\n      tag_79\n        /* \"#utility.yul\":1917:1920   */\n      dup3\n        /* \"#utility.yul\":1828:1921   */\n      tag_80\n      jump\t// in\n    tag_79:\n        /* \"#utility.yul\":1946:1948   */\n      0x20\n        /* \"#utility.yul\":1941:1944   */\n      dup3\n        /* \"#utility.yul\":1937:1949   */\n      add\n        /* \"#utility.yul\":1930:1949   */\n      swap1\n      pop\n        /* \"#utility.yul\":1735:1955   */\n      swap2\n      swap1\n      pop\n      jump\t// out\n        /* \"#utility.yul\":1961:2327   */\n    tag_81:\n      0x00\n        /* \"#utility.yul\":2124:2191   */\n      tag_83\n        /* \"#utility.yul\":2188:2190   */\n      0x15\n        /* \"#utility.yul\":2183:2186   */\n      dup4\n        /* \"#utility.yul\":2124:2191   */\n      tag_73\n      jump\t// in\n    tag_83:\n        /* \"#utility.yul\":2117:2191   */\n      swap2\n      pop\n        /* \"#utility.yul\":2200:2293   */\n      tag_84\n        /* \"#utility.yul\":2289:2292   */\n      dup3\n        /* \"#utility.yul\":2200:2293   */\n      tag_85\n      jump\t// in\n    tag_84:\n        /* \"#utility.yul\":2318:2320   */\n      0x20\n        /* \"#utility.yul\":2313:2316   */\n      dup3\n        /* \"#utility.yul\":2309:2321   */\n      add\n        /* \"#utility.yul\":2302:2321   */\n      swap1\n      pop\n        /* \"#utility.yul\":2107:2327   */\n      swap2\n      swap1\n      pop\n      jump\t// out\n        /* \"#utility.yul\":2333:2698   */\n    tag_86:\n      0x00\n        /* \"#utility.yul\":2496:2562   */\n      tag_88\n        /* \"#utility.yul\":2560:2561   */\n      0x09\n        /* \"#utility.yul\":2555:2558   */\n      dup4\n        /* \"#utility.yul\":2496:2562   */\n      tag_73\n      jump\t// in\n    tag_88:\n        /* \"#utility.yul\":2489:2562   */\n      swap2\n      pop\n        /* \"#utility.yul\":2571:2664   */\n      tag_89\n        /* \"#utility.yul\":2660:2663   */\n      dup3\n        /* \"#utility.yul\":2571:2664   */\n      tag_90\n      jump\t// in\n    tag_89:\n        /* \"#utility.yul\":2689:2691   */\n      0x20\n        /* \"#utility.yul\":2684:2687   */\n      dup3\n        /* \"#utility.yul\":2680:2692   */\n      add\n        /* \"#utility.yul\":2673:2692   */\n      swap1\n      pop\n        /* \"#utility.yul\":2479:2698   */\n      swap2\n      swap1\n      pop\n      jump\t// out\n        /* \"#utility.yul\":2704:3070   */\n    tag_91:\n      0x00\n        /* \"#utility.yul\":2867:2934   */\n      tag_93\n        /* \"#utility.yul\":2931:2933   */\n      0x12\n        /* \"#utility.yul\":2926:2929   */\n      dup4\n        /* \"#utility.yul\":2867:2934   */\n      tag_73\n      jump\t// in\n    tag_93:\n        /* \"#utility.yul\":2860:2934   */\n      swap2\n      pop\n        /* \"#utility.yul\":2943:3036   */\n      tag_94\n        /* \"#utility.yul\":3032:3035   */\n      dup3\n        /* \"#utility.yul\":2943:3036   */\n      tag_95\n      jump\t// in\n    tag_94:\n        /* \"#utility.yul\":3061:3063   */\n      0x20\n        /* \"#utility.yul\":3056:3059   */\n      dup3\n        /* \"#utility.yul\":3052:3064   */\n      add\n        /* \"#utility.yul\":3045:3064   */\n      swap1\n      pop\n        /* \"#utility.yul\":2850:3070   */\n      swap2\n      swap1\n      pop\n      jump\t// out\n        /* \"#utility.yul\":3076:3194   */\n    tag_96:\n        /* \"#utility.yul\":3163:3187   */\n      tag_98\n        /* \"#utility.yul\":3181:3186   */\n      dup2\n        /* \"#utility.yul\":3163:3187   */\n      tag_99\n      jump\t// in\n    tag_98:\n        /* \"#utility.yul\":3158:3161   */\n      dup3\n        /* \"#utility.yul\":3151:3188   */\n      mstore\n        /* \"#utility.yul\":3141:3194   */\n      pop\n      pop\n      jump\t// out\n        /* \"#utility.yul\":3200:3422   */\n    tag_24:\n      0x00\n        /* \"#utility.yul\":3331:3333   */\n      0x20\n        /* \"#utility.yul\":3320:3329   */\n      dup3\n        /* \"#utility.yul\":3316:3334   */\n      add\n        /* \"#utility.yul\":3308:3334   */\n      swap1\n      pop\n        /* \"#utility.yul\":3344:3415   */\n      tag_101\n        /* \"#utility.yul\":3412:3413   */\n      0x00\n        /* \"#utility.yul\":3401:3410   */\n      dup4\n        /* \"#utility.yul\":3397:3414   */\n      add\n        /* \"#utility.yul\":3388:3394   */\n      dup5\n        /* \"#utility.yul\":3344:3415   */\n      tag_62\n      jump\t// in\n    tag_101:\n        /* \"#utility.yul\":3298:3422   */\n      swap3\n      swap2\n      pop\n      pop\n      jump\t// out\n        /* \"#utility.yul\":3428:3847   */\n    tag_34:\n      0x00\n        /* \"#utility.yul\":3632:3634   */\n      0x20\n        /* \"#utility.yul\":3621:3630   */\n      dup3\n        /* \"#utility.yul\":3617:3635   */\n      add\n        /* \"#utility.yul\":3609:3635   */\n      swap1\n      pop\n        /* \"#utility.yul\":3681:3690   */\n      dup2\n        /* \"#utility.yul\":3675:3679   */\n      dup2\n        /* \"#utility.yul\":3671:3691   */\n      sub\n        /* \"#utility.yul\":3667:3668   */\n      0x00\n        /* \"#utility.yul\":3656:3665   */\n      dup4\n        /* \"#utility.yul\":3652:3669   */\n      add\n        /* \"#utility.yul\":3645:3692   */\n      mstore\n        /* \"#utility.yul\":3709:3840   */\n      tag_103\n        /* \"#utility.yul\":3835:3839   */\n      dup2\n        /* \"#utility.yul\":3709:3840   */\n      tag_70\n      jump\t// in\n    tag_103:\n        /* \"#utility.yul\":3701:3840   */\n      swap1\n      pop\n        /* \"#utility.yul\":3599:3847   */\n      swap2\n      swap1\n      pop\n      jump\t// out\n        /* \"#utility.yul\":3853:4272   */\n    tag_40:\n      0x00\n        /* \"#utility.yul\":4057:4059   */\n      0x20\n        /* \"#utility.yul\":4046:4055   */\n      dup3\n        /* \"#utility.yul\":4042:4060   */\n      add\n        /* \"#utility.yul\":4034:4060   */\n      swap1\n      pop\n        /* \"#utility.yul\":4106:4115   */\n      dup2\n        /* \"#utility.yul\":4100:4104   */\n      dup2\n        /* \"#utility.yul\":4096:4116   */\n      sub\n        /* \"#utility.yul\":4092:4093   */\n      0x00\n        /* \"#utility.yul\":4081:4090   */\n      dup4\n        /* \"#utility.yul\":4077:4094   */\n      add\n        /* \"#utility.yul\":4070:4117   */\n      mstore\n        /* \"#utility.yul\":4134:4265   */\n      tag_105\n        /* \"#utility.yul\":4260:4264   */\n      dup2\n        /* \"#utility.yul\":4134:4265   */\n      tag_76\n      jump\t// in\n    tag_105:\n        /* \"#utility.yul\":4126:4265   */\n      swap1\n      pop\n        /* \"#utility.yul\":4024:4272   */\n      swap2\n      swap1\n      pop\n      jump\t// out\n        /* \"#utility.yul\":4278:4697   */\n    tag_31:\n      0x00\n        /* \"#utility.yul\":4482:4484   */\n      0x20\n        /* \"#utility.yul\":4471:4480   */\n      dup3\n        /* \"#utility.yul\":4467:4485   */\n      add\n        /* \"#utility.yul\":4459:4485   */\n      swap1\n      pop\n        /* \"#utility.yul\":4531:4540   */\n      dup2\n        /* \"#utility.yul\":4525:4529   */\n      dup2\n        /* \"#utility.yul\":4521:4541   */\n      sub\n        /* \"#utility.yul\":4517:4518   */\n      0x00\n        /* \"#utility.yul\":4506:4515   */\n      dup4\n        /* \"#utility.yul\":4502:4519   */\n      add\n        /* \"#utility.yul\":4495:4542   */\n      mstore\n        /* \"#utility.yul\":4559:4690   */\n      tag_107\n        /* \"#utility.yul\":4685:4689   */\n      dup2\n        /* \"#utility.yul\":4559:4690   */\n      tag_81\n      jump\t// in\n    tag_107:\n        /* \"#utility.yul\":4551:4690   */\n      swap1\n      pop\n        /* \"#utility.yul\":4449:4697   */\n      swap2\n      swap1\n      pop\n      jump\t// out\n        /* \"#utility.yul\":4703:5122   */\n    tag_28:\n      0x00\n        /* \"#utility.yul\":4907:4909   */\n      0x20\n        /* \"#utility.yul\":4896:4905   */\n      dup3\n        /* \"#utility.yul\":4892:4910   */\n      add\n        /* \"#utility.yul\":4884:4910   */\n      swap1\n      pop\n        /* \"#utility.yul\":4956:4965   */\n      dup2\n        /* \"#utility.yul\":4950:4954   */\n      dup2\n        /* \"#utility.yul\":4946:4966   */\n      sub\n        /* \"#utility.yul\":4942:4943   */\n      0x00\n        /* \"#utility.yul\":4931:4940   */\n      dup4\n        /* \"#utility.yul\":4927:4944   */\n      add\n        /* \"#utility.yul\":4920:4967   */\n      mstore\n        /* \"#utility.yul\":4984:5115   */\n      tag_109\n        /* \"#utility.yul\":5110:5114   */\n      dup2\n        /* \"#utility.yul\":4984:5115   */\n      tag_86\n      jump\t// in\n    tag_109:\n        /* \"#utility.yul\":4976:5115   */\n      swap1\n      pop\n        /* \"#utility.yul\":4874:5122   */\n      swap2\n      swap1\n      pop\n      jump\t// out\n        /* \"#utility.yul\":5128:5547   */\n    tag_43:\n      0x00\n        /* \"#utility.yul\":5332:5334   */\n      0x20\n        /* \"#utility.yul\":5321:5330   */\n      dup3\n        /* \"#utility.yul\":5317:5335   */\n      add\n        /* \"#utility.yul\":5309:5335   */\n      swap1\n      pop\n        /* \"#utility.yul\":5381:5390   */\n      dup2\n        /* \"#utility.yul\":5375:5379   */\n      dup2\n        /* \"#utility.yul\":5371:5391   */\n      sub\n        /* \"#utility.yul\":5367:5368   */\n      0x00\n        /* \"#utility.yul\":5356:5365   */\n      dup4\n        /* \"#utility.yul\":5352:5369   */\n      add\n        /* \"#utility.yul\":5345:5392   */\n      mstore\n        /* \"#utility.yul\":5409:5540   */\n      tag_111\n        /* \"#utility.yul\":5535:5539   */\n      dup2\n        /* \"#utility.yul\":5409:5540   */\n      tag_91\n      jump\t// in\n    tag_111:\n        /* \"#utility.yul\":5401:5540   */\n      swap1\n      pop\n        /* \"#utility.yul\":5299:5547   */\n      swap2\n      swap1\n      pop\n      jump\t// out\n        /* \"#utility.yul\":5553:5983   */\n    tag_12:\n      0x00\n        /* \"#utility.yul\":5734:5736   */\n      0x60\n        /* \"#utility.yul\":5723:5732   */\n      dup3\n        /* \"#utility.yul\":5719:5737   */\n      add\n        /* \"#utility.yul\":5711:5737   */\n      swap1\n      pop\n        /* \"#utility.yul\":5747:5818   */\n      tag_113\n        /* \"#utility.yul\":5815:5816   */\n      0x00\n        /* \"#utility.yul\":5804:5813   */\n      dup4\n        /* \"#utility.yul\":5800:5817   */\n      add\n        /* \"#utility.yul\":5791:5797   */\n      dup7\n        /* \"#utility.yul\":5747:5818   */\n      tag_96\n      jump\t// in\n    tag_113:\n        /* \"#utility.yul\":5828:5900   */\n      tag_114\n        /* \"#utility.yul\":5896:5898   */\n      0x20\n        /* \"#utility.yul\":5885:5894   */\n      dup4\n        /* \"#utility.yul\":5881:5899   */\n      add\n        /* \"#utility.yul\":5872:5878   */\n      dup6\n        /* \"#utility.yul\":5828:5900   */\n      tag_96\n      jump\t// in\n    tag_114:\n        /* \"#utility.yul\":5910:5976   */\n      tag_115\n        /* \"#utility.yul\":5972:5974   */\n      0x40\n        /* \"#utility.yul\":5961:5970   */\n      dup4\n        /* \"#utility.yul\":5957:5975   */\n      add\n        /* \"#utility.yul\":5948:5954   */\n      dup5\n        /* \"#utility.yul\":5910:5976   */\n      tag_66\n      jump\t// in\n    tag_115:\n        /* \"#utility.yul\":5701:5983   */\n      swap5\n      swap4\n      pop\n      pop\n      pop\n      pop\n      jump\t// out\n        /* \"#utility.yul\":5989:6158   */\n    tag_73:\n      0x00\n        /* \"#utility.yul\":6107:6113   */\n      dup3\n        /* \"#utility.yul\":6102:6105   */\n      dup3\n        /* \"#utility.yul\":6095:6114   */\n      mstore\n        /* \"#utility.yul\":6147:6151   */\n      0x20\n        /* \"#utility.yul\":6142:6145   */\n      dup3\n        /* \"#utility.yul\":6138:6152   */\n      add\n        /* \"#utility.yul\":6123:6152   */\n      swap1\n      pop\n        /* \"#utility.yul\":6085:6158   */\n      swap3\n      swap2\n      pop\n      pop\n      jump\t// out\n        /* \"#utility.yul\":6164:6469   */\n    tag_45:\n      0x00\n        /* \"#utility.yul\":6223:6243   */\n      tag_118\n        /* \"#utility.yul\":6241:6242   */\n      dup3\n        /* \"#utility.yul\":6223:6243   */\n      tag_99\n      jump\t// in\n    tag_118:\n        /* \"#utility.yul\":6218:6243   */\n      swap2\n      pop\n        /* \"#utility.yul\":6257:6277   */\n      tag_119\n        /* \"#utility.yul\":6275:6276   */\n      dup4\n        /* \"#utility.yul\":6257:6277   */\n      tag_99\n      jump\t// in\n    tag_119:\n        /* \"#utility.yul\":6252:6277   */\n      swap3\n      pop\n        /* \"#utility.yul\":6411:6412   */\n      dup3\n        /* \"#utility.yul\":6343:6409   */\n      0xffffffffffffffffffffffffffffffffffffffffffffffffffffffffffffffff\n        /* \"#utility.yul\":6339:6413   */\n      sub\n        /* \"#utility.yul\":6336:6337   */\n      dup3\n        /* \"#utility.yul\":6333:6414   */\n      gt\n        /* \"#utility.yul\":6330:6332   */\n      iszero\n      tag_120\n      jumpi\n        /* \"#utility.yul\":6417:6435   */\n      tag_121\n      tag_122\n      jump\t// in\n    tag_121:\n        /* \"#utility.yul\":6330:6332   */\n    tag_120:\n        /* \"#utility.yul\":6461:6462   */\n      dup3\n        /* \"#utility.yul\":6458:6459   */\n      dup3\n        /* \"#utility.yul\":6454:6463   */\n      add\n        /* \"#utility.yul\":6447:6463   */\n      swap1\n      pop\n        /* \"#utility.yul\":6208:6469   */\n      swap3\n      swap2\n      pop\n      pop\n      jump\t// out\n        /* \"#utility.yul\":6475:6571   */\n    tag_65:\n      0x00\n        /* \"#utility.yul\":6541:6565   */\n      tag_124\n        /* \"#utility.yul\":6559:6564   */\n      dup3\n        /* \"#utility.yul\":6541:6565   */\n      tag_125\n      jump\t// in\n    tag_124:\n        /* \"#utility.yul\":6530:6565   */\n      swap1\n      pop\n        /* \"#utility.yul\":6520:6571   */\n      swap2\n      swap1\n      pop\n      jump\t// out\n        /* \"#utility.yul\":6577:6667   */\n    tag_69:\n      0x00\n        /* \"#utility.yul\":6654:6659   */\n      dup2\n        /* \"#utility.yul\":6647:6660   */\n      iszero\n        /* \"#utility.yul\":6640:6661   */\n      iszero\n        /* \"#utility.yul\":6629:6661   */\n      swap1\n      pop\n        /* \"#utility.yul\":6619:6667   */\n      swap2\n      swap1\n      pop\n      jump\t// out\n        /* \"#utility.yul\":6673:6799   */\n    tag_125:\n      0x00\n        /* \"#utility.yul\":6750:6792   */\n      0xffffffffffffffffffffffffffffffffffffffff\n        /* \"#utility.yul\":6743:6748   */\n      dup3\n        /* \"#utility.yul\":6739:6793   */\n      and\n        /* \"#utility.yul\":6728:6793   */\n      swap1\n      pop\n        /* \"#utility.yul\":6718:6799   */\n      swap2\n      swap1\n      pop\n      jump\t// out\n        /* \"#utility.yul\":6805:6882   */\n    tag_99:\n      0x00\n        /* \"#utility.yul\":6871:6876   */\n      dup2\n        /* \"#utility.yul\":6860:6876   */\n      swap1\n      pop\n        /* \"#utility.yul\":6850:6882   */\n      swap2\n      swap1\n      pop\n      jump\t// out\n        /* \"#utility.yul\":6888:7068   */\n    tag_122:\n        /* \"#utility.yul\":6936:7013   */\n      0x4e487b7100000000000000000000000000000000000000000000000000000000\n        /* \"#utility.yul\":6933:6934   */\n      0x00\n        /* \"#utility.yul\":6926:7014   */\n      mstore\n        /* \"#utility.yul\":7033:7037   */\n      0x11\n        /* \"#utility.yul\":7030:7031   */\n      0x04\n        /* \"#utility.yul\":7023:7038   */\n      mstore\n        /* \"#utility.yul\":7057:7061   */\n      0x24\n        /* \"#utility.yul\":7054:7055   */\n      0x00\n        /* \"#utility.yul\":7047:7062   */\n      revert\n        /* \"#utility.yul\":7074:7236   */\n    tag_75:\n        /* \"#utility.yul\":7214:7228   */\n      0x7061696420616c72656164790000000000000000000000000000000000000000\n        /* \"#utility.yul\":7210:7211   */\n      0x00\n        /* \"#utility.yul\":7202:7208   */\n      dup3\n        /* \"#utility.yul\":7198:7212   */\n      add\n        /* \"#utility.yul\":7191:7229   */\n      mstore\n        /* \"#utility.yul\":7180:7236   */\n      pop\n      jump\t// out\n        /* \"#utility.yul\":7242:7402   */\n    tag_80:\n        /* \"#utility.yul\":7382:7394   */\n      0x6f6e6c792061646d696e00000000000000000000000000000000000000000000\n        /* \"#utility.yul\":7378:7379   */\n      0x00\n        /* \"#utility.yul\":7370:7376   */\n      dup3\n        /* \"#utility.yul\":7366:7380   */\n      add\n        /* \"#utility.yul\":7359:7395   */\n      mstore\n        /* \"#utility.yul\":7348:7402   */\n      pop\n      jump\t// out\n        /* \"#utility.yul\":7408:7579   */\n    tag_85:\n        /* \"#utility.yul\":7548:7571   */\n      0x6f6e6c79206b69642063616e2077697468647261770000000000000000000000\n        /* \"#utility.yul\":7544:7545   */\n      0x00\n        /* \"#utility.yul\":7536:7542   */\n      dup3\n        /* \"#utility.yul\":7532:7546   */\n      add\n        /* \"#utility.yul\":7525:7572   */\n      mstore\n        /* \"#utility.yul\":7514:7579   */\n      pop\n      jump\t// out\n        /* \"#utility.yul\":7585:7744   */\n    tag_90:\n        /* \"#utility.yul\":7725:7736   */\n      0x746f6f206561726c790000000000000000000000000000000000000000000000\n        /* \"#utility.yul\":7721:7722   */\n      0x00\n        /* \"#utility.yul\":7713:7719   */\n      dup3\n        /* \"#utility.yul\":7709:7723   */\n      add\n        /* \"#utility.yul\":7702:7737   */\n      mstore\n        /* \"#utility.yul\":7691:7744   */\n      pop\n      jump\t// out\n        /* \"#utility.yul\":7750:7918   */\n    tag_95:\n        /* \"#utility.yul\":7890:7910   */\n      0x6b696420616c7265616479206578697374730000000000000000000000000000\n        /* \"#utility.yul\":7886:7887   */\n      0x00\n        /* \"#utility.yul\":7878:7884   */\n      dup3\n        /* \"#utility.yul\":7874:7888   */\n      add\n        /* \"#utility.yul\":7867:7911   */\n      mstore\n        /* \"#utility.yul\":7856:7918   */\n      pop\n      jump\t// out\n        /* \"#utility.yul\":7924:8046   */\n    tag_50:\n        /* \"#utility.yul\":7997:8021   */\n      tag_136\n        /* \"#utility.yul\":8015:8020   */\n      dup2\n        /* \"#utility.yul\":7997:8021   */\n      tag_65\n      jump\t// in\n    tag_136:\n        /* \"#utility.yul\":7990:7995   */\n      dup2\n        /* \"#utility.yul\":7987:8022   */\n      eq\n        /* \"#utility.yul\":7977:7979   */\n      tag_137\n      jumpi\n        /* \"#utility.yul\":8036:8037   */\n      0x00\n        /* \"#utility.yul\":8033:8034   */\n      dup1\n        /* \"#utility.yul\":8026:8038   */\n      revert\n        /* \"#utility.yul\":7977:7979   */\n    tag_137:\n        /* \"#utility.yul\":7967:8046   */\n      pop\n      jump\t// out\n        /* \"#utility.yul\":8052:8174   */\n    tag_54:\n        /* \"#utility.yul\":8125:8149   */\n      tag_139\n        /* \"#utility.yul\":8143:8148   */\n      dup2\n        /* \"#utility.yul\":8125:8149   */\n      tag_99\n      jump\t// in\n    tag_139:\n        /* \"#utility.yul\":8118:8123   */\n      dup2\n        /* \"#utility.yul\":8115:8150   */\n      eq\n        /* \"#utility.yul\":8105:8107   */\n      tag_140\n      jumpi\n        /* \"#utility.yul\":8164:8165   */\n      0x00\n        /* \"#utility.yul\":8161:8162   */\n      dup1\n        /* \"#utility.yul\":8154:8166   */\n      revert\n        /* \"#utility.yul\":8105:8107   */\n    tag_140:\n        /* \"#utility.yul\":8095:8174   */\n      pop\n      jump\t// out\n\n    auxdata: 0xa2646970667358221220ff82abf8838805204b6ab23b57d41c202fb83c82ba1da056294a24ee908b166a64736f6c63430008010033\n}\n",
				"bytecode": {
					"linkReferences": {},
					"object": "608060405234801561001057600080fd5b5033600160006101000a81548173ffffffffffffffffffffffffffffffffffffffff021916908373ffffffffffffffffffffffffffffffffffffffff1602179055506108eb806100616000396000f3fe60806040526004361061003f5760003560e01c80632438628c146100445780633ccfd60b1461008357806340990e301461009a578063f851a440146100b6575b600080fd5b34801561005057600080fd5b5061006b600480360381019061006691906104a9565b6100e1565b60405161007a939291906106a5565b60405180910390f35b34801561008f57600080fd5b50610098610118565b005b6100b460048036038101906100af91906104d2565b6102a3565b005b3480156100c257600080fd5b506100cb610459565b6040516100d891906105ea565b60405180910390f35b60006020528060005260406000206000915090508060000154908060010154908060020160009054906101000a900460ff16905083565b60008060003373ffffffffffffffffffffffffffffffffffffffff1673ffffffffffffffffffffffffffffffffffffffff168152602001908152602001600020905042816001015411156101a1576040517f08c379a000000000000000000000000000000000000000000000000000000000815260040161019890610665565b60405180910390fd5b60008160000154116101e8576040517f08c379a00000000000000000000000000000000000000000000000000000000081526004016101df90610645565b60405180910390fd5b600015158160020160009054906101000a900460ff16151514610240576040517f08c379a000000000000000000000000000000000000000000000000000000000815260040161023790610605565b60405180910390fd5b600115158160020160009054906101000a905050503373ffffffffffffffffffffffffffffffffffffffff166108fc82600001549081150290604051600060405180830381858888f1935050505015801561029f573d6000803e3d6000fd5b5050565b600160009054906101000a900473ffffffffffffffffffffffffffffffffffffffff1673ffffffffffffffffffffffffffffffffffffffff163373ffffffffffffffffffffffffffffffffffffffff1614610333576040517f08c379a000000000000000000000000000000000000000000000000000000000815260040161032a90610625565b60405180910390fd5b60008060003373ffffffffffffffffffffffffffffffffffffffff1673ffffffffffffffffffffffffffffffffffffffff16815260200190815260200160002060000154146103b7576040517f08c379a00000000000000000000000000000000000000000000000000000000081526004016103ae90610685565b60405180910390fd5b604051806060016040528034815260200182426103d491906106ed565b8152602001600015158152506000808473ffffffffffffffffffffffffffffffffffffffff1673ffffffffffffffffffffffffffffffffffffffff168152602001908152602001600020600082015181600001556020820151816001015560408201518160020160006101000a81548160ff0219169083151502179055509050505050565b600160009054906101000a900473ffffffffffffffffffffffffffffffffffffffff1681565b60008135905061048e81610887565b92915050565b6000813590506104a38161089e565b92915050565b6000602082840312156104bb57600080fd5b60006104c98482850161047f565b91505092915050565b600080604083850312156104e557600080fd5b60006104f38582860161047f565b925050602061050485828601610494565b9150509250929050565b61051781610743565b82525050565b61052681610755565b82525050565b6000610539600c836106dc565b9150610544826107ba565b602082019050919050565b600061055c600a836106dc565b9150610567826107e3565b602082019050919050565b600061057f6015836106dc565b915061058a8261080c565b602082019050919050565b60006105a26009836106dc565b91506105ad82610835565b602082019050919050565b60006105c56012836106dc565b91506105d08261085e565b602082019050919050565b6105e481610781565b82525050565b60006020820190506105ff600083018461050e565b92915050565b6000602082019050818103600083015261061e8161052c565b9050919050565b6000602082019050818103600083015261063e8161054f565b9050919050565b6000602082019050818103600083015261065e81610572565b9050919050565b6000602082019050818103600083015261067e81610595565b9050919050565b6000602082019050818103600083015261069e816105b8565b9050919050565b60006060820190506106ba60008301866105db565b6106c760208301856105db565b6106d4604083018461051d565b949350505050565b600082825260208201905092915050565b60006106f882610781565b915061070383610781565b9250827fffffffffffffffffffffffffffffffffffffffffffffffffffffffffffffffff038211156107385761073761078b565b5b828201905092915050565b600061074e82610761565b9050919050565b60008115159050919050565b600073ffffffffffffffffffffffffffffffffffffffff82169050919050565b6000819050919050565b7f4e487b7100000000000000000000000000000000000000000000000000000000600052601160045260246000fd5b7f7061696420616c72656164790000000000000000000000000000000000000000600082015250565b7f6f6e6c792061646d696e00000000000000000000000000000000000000000000600082015250565b7f6f6e6c79206b69642063616e2077697468647261770000000000000000000000600082015250565b7f746f6f206561726c790000000000000000000000000000000000000000000000600082015250565b7f6b696420616c7265616479206578697374730000000000000000000000000000600082015250565b61089081610743565b811461089b57600080fd5b50565b6108a781610781565b81146108b257600080fd5b5056fea2646970667358221220ff82abf8838805204b6ab23b57d41c202fb83c82ba1da056294a24ee908b166a64736f6c63430008010033",
					"opcodes": "PUSH1 0x80 PUSH1 0x40 MSTORE CALLVALUE DUP1 ISZERO PUSH2 0x10 JUMPI PUSH1 0x0 DUP1 REVERT JUMPDEST POP CALLER PUSH1 0x1 PUSH1 0x0 PUSH2 0x100 EXP DUP2 SLOAD DUP2 PUSH20 0xFFFFFFFFFFFFFFFFFFFFFFFFFFFFFFFFFFFFFFFF MUL NOT AND SWAP1 DUP4 PUSH20 0xFFFFFFFFFFFFFFFFFFFFFFFFFFFFFFFFFFFFFFFF AND MUL OR SWAP1 SSTORE POP PUSH2 0x8EB DUP1 PUSH2 0x61 PUSH1 0x0 CODECOPY PUSH1 0x0 RETURN INVALID PUSH1 0x80 PUSH1 0x40 MSTORE PUSH1 0x4 CALLDATASIZE LT PUSH2 0x3F JUMPI PUSH1 0x0 CALLDATALOAD PUSH1 0xE0 SHR DUP1 PUSH4 0x2438628C EQ PUSH2 0x44 JUMPI DUP1 PUSH4 0x3CCFD60B EQ PUSH2 0x83 JUMPI DUP1 PUSH4 0x40990E30 EQ PUSH2 0x9A JUMPI DUP1 PUSH4 0xF851A440 EQ PUSH2 0xB6 JUMPI JUMPDEST PUSH1 0x0 DUP1 REVERT JUMPDEST CALLVALUE DUP1 ISZERO PUSH2 0x50 JUMPI PUSH1 0x0 DUP1 REVERT JUMPDEST POP PUSH2 0x6B PUSH1 0x4 DUP1 CALLDATASIZE SUB DUP2 ADD SWAP1 PUSH2 0x66 SWAP2 SWAP1 PUSH2 0x4A9 JUMP JUMPDEST PUSH2 0xE1 JUMP JUMPDEST PUSH1 0x40 MLOAD PUSH2 0x7A SWAP4 SWAP3 SWAP2 SWAP1 PUSH2 0x6A5 JUMP JUMPDEST PUSH1 0x40 MLOAD DUP1 SWAP2 SUB SWAP1 RETURN JUMPDEST CALLVALUE DUP1 ISZERO PUSH2 0x8F JUMPI PUSH1 0x0 DUP1 REVERT JUMPDEST POP PUSH2 0x98 PUSH2 0x118 JUMP JUMPDEST STOP JUMPDEST PUSH2 0xB4 PUSH1 0x4 DUP1 CALLDATASIZE SUB DUP2 ADD SWAP1 PUSH2 0xAF SWAP2 SWAP1 PUSH2 0x4D2 JUMP JUMPDEST PUSH2 0x2A3 JUMP JUMPDEST STOP JUMPDEST CALLVALUE DUP1 ISZERO PUSH2 0xC2 JUMPI PUSH1 0x0 DUP1 REVERT JUMPDEST POP PUSH2 0xCB PUSH2 0x459 JUMP JUMPDEST PUSH1 0x40 MLOAD PUSH2 0xD8 SWAP2 SWAP1 PUSH2 0x5EA JUMP JUMPDEST PUSH1 0x40 MLOAD DUP1 SWAP2 SUB SWAP1 RETURN JUMPDEST PUSH1 0x0 PUSH1 0x20 MSTORE DUP1 PUSH1 0x0 MSTORE PUSH1 0x40 PUSH1 0x0 KECCAK256 PUSH1 0x0 SWAP2 POP SWAP1 POP DUP1 PUSH1 0x0 ADD SLOAD SWAP1 DUP1 PUSH1 0x1 ADD SLOAD SWAP1 DUP1 PUSH1 0x2 ADD PUSH1 0x0 SWAP1 SLOAD SWAP1 PUSH2 0x100 EXP SWAP1 DIV PUSH1 0xFF AND SWAP1 POP DUP4 JUMP JUMPDEST PUSH1 0x0 DUP1 PUSH1 0x0 CALLER PUSH20 0xFFFFFFFFFFFFFFFFFFFFFFFFFFFFFFFFFFFFFFFF AND PUSH20 0xFFFFFFFFFFFFFFFFFFFFFFFFFFFFFFFFFFFFFFFF AND DUP2 MSTORE PUSH1 0x20 ADD SWAP1 DUP2 MSTORE PUSH1 0x20 ADD PUSH1 0x0 KECCAK256 SWAP1 POP TIMESTAMP DUP2 PUSH1 0x1 ADD SLOAD GT ISZERO PUSH2 0x1A1 JUMPI PUSH1 0x40 MLOAD PUSH32 0x8C379A000000000000000000000000000000000000000000000000000000000 DUP2 MSTORE PUSH1 0x4 ADD PUSH2 0x198 SWAP1 PUSH2 0x665 JUMP JUMPDEST PUSH1 0x40 MLOAD DUP1 SWAP2 SUB SWAP1 REVERT JUMPDEST PUSH1 0x0 DUP2 PUSH1 0x0 ADD SLOAD GT PUSH2 0x1E8 JUMPI PUSH1 0x40 MLOAD PUSH32 0x8C379A000000000000000000000000000000000000000000000000000000000 DUP2 MSTORE PUSH1 0x4 ADD PUSH2 0x1DF SWAP1 PUSH2 0x645 JUMP JUMPDEST PUSH1 0x40 MLOAD DUP1 SWAP2 SUB SWAP1 REVERT JUMPDEST PUSH1 0x0 ISZERO ISZERO DUP2 PUSH1 0x2 ADD PUSH1 0x0 SWAP1 SLOAD SWAP1 PUSH2 0x100 EXP SWAP1 DIV PUSH1 0xFF AND ISZERO ISZERO EQ PUSH2 0x240 JUMPI PUSH1 0x40 MLOAD PUSH32 0x8C379A000000000000000000000000000000000000000000000000000000000 DUP2 MSTORE PUSH1 0x4 ADD PUSH2 0x237 SWAP1 PUSH2 0x605 JUMP JUMPDEST PUSH1 0x40 MLOAD DUP1 SWAP2 SUB SWAP1 REVERT JUMPDEST PUSH1 0x1 ISZERO ISZERO DUP2 PUSH1 0x2 ADD PUSH1 0x0 SWAP1 SLOAD SWAP1 PUSH2 0x100 EXP SWAP1 POP POP POP CALLER PUSH20 0xFFFFFFFFFFFFFFFFFFFFFFFFFFFFFFFFFFFFFFFF AND PUSH2 0x8FC DUP3 PUSH1 0x0 ADD SLOAD SWAP1 DUP2 ISZERO MUL SWAP1 PUSH1 0x40 MLOAD PUSH1 0x0 PUSH1 0x40 MLOAD DUP1 DUP4 SUB DUP2 DUP6 DUP9 DUP9 CALL SWAP4 POP POP POP POP ISZERO DUP1 ISZERO PUSH2 0x29F JUMPI RETURNDATASIZE PUSH1 0x0 DUP1 RETURNDATACOPY RETURNDATASIZE PUSH1 0x0 REVERT JUMPDEST POP POP JUMP JUMPDEST PUSH1 0x1 PUSH1 0x0 SWAP1 SLOAD SWAP1 PUSH2 0x100 EXP SWAP1 DIV PUSH20 0xFFFFFFFFFFFFFFFFFFFFFFFFFFFFFFFFFFFFFFFF AND PUSH20 0xFFFFFFFFFFFFFFFFFFFFFFFFFFFFFFFFFFFFFFFF AND CALLER PUSH20 0xFFFFFFFFFFFFFFFFFFFFFFFFFFFFFFFFFFFFFFFF AND EQ PUSH2 0x333 JUMPI PUSH1 0x40 MLOAD PUSH32 0x8C379A000000000000000000000000000000000000000000000000000000000 DUP2 MSTORE PUSH1 0x4 ADD PUSH2 0x32A SWAP1 PUSH2 0x625 JUMP JUMPDEST PUSH1 0x40 MLOAD DUP1 SWAP2 SUB SWAP1 REVERT JUMPDEST PUSH1 0x0 DUP1 PUSH1 0x0 CALLER PUSH20 0xFFFFFFFFFFFFFFFFFFFFFFFFFFFFFFFFFFFFFFFF AND PUSH20 0xFFFFFFFFFFFFFFFFFFFFFFFFFFFFFFFFFFFFFFFF AND DUP2 MSTORE PUSH1 0x20 ADD SWAP1 DUP2 MSTORE PUSH1 0x20 ADD PUSH1 0x0 KECCAK256 PUSH1 0x0 ADD SLOAD EQ PUSH2 0x3B7 JUMPI PUSH1 0x40 MLOAD PUSH32 0x8C379A000000000000000000000000000000000000000000000000000000000 DUP2 MSTORE PUSH1 0x4 ADD PUSH2 0x3AE SWAP1 PUSH2 0x685 JUMP JUMPDEST PUSH1 0x40 MLOAD DUP1 SWAP2 SUB SWAP1 REVERT JUMPDEST PUSH1 0x40 MLOAD DUP1 PUSH1 0x60 ADD PUSH1 0x40 MSTORE DUP1 CALLVALUE DUP2 MSTORE PUSH1 0x20 ADD DUP3 TIMESTAMP PUSH2 0x3D4 SWAP2 SWAP1 PUSH2 0x6ED JUMP JUMPDEST DUP2 MSTORE PUSH1 0x20 ADD PUSH1 0x0 ISZERO ISZERO DUP2 MSTORE POP PUSH1 0x0 DUP1 DUP5 PUSH20 0xFFFFFFFFFFFFFFFFFFFFFFFFFFFFFFFFFFFFFFFF AND PUSH20 0xFFFFFFFFFFFFFFFFFFFFFFFFFFFFFFFFFFFFFFFF AND DUP2 MSTORE PUSH1 0x20 ADD SWAP1 DUP2 MSTORE PUSH1 0x20 ADD PUSH1 0x0 KECCAK256 PUSH1 0x0 DUP3 ADD MLOAD DUP2 PUSH1 0x0 ADD SSTORE PUSH1 0x20 DUP3 ADD MLOAD DUP2 PUSH1 0x1 ADD SSTORE PUSH1 0x40 DUP3 ADD MLOAD DUP2 PUSH1 0x2 ADD PUSH1 0x0 PUSH2 0x100 EXP DUP2 SLOAD DUP2 PUSH1 0xFF MUL NOT AND SWAP1 DUP4 ISZERO ISZERO MUL OR SWAP1 SSTORE POP SWAP1 POP POP POP POP JUMP JUMPDEST PUSH1 0x1 PUSH1 0x0 SWAP1 SLOAD SWAP1 PUSH2 0x100 EXP SWAP1 DIV PUSH20 0xFFFFFFFFFFFFFFFFFFFFFFFFFFFFFFFFFFFFFFFF AND DUP2 JUMP JUMPDEST PUSH1 0x0 DUP2 CALLDATALOAD SWAP1 POP PUSH2 0x48E DUP2 PUSH2 0x887 JUMP JUMPDEST SWAP3 SWAP2 POP POP JUMP JUMPDEST PUSH1 0x0 DUP2 CALLDATALOAD SWAP1 POP PUSH2 0x4A3 DUP2 PUSH2 0x89E JUMP JUMPDEST SWAP3 SWAP2 POP POP JUMP JUMPDEST PUSH1 0x0 PUSH1 0x20 DUP3 DUP5 SUB SLT ISZERO PUSH2 0x4BB JUMPI PUSH1 0x0 DUP1 REVERT JUMPDEST PUSH1 0x0 PUSH2 0x4C9 DUP5 DUP3 DUP6 ADD PUSH2 0x47F JUMP JUMPDEST SWAP2 POP POP SWAP3 SWAP2 POP POP JUMP JUMPDEST PUSH1 0x0 DUP1 PUSH1 0x40 DUP4 DUP6 SUB SLT ISZERO PUSH2 0x4E5 JUMPI PUSH1 0x0 DUP1 REVERT JUMPDEST PUSH1 0x0 PUSH2 0x4F3 DUP6 DUP3 DUP7 ADD PUSH2 0x47F JUMP JUMPDEST SWAP3 POP POP PUSH1 0x20 PUSH2 0x504 DUP6 DUP3 DUP7 ADD PUSH2 0x494 JUMP JUMPDEST SWAP2 POP POP SWAP3 POP SWAP3 SWAP1 POP JUMP JUMPDEST PUSH2 0x517 DUP2 PUSH2 0x743 JUMP JUMPDEST DUP3 MSTORE POP POP JUMP JUMPDEST PUSH2 0x526 DUP2 PUSH2 0x755 JUMP JUMPDEST DUP3 MSTORE POP POP JUMP JUMPDEST PUSH1 0x0 PUSH2 0x539 PUSH1 0xC DUP4 PUSH2 0x6DC JUMP JUMPDEST SWAP2 POP PUSH2 0x544 DUP3 PUSH2 0x7BA JUMP JUMPDEST PUSH1 0x20 DUP3 ADD SWAP1 POP SWAP2 SWAP1 POP JUMP JUMPDEST PUSH1 0x0 PUSH2 0x55C PUSH1 0xA DUP4 PUSH2 0x6DC JUMP JUMPDEST SWAP2 POP PUSH2 0x567 DUP3 PUSH2 0x7E3 JUMP JUMPDEST PUSH1 0x20 DUP3 ADD SWAP1 POP SWAP2 SWAP1 POP JUMP JUMPDEST PUSH1 0x0 PUSH2 0x57F PUSH1 0x15 DUP4 PUSH2 0x6DC JUMP JUMPDEST SWAP2 POP PUSH2 0x58A DUP3 PUSH2 0x80C JUMP JUMPDEST PUSH1 0x20 DUP3 ADD SWAP1 POP SWAP2 SWAP1 POP JUMP JUMPDEST PUSH1 0x0 PUSH2 0x5A2 PUSH1 0x9 DUP4 PUSH2 0x6DC JUMP JUMPDEST SWAP2 POP PUSH2 0x5AD DUP3 PUSH2 0x835 JUMP JUMPDEST PUSH1 0x20 DUP3 ADD SWAP1 POP SWAP2 SWAP1 POP JUMP JUMPDEST PUSH1 0x0 PUSH2 0x5C5 PUSH1 0x12 DUP4 PUSH2 0x6DC JUMP JUMPDEST SWAP2 POP PUSH2 0x5D0 DUP3 PUSH2 0x85E JUMP JUMPDEST PUSH1 0x20 DUP3 ADD SWAP1 POP SWAP2 SWAP1 POP JUMP JUMPDEST PUSH2 0x5E4 DUP2 PUSH2 0x781 JUMP JUMPDEST DUP3 MSTORE POP POP JUMP JUMPDEST PUSH1 0x0 PUSH1 0x20 DUP3 ADD SWAP1 POP PUSH2 0x5FF PUSH1 0x0 DUP4 ADD DUP5 PUSH2 0x50E JUMP JUMPDEST SWAP3 SWAP2 POP POP JUMP JUMPDEST PUSH1 0x0 PUSH1 0x20 DUP3 ADD SWAP1 POP DUP2 DUP2 SUB PUSH1 0x0 DUP4 ADD MSTORE PUSH2 0x61E DUP2 PUSH2 0x52C JUMP JUMPDEST SWAP1 POP SWAP2 SWAP1 POP JUMP JUMPDEST PUSH1 0x0 PUSH1 0x20 DUP3 ADD SWAP1 POP DUP2 DUP2 SUB PUSH1 0x0 DUP4 ADD MSTORE PUSH2 0x63E DUP2 PUSH2 0x54F JUMP JUMPDEST SWAP1 POP SWAP2 SWAP1 POP JUMP JUMPDEST PUSH1 0x0 PUSH1 0x20 DUP3 ADD SWAP1 POP DUP2 DUP2 SUB PUSH1 0x0 DUP4 ADD MSTORE PUSH2 0x65E DUP2 PUSH2 0x572 JUMP JUMPDEST SWAP1 POP SWAP2 SWAP1 POP JUMP JUMPDEST PUSH1 0x0 PUSH1 0x20 DUP3 ADD SWAP1 POP DUP2 DUP2 SUB PUSH1 0x0 DUP4 ADD MSTORE PUSH2 0x67E DUP2 PUSH2 0x595 JUMP JUMPDEST SWAP1 POP SWAP2 SWAP1 POP JUMP JUMPDEST PUSH1 0x0 PUSH1 0x20 DUP3 ADD SWAP1 POP DUP2 DUP2 SUB PUSH1 0x0 DUP4 ADD MSTORE PUSH2 0x69E DUP2 PUSH2 0x5B8 JUMP JUMPDEST SWAP1 POP SWAP2 SWAP1 POP JUMP JUMPDEST PUSH1 0x0 PUSH1 0x60 DUP3 ADD SWAP1 POP PUSH2 0x6BA PUSH1 0x0 DUP4 ADD DUP7 PUSH2 0x5DB JUMP JUMPDEST PUSH2 0x6C7 PUSH1 0x20 DUP4 ADD DUP6 PUSH2 0x5DB JUMP JUMPDEST PUSH2 0x6D4 PUSH1 0x40 DUP4 ADD DUP5 PUSH2 0x51D JUMP JUMPDEST SWAP5 SWAP4 POP POP POP POP JUMP JUMPDEST PUSH1 0x0 DUP3 DUP3 MSTORE PUSH1 0x20 DUP3 ADD SWAP1 POP SWAP3 SWAP2 POP POP JUMP JUMPDEST PUSH1 0x0 PUSH2 0x6F8 DUP3 PUSH2 0x781 JUMP JUMPDEST SWAP2 POP PUSH2 0x703 DUP4 PUSH2 0x781 JUMP JUMPDEST SWAP3 POP DUP3 PUSH32 0xFFFFFFFFFFFFFFFFFFFFFFFFFFFFFFFFFFFFFFFFFFFFFFFFFFFFFFFFFFFFFFFF SUB DUP3 GT ISZERO PUSH2 0x738 JUMPI PUSH2 0x737 PUSH2 0x78B JUMP JUMPDEST JUMPDEST DUP3 DUP3 ADD SWAP1 POP SWAP3 SWAP2 POP POP JUMP JUMPDEST PUSH1 0x0 PUSH2 0x74E DUP3 PUSH2 0x761 JUMP JUMPDEST SWAP1 POP SWAP2 SWAP1 POP JUMP JUMPDEST PUSH1 0x0 DUP2 ISZERO ISZERO SWAP1 POP SWAP2 SWAP1 POP JUMP JUMPDEST PUSH1 0x0 PUSH20 0xFFFFFFFFFFFFFFFFFFFFFFFFFFFFFFFFFFFFFFFF DUP3 AND SWAP1 POP SWAP2 SWAP1 POP JUMP JUMPDEST PUSH1 0x0 DUP2 SWAP1 POP SWAP2 SWAP1 POP JUMP JUMPDEST PUSH32 0x4E487B7100000000000000000000000000000000000000000000000000000000 PUSH1 0x0 MSTORE PUSH1 0x11 PUSH1 0x4 MSTORE PUSH1 0x24 PUSH1 0x0 REVERT JUMPDEST PUSH32 0x7061696420616C72656164790000000000000000000000000000000000000000 PUSH1 0x0 DUP3 ADD MSTORE POP JUMP JUMPDEST PUSH32 0x6F6E6C792061646D696E00000000000000000000000000000000000000000000 PUSH1 0x0 DUP3 ADD MSTORE POP JUMP JUMPDEST PUSH32 0x6F6E6C79206B69642063616E2077697468647261770000000000000000000000 PUSH1 0x0 DUP3 ADD MSTORE POP JUMP JUMPDEST PUSH32 0x746F6F206561726C790000000000000000000000000000000000000000000000 PUSH1 0x0 DUP3 ADD MSTORE POP JUMP JUMPDEST PUSH32 0x6B696420616C7265616479206578697374730000000000000000000000000000 PUSH1 0x0 DUP3 ADD MSTORE POP JUMP JUMPDEST PUSH2 0x890 DUP2 PUSH2 0x743 JUMP JUMPDEST DUP2 EQ PUSH2 0x89B JUMPI PUSH1 0x0 DUP1 REVERT JUMPDEST POP JUMP JUMPDEST PUSH2 0x8A7 DUP2 PUSH2 0x781 JUMP JUMPDEST DUP2 EQ PUSH2 0x8B2 JUMPI PUSH1 0x0 DUP1 REVERT JUMPDEST POP JUMP INVALID LOG2 PUSH5 0x6970667358 0x22 SLT KECCAK256 SELFDESTRUCT DUP3 0xAB 0xF8 DUP4 DUP9 SDIV KECCAK256 0x4B PUSH11 0xB23B57D41C202FB83C82BA SAR LOG0 JUMP 0x29 0x4A 0x24 0xEE SWAP1 DUP12 AND PUSH11 0x64736F6C63430008010033 "
				},
				"gasEstimates": {
					"creation": {
						"codeDepositCost": "456600",
						"executionCost": "21359",
						"totalCost": "477959"
					},
					"external": {
						"addKid(address,uint256)": "infinite",
						"admin()": "1258",
						"kids(address)": "infinite",
						"withdraw()": "infinite"
					}
				},
				"methodIdentifiers": {
					"addKid(address,uint256)": "40990e30",
					"admin()": "f851a440",
					"kids(address)": "2438628c",
					"withdraw()": "3ccfd60b"
				}
			},
			"storageLayout": {
				"storage": [
					{
						"astId": 13,
						"contract": "Trust.sol:Trust",
						"label": "kids",
						"offset": 0,
						"slot": "0",
						"type": "t_mapping(t_address,t_struct(Kid)8_storage)"
					},
					{
						"astId": 15,
						"contract": "Trust.sol:Trust",
						"label": "admin",
						"offset": 0,
						"slot": "1",
						"type": "t_address"
					}
				],
				"types": {
					"t_address": {
						"encoding": "inplace",
						"label": "address",
						"numberOfBytes": "20"
					},
					"t_bool": {
						"encoding": "inplace",
						"label": "bool",
						"numberOfBytes": "1"
					},
					"t_mapping(t_address,t_struct(Kid)8_storage)": {
						"encoding": "mapping",
						"key": "t_address",
						"label": "mapping(address => struct Trust.Kid)",
						"numberOfBytes": "32",
						"value": "t_struct(Kid)8_storage"
					},
					"t_struct(Kid)8_storage": {
						"encoding": "inplace",
						"label": "struct Trust.Kid",
						"members": [
							{
								"astId": 3,
								"contract": "Trust.sol:Trust",
								"label": "amount",
								"offset": 0,
								"slot": "0",
								"type": "t_uint256"
							},
							{
								"astId": 5,
								"contract": "Trust.sol:Trust",
								"label": "maturity",
								"offset": 0,
								"slot": "1",
								"type": "t_uint256"
							},
							{
								"astId": 7,
								"contract": "Trust.sol:Trust",
								"label": "paid",
								"offset": 0,
								"slot": "2",
								"type": "t_bool"
							}
						],
						"numberOfBytes": "96"
					},
					"t_uint256": {
						"encoding": "inplace",
						"label": "uint256",
						"numberOfBytes": "32"
					}
				}
			},
			"userdoc": {
				"kind": "user",
				"methods": {},
				"version": 1
			}
		}
	}
}